:020000040800F2
:10000000008000202D090008A1080008A7080008AA
:10001000AD080008B3080008B90800080000000097
:10002000000000000000000000000000BF08000801
:10003000CD08000800000000DB080008E9080008FF
:100040007D0900087D0900087D0900087D09000878
:100050007D0900087D0900087D0900087D09000868
:100060007D0900087D0900087D0900087D09000858
:100070007D0900087D0900087D0900087D09000848
:100080007D090008000000007D0900087D090008C6
:10009000F50800087D0900087D0900087D090008B1
:1000A0007D0900087D0900087D0900087D09000818
:1000B0007D0900087D0900087D0900087D09000808
:1000C0007D0900087D0900087D0900087D090008F8
:1000D0007D0900087D0900087D0900087D090008E8
:1000E0007D0900087D0900087D0900087D090008D8
:1000F0007D0900087D0900087D0900080000000056
:10010000000000007D090008000000007D090008D3
:100110007D090008000000007D0900087D09000835
:100120007D0900087D0900087D0900087D09000897
:100130007D09000800000000000000007D090008A3
:100140007D0900087D090008000000000000000093
:10015000000000000000000000000000000000009F
:100160000000000000000000000000007D09000801
:100170007D090008000000000000000000000000F1
:10018000000000007D0900080000000000000000E1
:10019000000000000000000000000000000000005F
:1001A00000000000000000007D0900087D09000833
:1001B0007D0900087D0900087D0900080000000095
:1001C000000000007D0900080000000000000000A1
:0801D0007D0900087D0900080B
:1001D80010B5054C237833B9044B13B10448AFF379
:1001E80000800123237010BD84010020000000005E
:1001F8006891000808B5034B1BB103490348AFF3E6
:10020800008008BD000000008801002068910008F7
:1002180053B94AB9002908BF00281CBF4FF0FF3165
:100228004FF0FF3000F074B9ADF1080C6DE904CE61
:1002380000F006F8DDF804E0DDE9022304B07047B9
:100248002DE9F047089D04468E46002B4DD18A4281
:10025800944669D9B2FA82F252B101FA02F3C2F1B4
:10026800200120FA01F10CFA02FC41EA030E944045
:100278004FEA1C48210CBEFBF8F61FFA8CF708FB66
:1002880016E341EA034306FB07F199420AD91CEB3E
:10029800030306F1FF3080F01F81994240F21C8170
:1002A800023E63445B1AA4B2B3FBF8F008FB1033B8
:1002B80044EA034400FB07F7A7420AD91CEB0404ED
:1002C80000F1FF3380F00A81A74240F207816444BD
:1002D800023840EA0640E41B00261DB1D440002342
:1002E800C5E900433146BDE8F0878B4209D9002DA6
:1002F80000F0EF800026C5E9000130463146BDE830
:10030800F087B3FA83F6002E4AD18B4202D3824299
:1003180000F2F980841A61EB030301209E46002D48
:10032800E0D0C5E9004EDDE702B9FFDEB2FA82F29D
:10033800002A40F09280A1EB0C014FEA1C471FFAFB
:100348008CFE0126200CB1FBF7F307FB131140EAE2
:1003580001410EFB03F0884208D91CEB010103F1AF
:10036800FF3802D2884200F2CB804346091AA4B271
:10037800B1FBF7F007FB101144EA01440EFB00FE45
:10038800A64508D91CEB040400F1FF3102D2A645AA
:1003980000F2BB800846A4EB0E0440EA03409CE749
:1003A800C6F12007B34022FA07FC4CEA030C20FAF6
:1003B80007F401FA06F31C43F9404FEA1C4900FA16
:1003C80006F3B1FBF9F8200C1FFA8CFE09FB181193
:1003D80040EA014108FB0EF0884202FA06F20BD906
:1003E8001CEB010108F1FF3A80F08880884240F256
:1003F8008580A8F102086144091AA4B2B1FBF9F09A
:1004080009FB101144EA014100FB0EFE8E4508D994
:100418001CEB010100F1FF346CD28E456AD9023819
:10042800614440EA0840A0FB0294A1EB0E01A142FE
:10043800C846A64656D353D05DB1B3EB080261EB6C
:100448000E0101FA07F722FA06F3F1401F43C5E946
:10045800007100263146BDE8F087C2F12003D8407C
:100468000CFA02FC21FA03F3914001434FEA1C47BE
:100478001FFA8CFEB3FBF7F007FB10360B0C43EAB0
:10048800064300FB0EF69E4204FA02F408D91CEB60
:10049800030300F1FF382FD29E422DD9023863445E
:1004A8009B1B89B2B3FBF7F607FB163341EA0341FE
:1004B80006FB0EF38B4208D91CEB010106F1FF384D
:1004C80016D28B4214D9023E6144C91A46EA004644
:1004D80038E72E46284605E70646E3E61846F8E6D6
:1004E8004B45A9D2B9EB020864EB0C0E0138A3E71F
:1004F8004646EAE7204694E74046D1E7D0467BE700
:10050800023B614432E7304609E76444023842E777
:10051800704700BF80B586B000AF00F02CFA00F03D
:100528006BF800F0F7F808F0E5F800F0A7F82E4AA5
:1005380007F10C0392E8030083E803002B4A3B1DF4
:1005480092E8030083E803005323FB753B1D082151
:10055800184608F079F93B796F2B02D03B794F2B7D
:1005680006D101224FF40051214800F029FD0BE08B
:100578003B79662B02D03B79462B05D100224FF4FC
:1005880000511B4800F01CFD4FF4FA7000F064FAAB
:100598000023BB750CE0BA7DBB7D18323A4412F8D3
:1005A800142C18333B4403F80C2CBB7D0133BB756A
:1005B800BB7D062BEFD93B7BFA7D9A4205D007F12C
:1005C8000C030821184608F053F93B7BFB7507F12B
:1005D8000C0141F288330822064803F04FFA4FF421
:1005E800FA7000F039FAB1E78091000888910008A4
:1005F80000080048A001002080B594B000AF07F1C2
:10060800180338220021184608F0A2FD3B1D0022DD
:100618001A605A609A60DA601A614FF4007002F04A
:100628001BFA2223BB614FF480737B624023BB62B9
:1006380001233B6300237B6307F11803184602F08C
:10064800AFFA0346002B01D000F0A4F80F237B601B
:100658000123BB600023FB6000233B6100237B6117
:100668003B1D0021184602F0ADFD0346002B01D0CA
:1006780000F090F800BF5037BD4680BD80B500AF90
:10068800224B234A1A60214B4FF416525A601F4BD3
:1006980000229A601D4B0022DA601C4B00221A616E
:1006A8001A4B0C225A61194B00229A61174B0022EF
:1006B800DA61164B00221A62144B00225A62134B5D
:1006C80000229A62114803F089F90346002B01D0F1
:1006D80000F060F800210D4803F082FF0346002B6C
:1006E80001D000F057F80021084803F0B7FF03468F
:1006F800002B01D000F04EF8044803F038FF034601
:10070800002B01D000F046F800BF80BDA0010020FA
:100718000038014080B588B000AF07F10C03002213
:100728001A605A609A60DA601A61184BDB6C174AD3
:1007380043F00403D364154BDB6C03F00403BB6084
:10074800BB68124BDB6C114A43F00103D3640F4BB7
:10075800DB6C03F001037B607B6800224FF40051DF
:100768000B4800F02DFC4FF40053FB6001233B6164
:1007780000237B610023BB6107F10C031946044881
:1007880000F09CFA00BF2037BD4680BD0010024033
:100798000008004880B400AF72B600BFFEE7000052
:1007A80080B483B000AF0F4B1B6E0E4A43F00103B9
:1007B80013660C4B1B6E03F001037B607B68094BCF
:1007C8009B6D084A43F080539365064B9B6D03F07D
:1007D80080533B603B6800BF0C37BD465DF8047B27
:1007E800704700BF0010024080B59AB000AF786033
:1007F80007F1540300221A605A609A60DA601A619D
:1008080007F1100344220021184608F0A1FC7B6878
:100818001B681F4A934237D101233B6100237B6148
:1008280007F11003184602F0E9FE0346002B01D039
:10083800FFF7B0FF174B1B6E164A43F4804313664D
:10084800144B1B6E03F48043FB60FB68114BDB6C9D
:10085800104A43F00103D3640E4BDB6C03F0010331
:10086800BB60BB684FF4C0637B650223BB65002394
:10087800FB6500233B6607237B6607F15403194693
:100888004FF0904000F01AFA00BF6837BD4680BDAF
:10089800003801400010024080B400AFFEE780B489
:1008A80000AFFEE780B400AFFEE780B400AFFEE71C
:1008B80080B400AFFEE780B400AF00BFBD465DF86E
:1008C800047B704780B400AF00BFBD465DF8047B71
:1008D800704780B400AF00BFBD465DF8047B704729
:1008E80080B500AF00F09AF800BF80BD80B500AFBA
:1008F800024800F06DFC00BF80BD00BFDC0E002088
:1009080080B400AF064BD3F88830054A43F470032F
:10091800C2F8883000BFBD465DF8047B704700BF51
:1009280000ED00E00D488546FFF7EAFF0C480D4949
:100938000D4A002302E0D458C4500433C4188C4232
:10094800F9D30A4A0A4C002301E013600432A24298
:10095800FBD308F0D9FBFFF7DDFDFEE700800020A0
:100968000000002084010020289200088401002053
:10097800D8130020FEE780B582B000AF0023FB71DA
:10098800032000F05BF90F2000F00EF80346002B5F
:1009980002D00123FB7101E0FFF702FFFB79184643
:1009A8000837BD4680BD000080B584B000AF7860D0
:1009B8000023FB73164B1B68002B22D0154B1A68BB
:1009C800134B1B684FF47A71B1FBF3F3B2FBF3F3EB
:1009D800184600F066F90346002B0FD17B680F2BF1
:1009E80009D8002279684FF0FF3000F032F90A4A3E
:1009F8007B68136007E00123FB7304E00123FB73AA
:100A080001E00123FB73FB7B18461037BD4680BD10
:100A180008000020000000200400002080B400AF7F
:100A2800054B1A68054B1B681344034A136000BF43
:100A3800BD465DF8047B70473402002008000020A2
:100A480080B400AF034B1B681846BD465DF8047BB5
:100A5800704700BF3402002080B584B000AF7860D2
:100A6800FFF7EEFFB8607B68FB60FB68B3F1FF3F00
:100A780004D0094B1B68FA681344FB6000BFFFF7FA
:100A8800DFFF0246BB68D31AFA689A42F7D800BF5C
:100A980000BF1037BD4680BD0800002080B485B077
:100AA80000AF78607B6803F00703FB600C4BDB68E2
:100AB800BB60BA684FF6FF031340BB60FB681A02BD
:100AC800BB68134343F0BF6343F40033BB60044A7D
:100AD800BB68D36000BF1437BD465DF8047B704720
:100AE80000ED00E080B400AF044BDB681B0A03F0A4
:100AF80007031846BD465DF8047B704700ED00E02B
:100B080080B483B000AF0346FB7197F90730002B20
:100B18000BDBFB7903F01F02074997F907305B09E4
:100B2800012000FA02F241F8232000BF0C37BD462D
:100B38005DF8047B704700BF00E100E080B483B03B
:100B480000AF03463960FB7197F90730002B0ADBC9
:100B58003B68DAB20C4997F907301201D2B20B445C
:100B680083F800230AE03B68DAB20849FB7903F00E
:100B78000F03043B1201D2B20B441A7600BF0C37A4
:100B8800BD465DF8047B704700E100E000ED00E041
:100B980080B489B000AFF860B9607A60FB6803F090
:100BA8000703FB61FB69C3F10703042B28BF042378
:100BB800BB61FB690433062B02D9FB69033B00E0E8
:100BC80000237B614FF0FF32BB6902FA03F3DA437B
:100BD800BB681A407B699A404FF0FF317B6901FA84
:100BE80003F3D9437B680B40134318462437BD46AB
:100BF8005DF8047B7047000080B582B000AF786074
:100C08007B68013BB3F1807F01D301230FE00A4ADF
:100C18007B68013B53600F214FF0FF30FFF78EFFD9
:100C2800054B00229A60044B07221A6000231846DD
:100C38000837BD4680BD00BF10E000E080B582B037
:100C480000AF78607868FFF729FF00BF0837BD4616
:100C580080BD80B586B000AF0346B9607A60FB738B
:100C6800FFF740FF78617A68B9687869FFF790FF05
:100C7800024697F90F3011461846FFF75FFF00BF8D
:100C88001837BD4680BD80B582B000AF0346FB7102
:100C980097F907301846FFF733FF00BF0837BD46FE
:100CA80080BD80B582B000AF78607868FFF7A4FF98
:100CB800034618460837BD4680BD000080B487B09B
:100CC80000AF7860396000237B615AE13B681A689D
:100CD80001217B6901FA03F31340FB60FB68002BD9
:100CE80000F04C813B685B6803F00303012B05D0DF
:100CF8003B685B6803F00303022B30D17B689B6879
:100D08003B617B695B00032202FA03F3DB433A6928
:100D180013403B613B68DA687B695B0002FA03F3C6
:100D28003A6913433B617B683A699A607B685B6800
:100D38003B6101227B6902FA03F3DB433A69134002
:100D48003B613B685B681B0903F001027B6902FA9F
:100D580003F33A6913433B617B683A695A603B681D
:100D68005B6803F00303032B17D07B68DB683B61E8
:100D78007B695B00032202FA03F3DB433A69134001
:100D88003B613B689A687B695B0002FA03F33A6946
:100D980013433B617B683A69DA603B685B6803F040
:100DA8000303022B23D17B69DA087B68083253F8E6
:100DB80022303B617B6903F007039B000F2202FA94
:100DC80003F3DB433A6913403B613B681A697B696B
:100DD80003F007039B0002FA03F33A6913433B61EC
:100DE8007B69DA087B680832396943F822107B6826
:100DF8001B683B617B695B00032202FA03F3DB4358
:100E08003A6913403B613B685B6803F003027B6906
:100E18005B0002FA03F33A6913433B617B683A6962
:100E28001A603B685B6803F44033002B00F0A6802F
:100E38005B4B1B6E5A4A43F001031366584B1B6EFB
:100E480003F00103BB60BB68564A7B699B08023309
:100E580052F823303B617B6903F003039B000F22A8
:100E680002FA03F3DB433A6913403B617B68B3F151
:100E7800904F1FD07B684C4A934219D07B684B4AED
:100E8800934213D07B684A4A93420DD07B68494A03
:100E9800934207D07B68484A934201D105230AE070
:100EA800062308E0042306E0032304E0022302E00B
:100EB800012300E000237A6902F0030292009340C4
:100EC8003A6913433B6137497B699B0802333A69A6
:100ED80041F82320394B9B683B61FB68DB433A6947
:100EE80013403B613B685B6803F48013002B03D01D
:100EF8003A69FB6813433B61304A3B6993602F4B67
:100F0800DB683B61FB68DB433A6913403B613B6844
:100F18005B6803F40013002B03D03A69FB681343A2
:100F28003B61264A3B69D360244B5B683B61FB68A5
:100F3800DB433A6913403B613B685B6803F4003369
:100F4800002B03D03A69FB6813433B611B4A3B699A
:100F580053601A4B1B683B61FB68DB433A691340DB
:100F68003B613B685B6803F48033002B03D03A692C
:100F7800FB6813433B61114A3B6913607B6901338A
:100F88007B613B681A687B6922FA03F3002B7FF4C4
:100F98009DAE00BF00BF1C37BD465DF8047B70479F
:100FA800001002400000014000040048000800480A
:100FB800000C0048001000480014004800040140DC
:100FC80080B483B000AF78600B467B8013467B709B
:100FD8007B78002B03D07A887B689A6102E07A8854
:100FE8007B689A6200BF0C37BD465DF8047B70478A
:100FF80080B584B000AF78607B68002B01D10123F5
:10100800C0E07B6893F89132DBB2002B06D17B6895
:10101800002283F89022786807F072FD7B6803222B
:1010280083F891227B681B68184603F0BAFB0023FB
:10103800FB733EE0FA7B796813469B001344DB00A0
:101048000B44113301221A70FA7B796813469B000E
:101058001344DB000B441033FA7B1A70FA7B79686F
:1010680013469B001344DB000B44133300221A7011
:10107800FA7B796813469B001344DB000B4420334A
:1010880000221A60FA7B796813469B001344DB0040
:101098000B44243300221A60FB7B79685A1C1346E0
:1010A8009B001344DB000B4400221A60FB7B0133D6
:1010B800FB737B681B79FA7B9A42BBD30023FB73D3
:1010C80044E0FA7B796813469B001344DB000B4429
:1010D80003F2511300221A70FA7B796813469B00B9
:1010E8001344DB000B4403F5A873FA7B1A70FA7BF0
:1010F800796813469B001344DB000B4403F2531337
:1011080000221A70FA7B796813469B001344DB00AF
:101118000B4403F5B07300221A60FA7B7968134612
:101128009B001344DB000B4403F5B27300221A60E2
:10113800FA7B796813469B001344DB000B4403F5E4
:10114800B47300221A60FB7B0133FB737B681B7945
:10115800FA7B9A42B5D37B6818687B68043393E8B6
:10116800060003F039FB7B6800221A737B680122B2
:1011780083F891227B689B7A012B02D1786801F071
:1011880041FC002318461037BD4680BD80B582B0AB
:1011980000AF78607B6893F89032012B01D102236D
:1011A80012E07B68012283F890227B681B6818464E
:1011B80003F0E0FA7B681B68184605F0A0FD7B6821
:1011C800002283F89022002318460837BD4680BDC8
:1011D80080B584B000AF78607B681B68184605F05E
:1011E800A5FDF860FB6803F40043002B03D0786882
:1011F80000F004FB10E1FB6803F48063002B13D0BC
:101208007B681B68B3F844309AB27B681B6822F489
:10121800806292B2A3F84420786807F002FD0021AA
:10122800786800F0FCF8F7E0FB6803F48043002BD3
:101238000CD07B681B68B3F844309AB27B681B6893
:1012480022F4804292B2A3F84420E5E0FB6803F45C
:101258000053002B0CD07B681B68B3F844309AB25B
:101268007B681B6822F4005292B2A3F84420D3E0B2
:10127800FB6803F48053002B34D07B681B68B3F8F9
:1012880040309AB27B681B6822F0040292B2A3F83D
:1012980040207B681B68B3F840309AB27B681B68B3
:1012A80022F0080292B2A3F840207B6893F8C83273
:1012B800012B07D17B68002283F8C82200217868B7
:1012C80007F0A2FE786807F0E5FC7B681B68B3F8B6
:1012D80044309AB27B681B6822F4805292B2A3F819
:1012E800442099E0FB6803F40063002B27D07B6857
:1012F8001B68B3F840309AB27B681B6842F008025A
:1013080092B2A3F840207B681B68B3F844309AB2C5
:101318007B681B6822F4006292B2A3F844207B68C1
:101328001B68B3F840309AB27B681B6842F004022D
:1013380092B2A3F84020786807F092FC6CE0FB6852
:1013480003F08003002B40D07B681B68B3F844305F
:101358009AB27B681B6822F0800292B2A3F84420FC
:101368007B6893F8C832002B2BD17B681B68B3F8D5
:1013780040309AB27B681B6842F0040292B2A3F82C
:1013880040207B681B68B3F840309AB27B681B68C2
:1013980042F0080292B2A3F840207B68012283F849
:1013A800C8227B681B68B3F854309BB29B0803F0D3
:1013B8003C027B68C3F8CC220121786807F024FE40
:1013C8002AE0786807F04CFC26E0FB6803F4007319
:1013D800002B0FD07B681B68B3F844309AB27B6847
:1013E8001B6822F4007292B2A3F84420786807F0D0
:1013F8000AFC11E0FB6803F48073002B0CD07B68B7
:101408001B68B3F844309AB27B681B6822F4807278
:1014180092B2A3F8442000BF1037BD4680BD80B506
:1014280082B000AF78600B46FB707B6893F890320F
:10143800012B01D1022312E07B68012283F890225C
:101448007B68FA781A737B681B68FA781146184625
:1014580005F041FC7B68002283F89022002318469F
:101468000837BD4680BD80B584B000AF78600846B7
:1014780011461A460346FB700B463B801346BB7069
:101488000023FB7297F90330002B0EDAFB7803F088
:10149800070213469B001344DB0010337A68134499
:1014A800FB60FB6801225A700EE0FB7803F007022C
:1014B80013469B001344DB0003F5A8737A681344B2
:1014C800FB60FB6800225A70FB7803F00703DAB26E
:1014D800FB681A703A88FB681A61FB68BA78DA7098
:1014E800BB78022B02D1FB6800221A717B6893F843
:1014F8009032012B01D102230EE07B68012283F890
:1015080090227B681B68F968184603F083F97B68AA
:10151800002283F89022FB7A18461037BD4680BD1A
:1015280080B584B000AF78600B46FB7097F9033044
:10153800002B0EDAFB7803F0070213469B001344D6
:10154800DB0010337A681344FB60FB6801225A7091
:101558000EE0FB7803F0070213469B001344DB0000
:1015680003F5A8737A681344FB60FB6800225A707D
:10157800FB7803F00703DAB2FB681A707B6893F80C
:101588009032012B01D102230EE07B68012283F8FF
:1015980090227B681B68F968184603F0FFFC7B689B
:1015A800002283F89022002318461037BD4680BDDC
:1015B80080B586B000AFF8607A603B600B46FB727E
:1015C800FB7A03F0070213469B001344DB0003F584
:1015D800A873FA6813447B617B697A685A617B69EE
:1015E8003A689A617B690022DA617B6900225A7045
:1015F800FB7A03F00703DAB27B691A70FB681B6891
:101608007969184603F0B7FE002318461837BD4617
:1016180080BD80B483B000AF78600B46FB70FB7868
:1016280003F00702796813469B001344DB000B4460
:1016380003F5B6731B6818460C37BD465DF8047B86
:10164800704780B586B000AFF8607A603B600B46A3
:10165800FB72FB7A03F0070213469B001344DB007E
:101668001033FA6813447B617B697A685A617B6935
:101678003A689A617B69012283F824207B693A6879
:101688001A627B690022DA617B6901225A70FB7A4F
:1016980003F00703DAB27B691A70FB681B68796983
:1016A800184603F068FE002318461837BD4680BD6B
:1016B80080B584B000AF78600B46FB70FB7803F010
:1016C80007037A681279934201D901233EE097F91A
:1016D8000330002B0EDAFB7803F0070213469B0059
:1016E8001344DB0010337A681344FB60FB68012263
:1016F8005A700CE0FA7813469B001344DB0003F59C
:10170800A8737A681344FB60FB6800225A70FB6870
:1017180001229A70FB7803F00703DAB2FB681A70AB
:101728007B6893F89032012B01D102230EE07B688D
:10173800012283F890227B681B68F968184605F037
:10174800CBF97B68002283F89022002318461037D3
:10175800BD4680BD80B584B000AF78600B46FB7095
:10176800FB7803F00F037A681279934201D90123B9
:1017780040E097F90330002B0EDAFB7803F00702FC
:1017880013469B001344DB0010337A681344FB6054
:10179800FB6801225A700EE0FB7803F0070213463B
:1017A8009B001344DB0003F5A8737A681344FB60BD
:1017B800FB6800225A70FB6800229A70FB7803F0DD
:1017C8000703DAB2FB681A707B6893F89032012B32
:1017D80001D102230EE07B68012283F890227B6806
:1017E8001B68F968184605F0C8F97B68002283F879
:1017F8009022002318461037BD4680BD80B596B0AC
:1018080000AF7860AEE37B681B68B3F84430A7F894
:101818004E30B7F84E30DBB203F00F0387F84D3087
:1018280097F84D30002B40F07081B7F84E3003F038
:101838001003002B4DD17B681B681B889BB223F4D7
:10184800E14323F07003FB817B681A68FB896FEA28
:1018580043436FEA53439BB213807B6810337B6525
:101868007B681B68B3F850309BB21A467B6D1B78B7
:10187800DB0013447A681268134403F202431B889E
:10188800C3F309027B6DDA617B6D5A697B6DDB6995
:101898001A447B6D5A610021786807F09AF97B68D1
:1018A8001B7BDBB2002B00F05D837B6D9B69002BFB
:1018B80040F058837B681B7BDBB263F07F03DAB2AE
:1018C8007B681B6892B2A3F84C207B6800221A73CD
:1018D80048E37B6803F5A8737B657B681B681B88F6
:1018E800A7F84A30B7F84A3003F40063002B32D027
:1018F8007B681B68B3F850309BB21A467B6D1B7827
:10190800DB0013447A681268134403F206431B8809
:10191800C3F309027B6DDA617B6818687B6803F59D
:1019280026717B6DDA887B6DDB699BB205F050FA16
:101938007B681B681B889AB240F68F7313403B8202
:101948007B681B683A8A42F0800292B21A807868F3
:1019580007F012F906E3B7F94A30002B80F2028348
:101968007B681B681B889AB240F68F731340FB8311
:101978007B681B68FA8B42F0800292B21A807B68FF
:101988001B68B3F850309BB21A467B6D1B78DB009E
:1019980013447A681268134403F206431B88C3F39E
:1019A80009027B6DDA617B6DDB69002B19D07B6DD9
:1019B8005B69002B15D07B6818687B6D59697B6D56
:1019C800DA887B6DDB699BB205F002FA7B6D5A6998
:1019D8007B6DDB691A447B6D5A610021786807F0DA
:1019E800DDF87B681B681B88A7F84A30B7F84A30CF
:1019F80003F40063002B40F0B582B7F84A3003F4D3
:101A08004053B3F5405F00F0AD827B681B68BB6153
:101A18007B681B68B3F850309BB21A46BB69134405
:101A2800BB61BB6903F206437B617B691B889BB280
:101A3800C3F309039AB27B691A807B6D1B693E2B3D
:101A48001DD97B6D1B695B097B647B6D1B6903F08A
:101A58001F03002B02D17B6C013B7B647B691B88D5
:101A68009AB27B6C9BB29B029BB213439BB26FEA08
:101A780043436FEA53439AB27B691A8026E07B6D31
:101A88001B69002B0AD17B691B889BB26FEA434311
:101A98006FEA53439AB27B691A8017E07B6D1B6922
:101AA8005B087B647B6D1B6903F00103002B02D08C
:101AB8007B6C01337B647B691B889AB27B6C9BB21D
:101AC8009B029BB213439AB27B691A807B681B689E
:101AD8001B889BB223F4804323F070037B827B8AAC
:101AE80083F480537B827B8A83F400537B827B68F8
:101AF8001A687B8A43F07F4343F47F0343F400432F
:101B080043F080039BB213802CE27B681B681A4663
:101B180097F84D309B0013441B88A7F84A30B7F953
:101B28004A30002B80F2F6807B681B681A4697F8CB
:101B38004D309B0013441B889AB240F68F731340B4
:101B4800A7F848307B681B681A4697F84D309B0009
:101B58001344B7F8482042F0800292B21A8097F8EE
:101B68004D2013469B001344DB0003F5A8737A68E5
:101B780013447B657B6D1B7B002B23D17B681B6823
:101B8800B3F850309BB21A467B6D1B78DB001344C8
:101B98007A681268134403F206431B88C3F30903E7
:101BA800A7F85030B7F85030002B00F08E807B68D3
:101BB80018687B6D59697B6DDA88B7F8503005F085
:101BC80007F982E07B6DDB78022B0AD1B7F84A303F
:101BD8001A46796D786800F0D3F90346A7F85030B3
:101BE80073E07B681B681A467B6D1B789B00134467
:101BF8001B889BB223F4E04323F07003A7F852300C
:101C08007B681B681A467B6D1B789B001A44B7F8E3
:101C1800523043F07F4343F47F0343F4004343F0DF
:101C2800C0039BB213807B681B681A467B6D1B78C8
:101C38009B0013441B889BB203F48043002B22D0E3
:101C48007B681B68B3F850309BB21A467B6D1B78D3
:101C5800DB0013447A681268134403F202431B88BA
:101C6800C3F30903A7F85030B7F85030002B2CD035
:101C78007B6818687B6D59697B6D1A89B7F8503095
:101C880005F0A6F821E07B681B68B3F850309BB2DA
:101C98001A467B6D1B78DB0013447A68126813447C
:101CA80003F206431B88C3F30903A7F85030B7F8BB
:101CB8005030002B09D07B6818687B6D59697B6DA3
:101CC8005A89B7F8503005F083F87B6DDA69B7F8B0
:101CD80050301A447B6DDA617B6D5A69B7F8503021
:101CE8001A447B6D5A617B6D9B69002B05D0B7F850
:101CF80050207B6D1B699A4206D27B6D1B78194672
:101D0800786806F04BFF05E07B681B68796D18461C
:101D180003F031FBB7F84A3003F08003002B00F0E2
:101D2800218197F84D2013469B001344DB001033A4
:101D38007A6813447B657B681B681A4697F84D30B0
:101D48009B0013441B889BB223F4E14323F07003E8
:101D5800A7F842307B681B681A4697F84D309B00FD
:101D68001A44B7F842306FEA43436FEA53439BB2D1
:101D780013807B6DDB78012B40F0A2807B6D002205
:101D88009A617B6D1B7B002B00F09380B7F84A307B
:101D980003F04003002B46D07B6D5B78002B26D1E7
:101DA8007B681B687B627B681B68B3F850309BB20A
:101DB8001A467B6A13447B627B6D1B78DA007B6A68
:101DC800134403F202433B623B6A1B889BB2C3F392
:101DD80009039AB23B6A1A803B6A1B889BB26FEA76
:101DE80043436FEA53439AB23B6A1A8061E07B6DC2
:101DF8005B78012B5DD17B681B68FB627B681B6885
:101E0800B3F850309BB21A46FB6A1344FB627B6DF1
:101E18001B78DA00FB6A134403F20243BB62BB6A15
:101E280000221A8045E07B681B68FB637B6D5B784A
:101E3800002B26D17B681B687B637B681B68B3F823
:101E480050309BB21A467B6B13447B637B6D1B78C7
:101E5800DA007B6B134403F206433B633B6B1B883E
:101E68009BB2C3F309039AB23B6B1A803B6B1B8886
:101E78009BB26FEA43436FEA53439AB23B6B1A80B3
:101E880017E07B6D5B78012B13D17B681B68B3F877
:101E980050309BB21A46FB6B1344FB637B6D1B7877
:101EA800DA00FB6B134403F20643BB63BB6B0022EF
:101EB8001A807B6D1B781946786806F08AFE51E017
:101EC800B7F84A3003F48073002B44D17B681B6851
:101ED800B3F850309BB21A467B6D1B78DB00134475
:101EE8007A681268134403F202431B88C3F3090398
:101EF800A7F840307B6D9A69B7F840309A4207D905
:101F08007B6D9A69B7F84030D21A7B6D9A6102E00E
:101F18007B6D00229A617B6D9B69002B06D17B6DDE
:101F28001B781946786806F054FE1BE07B6D5A69E9
:101F3800B7F840301A447B6D5A617B6DDA69B7F89F
:101F480040301A447B6DDA617B681B68796D1846EE
:101F580003F011FA06E0B7F84A301A46796D786846
:101F680000F017F97B681B68B3F844309BB21BB2CA
:101F7800002BFFF648AC002318465837BD4680BDF5
:101F880080B588B000AFF860B9601346FB80FB8865
:101F980003F48043002B7CD0FB681B68B3F85030F7
:101FA8009BB21A46BB681B78DB001344FA681268B8
:101FB800134403F202431B88C3F309037B83BB6802
:101FC8009A697B8B9A4206D3BB689A697B8BD21A33
:101FD800BB689A6102E0BB6800229A61BB689B6992
:101FE800002B23D1FB681B681A46BB681B789B0033
:101FF80013441B889BB223F4804323F070033B8374
:102008003B8B83F400533B83FB681B681A46BB6811
:102018001B789B001A443B8B43F07F4343F47F03B8
:1020280043F4004343F080039BB21380FB8803F022
:102038004003002B1FD0FB681B681A46BB681B783F
:102048009B0013441B889BB223F4E04323F07003E6
:10205800FB82FB681B681A46BB681B789B001A4406
:10206800FB8A43F07F4343F47F0343F4004343F088
:10207800C0039BB213807B8B002B00F08580FB682C
:102088001868BB685969BB681A897B8B04F0A0FE85
:102098007AE0FB681B68B3F850309BB21A46BB68FD
:1020A8001B78DB001344FA681268134403F20643F2
:1020B8001B88C3F309037B83BB689A697B8B9A42AD
:1020C80006D3BB689A697B8BD21ABB689A6102E017
:1020D800BB6800229A61BB689B69002B23D1FB680F
:1020E8001B681A46BB681B789B0013441B889BB26D
:1020F80023F4804323F07003FB83FB8B83F40053AA
:10210800FB83FB681B681A46BB681B789B001A4454
:10211800FB8B43F07F4343F47F0343F4004343F0D6
:1021280080039BB21380FB8803F04003002B1FD170
:10213800FB681B681A46BB681B789B0013441B8806
:102148009BB223F4E04323F07003BB83FB681B6856
:102158001A46BB681B789B001A44BB8B43F07F432D
:1021680043F47F0343F4004343F0C0039BB213805E
:102178007B8B002B08D0FB681868BB685969BB6863
:102188005A897B8B04F024FE7B8B18462037BD468A
:1021980080BD80B5A4B000AFF860B9601346FB807D
:1021A800FB8803F04003002B00F0DB81FB681B6811
:1021B800B3F850309BB21A46BB681B78DB00134457
:1021C800FA681268134403F202431B88C3F3090335
:1021D800A7F88630BB689A69B7F886309A4207D95B
:1021E800BB689A69B7F88630D21ABB689A6102E070
:1021F800BB6800229A61BB689B69002B40F0B980DC
:10220800BB685B78002B26D1FB681B68FB62FB6808
:102218001B68B3F850309BB21A46FB6A1344FB6242
:10222800BB681B78DA00FB6A134403F20243BB6203
:10223800BB6A1B889BB2C3F309039AB2BB6A1A80B4
:10224800BB6A1B889BB26FEA43436FEA53439AB257
:10225800BB6A1A801AE0BB685B78012B16D1FB6851
:102268001B687B63FB681B68B3F850309BB21A4647
:102278007B6B13447B63BB681B78DA007B6B13446E
:1022880003F202433B633B6B00221A80FB681B6826
:102298007B62BB685B78002B26D1FB681B68FB61FF
:1022A800FB681B68B3F850309BB21A46FB691344AD
:1022B800FB61BB681B78DA00FB69134403F2064331
:1022C800BB61BB691B889BB2C3F309039AB2BB69A4
:1022D8001A80BB691B889BB26FEA43436FEA53437A
:1022E8009AB2BB691A8017E0BB685B78012B13D1DF
:1022F800FB681B68B3F850309BB21A467B6A1344DC
:102308007B62BB681B78DA007B6A134403F20643DE
:102318003B623B6A00221A80BB681B781946F86842
:1023280006F057FCFB8803F48043002B00F0FA8288
:10233800FB681B681A46BB681B789B0013441B8804
:102348009BB223F4E04323F07003FB82FB681B6815
:102358001A46BB681B789B001A44FB8A43F07F43EC
:1023680043F47F0343F4404343F080039BB213805C
:10237800D8E2FB8803F48043002B21D0FB681B685C
:102388001A46BB681B789B0013441B889BB223F436
:10239800E04323F07003A7F88A30FB681B681A46ED
:1023A800BB681B789B001A44B7F88A3043F07F4318
:1023B80043F47F0343F4404343F080039BB213800C
:1023C800BB6893F82430012B40F0AC82BB685A6993
:1023D800B7F886301A44BB685A61BB68DA69B7F83F
:1023E80086301A44BB68DA61BB681A6ABB681B6925
:1023F8009A420BD3BB681B69C7F88C30BB681A6A52
:10240800D7F88C30D21ABB681A6217E0BB681B6A0F
:10241800002B08D1B7F88630C7F88C30BB6800228B
:1024280083F824200AE0BB68002283F82420BB68D4
:102438001B6AC7F88C30BB6800221A62BB685B78DD
:10244800002B65D1FB681B68FB63FB681B68B3F84E
:1024580050309BB21A46FB6B1344FB63BB681B7876
:10246800DA00FB6B134403F20243BB63BB6B1B88AC
:102478009BB2C3F309039AB2BB6B1A80D7F88C30AE
:102488003E2B1DD9D7F88C305B09BB64D7F88C304C
:1024980003F01F03002B02D1BB6C013BBB64BB6B79
:1024A8001B889AB2BB6C9BB29B029BB213439BB234
:1024B8006FEA43436FEA53439AB2BB6B1A8044E016
:1024C800D7F88C30002B0AD1BB6B1B889BB26FEA04
:1024D80043436FEA53439AB2BB6B1A8035E0D7F88F
:1024E8008C305B08BB64D7F88C3003F00103002BF9
:1024F80002D0BB6C0133BB64BB6B1B889AB2BB6C4C
:102508009BB29B029BB213439AB2BB6B1A801CE02E
:10251800BB685B78012B18D1FB681B687B64FB6880
:102528001B68B3F850309BB21A467B6C13447B642B
:10253800BB681B78DA007B6C134403F202433B64EC
:10254800D7F88C309AB23B6C1A80FB681868BB6865
:102558005969BB681A89D7F88C309BB204F0F6FB2E
:10256800E0E1FB681B68B3F850309BB21A46BB68C1
:102578001B78DB001344FA681268134403F206431D
:102588001B88C3F30903A7F88630BB689A69B7F8B4
:1025980086309A4207D3BB689A69B7F88630D21A50
:1025A800BB689A6102E0BB6800229A61BB689B69BC
:1025B800002B40F0C080BB685B78002B26D1FB68FD
:1025C8001B68FB67FB681B68B3F850309BB21A4660
:1025D800FB6F1344FB67BB681B78DA00FB6F13447F
:1025E80003F20243BB67BB6F1B889BB2C3F30903AB
:1025F8009AB2BB6F1A80BB6F1B889BB26FEA4343CA
:102608006FEA53439AB2BB6F1A801AE0BB685B78D3
:10261800012B16D1FB681B687B66FB681B68B3F847
:1026280050309BB21A467B6E13447B66BB681B789E
:10263800DA007B6E134403F202433B663B6E0022D2
:102648001A80FB681B687B67BB685B78002B2BD103
:10265800FB681B68FB66FB681B68B3F850309BB2CD
:102668001A46FB6E1344FB66BB681B78DA00FB6EE8
:10267800134403F20643C7F88030D7F880301B882C
:102688009BB2C3F309039AB2D7F880301A80D7F8FF
:1026980080301B889BB26FEA43436FEA53439AB278
:1026A800D7F880301A8017E0BB685B78012B13D10C
:1026B800FB681B68B3F850309BB21A467B6F134413
:1026C8007B67BB681B78DA007B6F134403F2064311
:1026D8003B673B6F00221A80BB681B781946F86875
:1026E80006F077FAFB8803F48043002B40F01A8148
:1026F800FB681B681A46BB681B789B0013441B8841
:102708009BB223F4E04323F07003A7F88830FB68FA
:102718001B681A46BB681B789B001A44B7F88830B8
:1027280043F07F4343F47F0343F4404343F0800383
:102738009BB21380F6E0FB8803F48043002B21D181
:10274800FB681B681A46BB681B789B0013441B88F0
:102758009BB223F4E04323F07003A7F84E30FB68E4
:102768001B681A46BB681B789B001A44B7F84E30A2
:1027780043F07F4343F47F0343F4404343F0800333
:102788009BB21380BB6893F82430012B40F0CA80B9
:10279800BB685A69B7F886301A44BB685A61BB6887
:1027A800DA69B7F886301A44BB68DA61BB681A6A16
:1027B800BB681B699A420BD3BB681B69C7F88C308E
:1027C800BB681A6AD7F88C30D21ABB681A6217E04D
:1027D800BB681B6A002B08D1B7F88630C7F88C3065
:1027E800BB68002283F824200AE0BB681B6AC7F88C
:1027F8008C30BB6800221A62BB68002283F8242050
:10280800FB681B687B65BB685B78002B65D1FB6840
:102818001B68FB65FB681B68B3F850309BB21A460F
:10282800FB6D1344FB65BB681B78DA00FB6D134432
:1028380003F20643BB65BB6D1B889BB2C3F3090358
:102848009AB2BB6D1A80D7F88C303E2B1DD9D7F8B9
:102858008C305B09BB66D7F88C3003F01F03002B64
:1028680002D1BB6E013BBB66BB6D1B889AB2BB6EC7
:102878009BB29B029BB213439BB26FEA43436FEA3E
:1028880053439AB2BB6D1A8041E0D7F88C30002BC5
:102898000AD1BB6D1B889BB26FEA43436FEA53436F
:1028A8009AB2BB6D1A8032E0D7F88C305B08BB66F1
:1028B800D7F88C3003F00103002B02D0BB6E013334
:1028C800BB66BB6D1B889AB2BB6E9BB29B029BB268
:1028D80013439AB2BB6D1A8019E0BB685B78012B71
:1028E80015D1FB681B68B3F850309BB21A467B6D54
:1028F80013447B65BB681B78DA007B6D134403F2D5
:1029080006433B65D7F88C309AB23B6D1A80FB685A
:102918001868BB685969BB685A89D7F88C309BB26C
:1029280004F014FAFB681B681A46BB681B789B0006
:1029380013441B889BB223F4E04323F04003BB827B
:10294800BB8A83F01003BB82BB8A83F02003BB825F
:10295800FB681B681A46BB681B789B001A44BB8A35
:1029680043F07F4343F47F0343F4004343F0800381
:102978009BB21380002318469037BD4680BD80B4B3
:1029880087B000AFF8607B600B467B8113463B81C4
:102998007B8903F080039BB2002B0BD07B8903F06B
:1029A800070213469B001344DB001033FA681344F4
:1029B8007B6109E07A8913469B001344DB0003F529
:1029C800A873FA6813447B613B89002B07D17B69A4
:1029D80000221A737B689AB27B69DA800BE07B6904
:1029E80001221A737B689AB27B691A817B681B0C77
:1029F8009AB27B695A81002318461C37BD465DF898
:102A0800047B704780B485B000AF78607B681B6832
:102A1800FB607B680122C3F8D0227B68002283F820
:102A2800C822FB68B3F854309BB243F001039AB252
:102A3800FB68A3F85420FB68B3F854309BB243F00A
:102A480002039AB2FB68A3F85420002318461437EF
:102A5800BD465DF8047B704780B485B000AF7860F0
:102A68007B68002B41D14B4B1B6803F4C063B3F563
:102A7800806F31D1474BD3F88030464A23F48073B6
:102A8800C2F88030434B1B6823F4C063414A43F4C7
:102A980000731360404B1B68322202FB03F33F4A6A
:102AA800A2FB03239B0C0133FB6002E0FB68013BA4
:102AB800FB60384B5B6903F48063B3F5806F02D128
:102AC800FB68002BF2D1334B5B6903F48063B3F5E9
:102AD800806F58D1032357E02E4BD3F880302D4A0E
:102AE80023F48073C2F880304DE07B68B3F5007F33
:102AF80041D1284B1B6803F4C063B3F5806F31D113
:102B0800244BD3F88030234A43F48073C2F88030D2
:102B1800204B1B6823F4C0631E4A43F40073136000
:102B28001D4B1B68322202FB03F31C4AA2FB032342
:102B38009B0C0133FB6002E0FB68013BFB60154B1B
:102B48005B6903F48063B3F5806F02D1FB68002BE7
:102B5800F2D1104B5B6903F48063B3F5806F12D137
:102B6800032311E00B4BD3F880300A4A43F48073F7
:102B7800C2F8803007E0074B1B6823F4C063054A9E
:102B880043F480631360002318461437BD465DF88C
:102B9800047B7047007000400000002083DE1B4368
:102BA80080B588B000AF78607B68002B01D1012325
:102BB800FEE27B681B6803F00103002B75D0974B7E
:102BC8009B6803F00C03BB61944BDB6803F00303C1
:102BD8007B61BB690C2B02D17B69032B02D0BB69DB
:102BE800082B0BD18D4B1B6803F40033002B5BD0F3
:102BF8007B685B68002B57D10123D9E27B685B684F
:102C0800B3F5803F06D1854B1B68844A43F4803373
:102C180013601DE07B685B68B3F5A02F0CD17F4B78
:102C28001B687E4A43F4802313607C4B1B687B4AF5
:102C380043F4803313600BE0784B1B68774A23F426
:102C480080331360754B1B68744A23F48023136028
:102C58007B685B68002B13D0FDF7F2FE386108E053
:102C6800FDF7EEFE02463B69D31A642B01D9032314
:102C78009EE26A4B1B6803F40033002BF0D014E08B
:102C8800FDF7DEFE386108E0FDF7DAFE02463B6933
:102C9800D31A642B01D903238AE2604B1B6803F41F
:102CA8000033002BF0D100E000BF7B681B6803F005
:102CB8000203002B75D0594B9B6803F00C03BB61D2
:102CC800564BDB6803F003037B61BB690C2B02D115
:102CD8007B69022B02D0BB69042B1FD14F4B1B68A9
:102CE80003F48063002B05D07B68DB68002B01D1DF
:102CF80001235DE2494B5B6823F0FE427B681B6958
:102D08001B06464913434B60454B1B681846FDF7A5
:102D18004BFE0346002B43D0012349E27B68DB6866
:102D2800002B23D03D4B1B683C4A43F4807313604F
:102D3800FDF786FE386108E0FDF782FE02463B6932
:102D4800D31A022B01D9032332E2344B1B6803F454
:102D58008063002BF0D0314B5B6823F0FE427B6828
:102D68001B691B062D4913434B601AE02B4B1B684C
:102D78002A4A23F480731360FDF762FE386108E085
:102D8800FDF75EFE02463B69D31A022B01D90323E5
:102D98000EE2224B1B6803F48063002BF0D100E0A5
:102DA80000BF7B681B6803F00803002B41D07B68D9
:102DB8005B69002B1CD0194BD3F89430174A43F0A9
:102DC8000103C2F89430FDF73BFE386108E0FDF7D7
:102DD80037FE02463B69D31A022B01D90323E7E1E8
:102DE8000E4BD3F8943003F00203002BEFD020E011
:102DF8000A4BD3F89430094A23F00103C2F89430FF
:102E0800FDF71EFE38610DE0FDF71AFE02463B692C
:102E1800D31A022B06D90323CAE100BF00100240CF
:102E2800040000208C4BD3F8943003F00203002BED
:102E3800EAD17B681B6803F00403002B00F0A6802E
:102E48000023FB77844B9B6D03F08053002B01D14B
:102E5800012300E00023002B0DD07F4B9B6D7E4AA1
:102E680043F0805393657C4B9B6D03F08053FB606C
:102E7800FB680123FB77794B1B6803F48073002BF5
:102E880018D1764B1B68754A43F480731360FDF7BD
:102E9800D7FD386108E0FDF7D3FD02463B69D31A38
:102EA800022B01D9032383E16C4B1B6803F4807365
:102EB800002BF0D07B689B68012B08D1664BD3F8B8
:102EC8009030654A43F00103C2F8903024E07B68F3
:102ED8009B68052B10D1604BD3F890305E4A43F0C5
:102EE8000403C2F890305C4BD3F890305A4A43F050
:102EF8000103C2F890300FE0574BD3F89030564A90
:102F080023F00103C2F89030534BD3F89030524A63
:102F180023F00403C2F890307B689B68002B16D01E
:102F2800FDF78EFD38610AE0FDF78AFD02463B6930
:102F3800D31A41F28832934201D9032338E1464B30
:102F4800D3F8903003F00203002BEDD015E0FDF725
:102F580077FD38610AE0FDF773FD02463B69D31A35
:102F680041F28832934201D9032321E13A4BD3F845
:102F7800903003F00203002BEDD1FB7F012B05D12C
:102F8800354B9B6D344A23F0805393657B681B68EF
:102F980003F02003002B3CD07B689B69002B1CD0DE
:102FA8002D4BD3F898302C4A43F00103C2F89830DF
:102FB800FDF746FD386108E0FDF742FD02463B6932
:102FC800D31A022B01D90323F2E0234BD3F898300C
:102FD80003F00203002BEFD01BE01F4BD3F898300F
:102FE8001D4A23F00103C2F89830FDF729FD386126
:102FF80008E0FDF725FD02463B69D31A022B01D9EB
:103008000323D5E0144BD3F8983003F00203002BC8
:10301800EFD17B68DB69002B00F0C9800E4B9B6801
:1030280003F00C030C2B00F083807B68DB69022B18
:103038005ED1094B1B68084A23F080731360FDF7C3
:10304800FFFC38610CE0FDF7FBFC02463B69D31A34
:10305800022B05D90323ABE00010024000700040AA
:10306800554B1B6803F00073002BECD1524BDA6808
:10307800524B13407A68116A7A68526A013A12010F
:1030880011437A68926A120211437A68126B5208E5
:10309800013A520511437A68526B5208013A5206B6
:1030A80011437A68D26AD2060A4343491343CB6074
:1030B800414B1B68404A43F0807313603E4BDB680A
:1030C8003D4A43F08073D360FDF7BAFC386108E0ED
:1030D800FDF7B6FC02463B69D31A022B01D903233C
:1030E80066E0354B1B6803F00073002BF0D05EE000
:1030F800314B1B68304A23F080731360FDF7A0FC46
:10310800386108E0FDF79CFC02463B69D31A022BA4
:1031180001D903234CE0284B1B6803F00073002BF4
:10312800F0D1254BDA682449254B1340CB603EE0AB
:103138007B68DB69012B01D1012339E01E4BDB6879
:103148007B617B6903F003027B681B6A9A422CD17E
:103158007B6903F0F0027B685B6A013B1B019A42C2
:1031680023D17B6903F4FE427B689B6A1B029A4267
:103178001BD17B6903F078427B68DB6ADB069A42E5
:1031880013D17B6903F4C0027B681B6B5B08013BAE
:103198005B059A4209D17B6903F0C0627B685B6B6F
:1031A8005B08013B5B069A4201D0012300E0002343
:1031B80018462037BD4680BD001002400C809F0194
:1031C800FCFFEEFE80B586B000AF78603960002362
:1031D8007B617B68002B01D101231EE1914B1B68A9
:1031E80003F00F033A689A4210D98E4B1B6823F0FC
:1031F8000F028C493B6813430B608A4B1B6803F032
:103208000F033A689A4201D0012306E17B681B68E4
:1032180003F00103002B73D07B685B68032B29D173
:10322800814B1B6803F00073002B01D10123F4E0EC
:1032380000F09EF938613B697C4A93423FD97A4B4A
:103248009B6803F0F003002B09D07B681B6803F030
:103258000203002B33D07B689B68002B2FD1724B65
:103268009B6823F0F003704A43F080039360802347
:103278007B6124E07B685B68022B07D16A4B1B6883
:1032880003F40033002B09D10123C6E0664B1B6809
:1032980003F48063002B01D10123BEE000F0CEF8D7
:1032A80038613B69614A934209D95F4B9B6823F0B7
:1032B800F0035D4A43F08003936080237B615A4B9F
:1032C8009B6823F003027B685B68574913438B6054
:1032D800FDF7B6FBF8600AE0FDF7B2FB0246FB68B3
:1032E800D31A41F28832934201D9032395E04E4B19
:1032F8009B6803F00C027B685B689B009A42EBD1E9
:103308007B681B6803F00203002B23D07B681B68D3
:1033180003F00403002B05D0434B9B68424A43F457
:10332800E06393607B681B6803F00803002B07D0F9
:103338003D4B9B6823F47C533B4A43F4E063936022
:10334800394B9B6823F0F0027B689B68364913432E
:103358008B6008E07B69802B05D1334B9B68324A30
:1033680023F0F00393602F4B1B6803F00F033A68B8
:103378009A421DD22B4B1B6823F00F0229493B6848
:1033880013430B60FDF75CFBF8600AE0FDF758FBA0
:103398000246FB68D31A41F28832934201D90323CB
:1033A8003BE0204B1B6803F00F033A689A42EDD1CB
:1033B8007B681B6803F00403002B08D01A4B9B683A
:1033C80023F4E0627B68DB68174913438B607B68F2
:1033D8001B6803F00803002B09D0134B9B6823F4E8
:1033E80060527B681B69DB000F4913438B6000F058
:1033F80025F802460C4B9B681B0903F00F030C4988
:10340800CB5C03F01F0322FA03F30A4A13600A4B4A
:103418001B681846FDF7C8FA034618461837BD4614
:1034280080BD00BF002002400010024000B4C40468
:10343800D8910008000000200400002080B487B064
:1034480000AF2C4B9B6803F00C03042B02D12A4BD2
:103458003B6147E0274B9B6803F00C03082B02D124
:10346800264B3B613EE0234B9B6803F00C030C2B7F
:1034780036D1204BDB6803F00303FB601D4BDB6890
:103488001B0903F00F030133BB60FB68032B0CD14E
:103498001A4ABB68B2FBF3F3164AD268120A02F062
:1034A8007F0202FB03F37B610CE0134ABB68B2FBAB
:1034B800F3F3104AD268120A02F07F0202FB03F308
:1034C8007B6100BF0B4BDB685B0E03F0030301332A
:1034D8005B007B607A697B68B2FBF3F33B6101E0D8
:1034E80000233B613B6918461C37BD465DF8047BE9
:1034F800704700BF001002400024F40000127A0058
:1035080080B400AF034B1B681846BD465DF8047BCA
:10351800704700BF0000002080B500AFFFF7F0FF44
:103528000246064B9B681B0A03F007030449CB5C61
:1035380003F01F0322FA03F3184680BD001002406F
:10354800E891000880B500AFFFF7DAFF0246064BA6
:103558009B68DB0A03F007030449CB5C03F01F03F5
:1035680022FA03F3184680BD00100240E8910008D3
:1035780080B487B000AF1E4BDB6803F003033B61E8
:103588001B4BDB681B0903F00F030133FB603B692E
:10359800032B0CD1174AFB68B2FBF3F3144AD26829
:1035A800120A02F07F0202FB03F37B610CE0124A6D
:1035B800FB68B2FBF3F30E4AD268120A02F07F02EC
:1035C80002FB03F37B6100BF094BDB685B0E03F072
:1035D800030301335B00BB607A69BB68B2FBF3F39A
:1035E8007B607B6818461C37BD465DF8047B7047D6
:1035F8000010024000127A000024F40080B586B062
:1036080000AF78600023FB740023BB747B681B68E1
:1036180003F40023002B00F0988000237B74434BB5
:103628009B6D03F08053002B0DD1404B9B6D3F4A9F
:1036380043F0805393653D4B9B6D03F08053BB6013
:10364800BB6801237B743A4B1B68394A43F4807387
:103658001360FDF7F5F9F86009E0FDF7F1F90246A6
:10366800FB68D31A022B02D90323FB7405E0304B05
:103678001B6803F48073002BEFD0FB7C002B59D11F
:103688002A4BD3F8903003F440737B617B69002B9D
:103698001ED07B681B6C7A699A4219D0234BD3F8E9
:1036A800903023F440737B61204BD3F890301F4A4D
:1036B80043F48033C2F890301C4BD3F890301B4A47
:1036C80023F48033C2F89030184A7B69C2F89030EE
:1036D8007B6903F00103002B16D0FDF7B1F9F86000
:1036E8000BE0FDF7ADF90246FB68D31A41F28832C8
:1036F800934202D90323FB7406E00C4BD3F89030B5
:1037080003F00203002BECD0FB7C002B0BD1074B02
:10371800D3F8903023F440727B681B6C0349134341
:10372800C1F8903008E0FB7CBB7405E00010024053
:1037380000700040FB7CBB747B7C012B05D1A64B41
:103748009B6DA54A23F0805393657B681B6803F043
:103758000103002B0AD0A04BD3F8883023F00302D2
:103768007B685B689C491343C1F888307B681B6899
:1037780003F00203002B0AD0974BD3F8883023F0CC
:103788000C027B689B6894491343C1F888307B68B6
:103798001B6803F00403002B0AD08F4BD3F8883042
:1037A80023F030027B68DB688B491343C1F888300B
:1037B8007B681B6803F00803002B0AD0864BD3F8FC
:1037C800883023F0C0027B681B6983491343C1F822
:1037D80088307B681B6803F02003002B0AD07E4BDF
:1037E800D3F8883023F440627B685B697A491343D5
:1037F800C1F888307B681B6803F04003002B0AD0AF
:10380800754BD3F8883023F440527B689B69724922
:103818001343C1F888307B681B6803F08003002BD2
:103828000AD06D4BD3F8883023F440427B68DB69BB
:1038380069491343C1F888307B681B6803F48073B7
:10384800002B0AD0644BD3F8883023F440327B68CD
:103858001B6A61491343C1F888307B681B6803F40D
:103868000073002B0AD05C4BD3F8883023F4402235
:103878007B685B6A58491343C1F888307B681B68CA
:1038880003F48063002B15D0534BD3F8883023F40E
:1038980040127B689B6A50491343C1F888307B68A3
:1038A8009B6AB3F5801F05D14B4BDB684A4A43F44A
:1038B8008013D3607B681B6803F40063002B15D06A
:1038C800454BD3F8883023F440027B68DB6A4249D1
:1038D8001343C1F888307B68DB6AB3F5800F05D1E4
:1038E8003D4BDB683C4A43F48013D3607B681B681C
:1038F80003F48053002B15D0374BD3F8883023F0CE
:1039080040727B681B6B34491343C1F888307B686D
:103918001B6BB3F1807F05D12F4BDB682E4A43F434
:103928008013D3607B681B6803F40053002B15D009
:10393800294BD3F8883023F040627B685B6B2649BB
:103948001343C1F888307B685B6BB3F1006F05D116
:10395800214BDB68204A43F48013D3607B681B68E3
:1039680003F48043002B15D01B4BD3F8883023F089
:1039780040627B689B6B18491343C1F888307B68A9
:103988009B6BB3F1006F05D1134BDB68124A43F40C
:103998008013D3607B681B6803F40043002B15D0A9
:1039A8000D4BD3F8883023F040527B68DB6B0A4913
:1039B8001343C1F888307B68DB6BB3F1805F05D1B6
:1039C800054BDB68044A43F48033D360BB7C18465C
:1039D8001837BD4680BD00BF0010024080B582B0D8
:1039E80000AF78607B68002B01D1012342E07B683F
:1039F800D3F88830002B06D17B68002283F8842016
:103A08007868FCF7F1FE7B682422C3F888207B687D
:103A18001B681A687B681B6822F001021A607B68C1
:103A28009B6A002B02D0786800F082FB786800F06F
:103A3800B3F80346012B01D101231BE07B681B6807
:103A48005A687B681B6822F490425A607B681B683E
:103A58009A687B681B6822F02A029A607B681B6858
:103A68001A687B681B6842F001021A60786800F0E7
:103A780001FC034618460837BD4680BD80B58AB0AC
:103A880002AFF860B9603B601346FB80FB68D3F86F
:103A98008830202B7BD1BB68002B02D0FB88002B01
:103AA80001D1012374E0FB680022C3F89020FB6871
:103AB8002122C3F88820FCF7C3FF7861FB68FA88E5
:103AC800A3F85420FB68FA88A3F85620FB689B6883
:103AD800B3F5805F08D1FB681B69002B04D1002374
:103AE800FB61BB68BB6103E0BB68FB610023BB6192
:103AF80030E03B6800937B6900228021F86800F081
:103B080063FC0346002B05D0FB682022C3F88820FD
:103B180003233DE0FB69002B0BD1BB691B881A46C8
:103B2800FB681B68C2F308029A62BB690233BB6177
:103B380007E0FB691A78FB681B689A62FB69013326
:103B4800FB61FB68B3F856309BB2013B9AB2FB6845
:103B5800A3F85620FB68B3F856309BB2002BC8D1A7
:103B68003B6800937B6900224021F86800F02CFC38
:103B78000346002B05D0FB682022C3F888200323C6
:103B880006E0FB682022C3F88820002300E0022317
:103B980018462037BD4680BD2DE9B04F8CB000AF28
:103BA8007861002387F82A307B699A687B691B69EA
:103BB8001A437B695B691A437B69DB691343FB62C0
:103BC8007B691B681A68AB4B13407A691268F96AFB
:103BD8000B4313607B691B685B6823F440517B6966
:103BE800DA687B691B680A435A607B699B69FB62D8
:103BF8007B691B68A04A934204D07B691B6AFA6AF6
:103C08001343FB627B691B689B6823F06E4323F4B4
:103C180030637A691268F96A0B4393607B691B68A1
:103C2800DB6A23F00F017B695A6A7B691B680A43C8
:103C3800DA627B691B68914A934225D1904BD3F88D
:103C4800883003F00303032B1AD801A252F823F09B
:103C5800693C0008793C0008713C0008813C000878
:103C6800012387F82B30D6E0022387F82B30D2E0E7
:103C7800042387F82B30CEE0082387F82B30CAE0DE
:103C8800102387F82B30C6E07B691B687D4A934276
:103C980038D17B4BD3F8883003F00C030C2B2DD88C
:103CA80001A252F823F000BFE53C0008053D0008DA
:103CB800053D0008053D0008F53C0008053D0008E5
:103CC800053D0008053D0008ED3C0008053D0008DD
:103CD800053D0008053D0008FD3C0008002387F865
:103CE8002B3098E0022387F82B3094E0042387F8E0
:103CF8002B3090E0082387F82B308CE0102387F8CE
:103D08002B3088E07B691B685F4A934225D15C4B66
:103D1800D3F8883003F03003302B16D0302B18D866
:103D2800202B0AD0202B14D8002B02D0102B08D01F
:103D38000FE0002387F82B306DE0022387F82B3043
:103D480069E0042387F82B3065E0082387F82B30D7
:103D580061E0102387F82B305DE07B691B684B4AD4
:103D6800934225D1464BD3F8883003F0C003C02BCB
:103D780016D0C02B18D8802B0AD0802B14D8002B33
:103D880002D0402B08D00FE0002387F82B3042E008
:103D9800022387F82B303EE0042387F82B303AE0E3
:103DA800082387F82B3036E0102387F82B3032E0D1
:103DB8007B691B68304A93422AD1314BD3F888304B
:103DC80003F44063B3F5406F1AD0B3F5406F1BD8C6
:103DD800B3F5006F0CD0B3F5006F15D8002B03D0E6
:103DE800B3F5806F08D00FE0002387F82B3012E07E
:103DF800022387F82B300EE0042387F82B300AE0E3
:103E0800082387F82B3006E0102387F82B3002E0D0
:103E1800102387F82B307B691B68174A934240F0C0
:103E2800A88097F82B30082B34D801A252F823F039
:103E38005D3E00089D3E0008653E00089D3E000866
:103E48006B3E00089D3E00089D3E00089D3E000810
:103E5800733E0008FFF760FB786221E00C4B7B6241
:103E68001EE0FFF7EBFA78621AE04FF400437B623A
:103E780016E000BFF369FFCF008000400038014022
:103E8800001002400044004000480040004C004040
:103E98000024F40000237B62012387F82A3000BF46
:103EA8007B6A002B00F02A817B695B6A9E4A32F8A4
:103EB80013301A467B6AB3FBF2F3BB617B695A681D
:103EC80013465B001344BA699A4205D37B695B6861
:103ED8001B03BA699A4203D9012387F82A300DE1F6
:103EE8007B6A0022BB60FA607B695B6A8E4A32F8A3
:103EF80013309BB200223B607A60D7E90023D7E9F0
:103F08000201FCF785F902460B46104619464FF0A8
:103F180000024FF000030B0243EA106302027969C2
:103F28004968490800200C46054612EB040843EB93
:103F380005097B695B6800229A46934652465B46B0
:103F480040464946FCF764F902460B4613463B6275
:103F58003B6AB3F5407F08D33B6AB3F5801F04D2B0
:103F68007B691B683A6ADA60C8E0012387F82A305F
:103F7800C4E07B69DB69B3F5004F67D197F82B3054
:103F8800082B28D801A252F823F000BFB93F000837
:103F9800C13F0008C93F0008DF3F0008CF3F0008C5
:103FA800DF3F0008DF3F0008DF3F0008D73F000879
:103FB800FFF7B2FA786214E0FFF7C4FA786210E00B
:103FC8005A4B7B620DE0FFF739FA786209E04FF44B
:103FD80000437B6205E000237B62012387F82A30D7
:103FE80000BF7B6A002B00F089807B695B6A4E4AC0
:103FF80032F813301A467B6AB3FBF2F35A007B6936
:104008005B685B081A447B695B68B2FBF3F33B624D
:104018003B6A0F2B16D93B6AB3F5803F12D23B6A35
:104028009BB223F00F03FB833B6A5B089BB203F050
:1040380007039AB2FB8B1343FB837B691B68FA8BDC
:10404800DA605BE0012387F82A3057E097F82B30D5
:10405800082B28D801A252F823F000BF8940000895
:104068009140000899400008AF4000089F400008B0
:10407800AF400008AF400008AF400008A740000864
:10408800FFF74AFA786214E0FFF75CFA786210E00A
:10409800264B7B620DE0FFF7D1F9786209E04FF417
:1040A80000437B6205E000237B62012387F82A3006
:1040B80000BF7B6A002B21D07B695B6A1A4A32F801
:1040C80013301A467B6AB3FBF2F27B695B685B08C4
:1040D8001A447B695B68B2FBF3F33B623B6A0F2BC4
:1040E80009D93B6AB3F5803F05D23B6A9AB27B692E
:1040F8001B68DA6002E0012387F82A307B69012215
:10410800A3F86A207B690122A3F868207B69002252
:104118005A677B6900229A6797F82A301846303721
:10412800BD46BDE8B08F00BFF09100080024F40040
:1041380080B483B000AF78607B689B6A03F00803A3
:10414800002B0AD07B681B685B6823F400417B68FE
:104158009A6B7B681B680A435A607B689B6A03F00A
:104168000103002B0AD07B681B685B6823F40031CD
:104178007B68DA6A7B681B680A435A607B689B6ABB
:1041880003F00203002B0AD07B681B685B6823F4EA
:1041980080317B681A6B7B681B680A435A607B68AE
:1041A8009B6A03F00403002B0AD07B681B685B68DA
:1041B80023F480217B685A6B7B681B680A435A602A
:1041C8007B689B6A03F01003002B0AD07B681B688E
:1041D8009B6823F480517B68DA6B7B681B680A4311
:1041E8009A607B689B6A03F02003002B0AD07B68E7
:1041F8001B689B6823F400517B681A6C7B681B68FA
:104208000A439A607B689B6A03F04003002B1AD02C
:104218007B681B685B6823F480117B685A6C7B6839
:104228001B680A435A607B685B6CB3F5801F0AD130
:104238007B681B685B6823F4C0017B689A6C7B68A9
:104248001B680A435A607B689B6A03F08003002B53
:104258000AD07B681B685B6823F400217B68DA6CF2
:104268007B681B680A435A6000BF0C37BD465DF87F
:10427800047B704780B598B002AF78607B680022F5
:10428800C3F89020FCF7DCFB78657B681B681B682B
:1042980003F00803082B2FD16FF07E4300937B6D4A
:1042A80000224FF40011786800F08EF80346002BC6
:1042B80022D07B681B68BB63BB6B53E8003F7B6302
:1042C8007B6B23F080033B657B681B681A463B6D5C
:1042D8007B643A64396C7A6C41E80023FB63FB6BBE
:1042E800002BE6D17B682022C3F888207B68002257
:1042F80083F88420032363E07B681B681B6803F052
:104308000403042B49D16FF07E4300937B6D002298
:104318004FF48001786800F057F80346002B3CD032
:104328007B681B687B627B6A53E8003F3B623B6AA1
:1043380023F49073FB647B681B681A46FB6C3B6331
:10434800FA62F96A3A6B41E80023BB62BB6A002B48
:10435800E6D17B681B6808333B613B6953E8003F43
:10436800FB60FB6823F00103BB647B681B680833B0
:10437800BA6CFA61BB61B969FA6941E800237B61EB
:104388007B69002BE5D17B682022C3F88C207B68F1
:10439800002283F88420032312E07B682022C3F8DC
:1043A80088207B682022C3F88C207B680022DA668C
:1043B8007B6800221A677B68002283F88420002328
:1043C80018465837BD4680BD80B584B000AFF86048
:1043D800B9603B601346FB714FE0BB69B3F1FF3F27
:1043E8004BD0FCF72DFB02463B68D31ABA699A42B8
:1043F80002D3BB69002B01D103234EE0FB681B6885
:104408001B6803F00403002B37D0BB68802B34D023
:10441800BB68402B31D0FB681B68DB6903F00803DD
:10442800082B10D1FB681B6808221A62F86800F094
:1044380038F8FB680822C3F89020FB68002283F84C
:104448008420012329E0FB681B68DB6903F400630F
:10445800B3F5006F11D1FB681B684FF400621A6254
:10446800F86800F01EF8FB682022C3F89020FB686B
:10447800002283F8842003230FE0FB681B68DA69B5
:10448800BB681340BA689A420CBF01230023DBB211
:104498001A46FB799A42A0D0002318461037BD4629
:1044A80080BD80B495B000AF78607B681B687B6383
:1044B8007B6B53E8003F3B633B6B23F49073FB64D7
:1044C8007B681B681A46FB6C3B64FA63F96B3A6CB1
:1044D80041E80023BB63BB6B002BE6D17B681B68FC
:1044E80008333B623B6A53E8003FFB61FB6923F0FA
:1044F800805323F00103BB647B681B680833BA6CE4
:10450800FA62BB62B96AFA6A41E800237B627B6A95
:10451800002BE3D17B68DB6E012B18D17B681B680D
:10452800FB60FB6853E8003FBB60BB6823F01003E7
:104538007B647B681B681A467B6CBB617A6179690E
:10454800BA6941E800233B613B69002BE6D17B68EF
:104558002022C3F88C207B680022DA667B68002260
:104568005A6700BF5437BD465DF8047B704780B476
:1045780085B000AF78607B6893F88430012B01D157
:10458800022327E07B68012283F884207B682422A9
:10459800C3F888207B681B681B68FB607B681B6806
:1045A8001A687B681B6822F001021A60FB6823F016
:1045B8000053FB607B6800225A667B681B68FA68B8
:1045C8001A607B682022C3F888207B68002283F861
:1045D8008420002318461437BD465DF8047B7047D5
:1045E80080B584B000AF786039607B6893F8843018
:1045F800012B01D102232DE07B68012283F884205E
:104608007B682422C3F888207B681B681B68FB60D2
:104618007B681B681A687B681B6822F001021A60B5
:104628007B681B689B6823F060417B681B683A685D
:104638000A439A60786800F04FF87B681B68FA684C
:104648001A607B682022C3F888207B68002283F8E0
:104658008420002318461037BD4680BD80B584B03D
:1046680000AF786039607B6893F88430012B01D102
:1046780002232DE07B68012283F884207B682422B2
:10468800C3F888207B681B681B68FB607B681B6815
:104698001A687B681B6822F001021A607B681B6835
:1046A8009B6823F060617B681B683A680A439A60DC
:1046B800786800F011F87B681B68FA681A607B68F4
:1046C8002022C3F888207B68002283F884200023F6
:1046D80018461037BD4680BD80B485B000AF7860FD
:1046E8007B685B6E002B08D17B680122A3F86A20E7
:1046F8007B680122A3F8682031E00823FB730823B4
:10470800BB737B681B689B685B0EDBB203F0070317
:104718007B737B681B689B685B0FDBB203F0070346
:104728003B73BB7B3A7B11498A5C02FB03F33A7B00
:104738000F498A5C93FBF2F39AB27B68A3F86A206C
:10474800FB7B7A7B09498A5C02FB03F37A7B084985
:104758008A5C93FBF2F39AB27B68A3F8682000BFE7
:104768001437BD465DF8047B704700BF0892000807
:104778001092000880B485B000AF78607B68002292
:10478800A3F844204BF68073FB60FB689AB27B6801
:10479800A3F84020002318461437BD465DF8047B73
:1047A800704780B485B000AF78604BF68073FB60CB
:1047B8007B68B3F840309AB2FB689BB2DB439BB28C
:1047C80013409AB27B68A3F8402000231846143798
:1047D800BD465DF8047B704780B485B000AFF860D3
:1047E8003B1D83E80600FB680122A3F84020FB6814
:1047F8000022A3F84020FB680022A3F84420FB68AD
:104808000022A3F85020002318461437BD465DF84F
:10481800047B704780B49DB000AF78603960002396
:1048280087F86F307A683B681B789B0013441B88B5
:104838009BB223F4EC4323F07003A7F86C303B6879
:10484800DB78032B1FD801A252F823F06548000833
:10485800814800089748000873480008B7F86C308A
:1048680043F40073A7F86C3012E0B7F86C3043F4E7
:10487800C063A7F86C300BE0B7F86C3043F4806382
:10488800A7F86C3004E0012387F86F3000E000BF20
:104898007A683B681B789B001A44B7F86C3043F081
:1048A8007F4343F47F0343F4004343F080039BB208
:1048B80013807A683B681B789B0013441B889BB263
:1048C8001BB223F4E04323F070031AB23B681B7851
:1048D8001BB213431BB2A7F866307A683B681B7893
:1048E8009B001A44B7F8663043F07F4343F47F03D4
:1048F80043F4004343F080039BB213803B681B7B67
:10490800002B40F078813B685B78002B00F08480B6
:104918007B68BB617B68B3F850309BB21A46BB69B1
:104928001344BB613B681B78DA00BB69134403F589
:1049380080637B613B68DB885B089BB25B009AB253
:104948007B691A807A683B681B789B0013441B8834
:104958007B827B8A03F04003002B1BD07A683B687C
:104968001B789B0013441B889BB223F4E04323F07D
:1049780070033B827A683B681B789B001A443B8A29
:1049880043F07F4343F47F0343F4004343F0C00301
:104998009BB213803B68DB78012B20D07A683B6898
:1049A8001B789B0013441B889BB223F4E04323F03D
:1049B8004003BB81BB8983F02003BB817A683B68D5
:1049C8001B789B001A44BB8943F07F4343F47F0361
:1049D80043F4004343F080039BB21380D5E27A6826
:1049E8003B681B789B0013441B889BB223F4E0436D
:1049F80023F04003FB817A683B681B789B001A44CC
:104A0800FB8943F07F4343F47F0343F4004343F0BF
:104A180080039BB21380B8E27B683B637B68B3F882
:104A280050309BB21A463B6B13443B633B681B7880
:104A3800DA003B6B134403F20443FB623B68DB88F8
:104A48005B089BB25B009AB2FB6A1A807B68BB6208
:104A58007B68B3F850309BB21A46BB6A1344BB62FA
:104A68003B681B78DA00BB6A134403F206437B6297
:104A78007B6A1B889BB2C3F309039AB27B6A1A80CC
:104A88003B681B693E2B1DD93B681B695B09BB66EC
:104A98003B681B6903F01F03002B02D1BB6E013B6F
:104AA800BB667B6A1B889AB2BB6E9BB29B029BB2A9
:104AB80013439BB26FEA43436FEA53439AB27B6A4C
:104AC8001A8026E03B681B69002B0AD17B6A1B8889
:104AD8009BB26FEA43436FEA53439AB27B6A1A80E8
:104AE80017E03B681B695B08BB663B681B6903F002
:104AF8000103002B02D0BB6E0133BB667B6A1B88A7
:104B08009AB2BB6E9BB29B029BB213439AB27B6A6A
:104B18001A807A683B681B789B0013441B887B8447
:104B28007B8C03F48043002B1BD07A683B681B788E
:104B38009B0013441B889BB223F4E04323F07003CB
:104B48003B847A683B681B789B001A443B8C43F093
:104B58007F4343F47F0343F4404343F080039BB215
:104B680013803B681B78002B24D17A683B681B783C
:104B78009B0013441B889BB223F4804323F07003EB
:104B8800BB83BB8B83F48053BB83BB8B83F4005301
:104B9800BB837A683B681B789B001A44BB8B43F045
:104BA8007F4343F47F0343F4004343F080039BB205
:104BB8001380EAE17A683B681B789B0013441B88E2
:104BC8009BB223F4804323F07003FB83FB8B83F4B5
:104BD8000053FB837A683B681B789B001A44FB8B65
:104BE80043F07F4343F47F0343F4004343F08003DF
:104BF8009BB21380C9E13B68DB78022B1ED17A682F
:104C08003B681B789B0013441B889BB223F4E0434A
:104C180023F07003A7F862307A683B681B789B0022
:104C28001A44B7F8623043F07F4343F47F0343F4F8
:104C3800014343F080039BB213801DE07A683B6810
:104C48001B789B0013441B889BB223F4E24323F098
:104C58007003A7F864307A683B681B789B001A4495
:104C6800B7F8643043F07F4343F47F0343F40043D1
:104C780043F080039BB213807B68FB657B68B3F8C5
:104C880050309BB21A46FB6D1344FB653B681B789A
:104C9800DA00FB6D134403F58063BB653B681B8931
:104CA8005B089BB25B009AB2BB6D1A807B687B6520
:104CB8007B68B3F850309BB21A467B6D13447B6512
:104CC8003B681B78DA007B6D134403F204433B65B1
:104CD8003B685B895B089BB25B009AB23B6D1A80AC
:104CE8003B685B78002B40F093807A683B681B78C0
:104CF8009B0013441B88A7F84030B7F8403003F4F2
:104D08008043002B1BD07A683B681B789B001344B8
:104D18001B889BB223F4E04323F07003FB877A6877
:104D28003B681B789B001A44FB8F43F07F4343F496
:104D38007F0343F4404343F080039BB213807A68B7
:104D48003B681B789B0013441B88BB87BB8F03F011
:104D58004003002B1BD07A683B681B789B001344E8
:104D68001B889BB223F4E04323F070037B877A68A7
:104D78003B681B789B001A447B8F43F07F4343F4C6
:104D88007F0343F4004343F0C0039BB213807A6867
:104D98003B681B789B0013441B889BB223F4804319
:104DA80023F070033B873B8F83F480533B873B8F13
:104DB80083F400533B877A683B681B789B001A444E
:104DC8003B8F43F07F4343F47F0343F4004343F0B6
:104DD80080039BB213807A683B681B789B0013445E
:104DE8001B889BB223F4E04323F04003FB867A68D8
:104DF8003B681B789B001A44FB8E43F07F4343F4C7
:104E08007F0343F4004343F080039BB21380BCE06C
:104E18007A683B681B789B0013441B88A7F84E30C0
:104E2800B7F84E3003F48043002B1DD07A683B68F6
:104E38001B789B0013441B889BB223F4E04323F0A8
:104E48007003A7F84C307A683B681B789B001A44BB
:104E5800B7F84C3043F07F4343F47F0343F44043B7
:104E680043F080039BB213807A683B681B789B00F1
:104E780013441B88A7F84A30B7F84A3003F04003B8
:104E8800002B1DD07A683B681B789B0013441B8855
:104E98009BB223F4E04323F07003A7F848307A6804
:104EA8003B681B789B001A44B7F8483043F07F43AF
:104EB80043F47F0343F4004343F0C0039BB21380E1
:104EC8003B68DB78012B24D07A683B681B789B0011
:104ED80013441B889BB223F4E04323F04003A7F854
:104EE8004430B7F8443083F02003A7F844307A6898
:104EF8003B681B789B001A44B7F8443043F07F4363
:104F080043F47F0343F4004343F080039BB21380D0
:104F18001DE07A683B681B789B0013441B889BB292
:104F280023F4E04323F04003A7F846307A683B684F
:104F38001B789B001A44B7F8463043F07F4343F48C
:104F48007F0343F4004343F080039BB213807A68E5
:104F58003B681B789B0013441B889BB223F4804357
:104F680023F07003A7F842307A683B681B789B00EF
:104F78001A44B7F8423043F07F4343F47F0343F4C5
:104F8800004343F080039BB2138097F86F301846B4
:104F98007437BD465DF8047B704700BF80B48DB0A0
:104FA80000AF786039603B681B7B002B40F08E8037
:104FB8003B685B78002B44D07A683B681B789B0081
:104FC80013441B88BB81BB8903F04003002B1BD013
:104FD8007A683B681B789B0013441B889BB223F4B8
:104FE800E04323F070037B817A683B681B789B0061
:104FF8001A447B8943F07F4343F47F0343F400431F
:1050080043F0C0039BB213807A683B681B789B000F
:1050180013441B889BB223F4E04323F040033B81F5
:105028007A683B681B789B001A443B8943F07F43AE
:1050380043F47F0343F4004343F080039BB213809F
:1050480092E17A683B681B789B0013441B887B823B
:105058007B8A03F48043002B1BD07A683B681B785B
:105068009B0013441B889BB223F4E04323F0700396
:105078003B827A683B681B789B001A443B8A43F062
:105088007F4343F47F0343F4404343F080039BB2E0
:1050980013807A683B681B789B0013441B889BB27B
:1050A80023F4804323F07003FB817A683B681B7804
:1050B8009B001A44FB8943F07F4343F47F0343F486
:1050C800004343F080039BB213804DE13B685B785B
:1050D800002B40F0A5807A683B681B789B0013443E
:1050E8001B883B843B8C03F48043002B1BD07A68DD
:1050F8003B681B789B0013441B889BB223F4E04356
:1051080023F07003FB837A683B681B789B001A4482
:10511800FB8B43F07F4343F47F0343F4404343F066
:1051280080039BB213807A683B681B789B0013440A
:105138001B88BB83BB8B03F04003002B1BD07A6812
:105148003B681B789B0013441B889BB223F4E04305
:1051580023F070037B837A683B681B789B001A44B2
:105168007B8B43F07F4343F47F0343F4004343F0D6
:10517800C0039BB213807A683B681B789B0013447A
:105188001B889BB223F4E04323F070033B837A68C7
:105198003B681B789B001A443B8B43F07F4343F4E6
:1051A8007F0343F4004343F0C0039BB213807A6843
:1051B8003B681B789B0013441B889BB223F48043F5
:1051C80023F07003FB827A683B681B789B001A44C3
:1051D800FB8A43F07F4343F47F0343F4004343F0E7
:1051E80080039BB213807A683B681B789B0013444A
:1051F8001B889BB223F4E04323F04003BB827A6808
:105208003B681B789B001A44BB8A43F07F4343F4F6
:105218007F0343F4004343F080039BB21380A3E071
:105228007A683B681B789B0013441B88FB85FB8DC1
:1052380003F48043002B1BD07A683B681B789B00E3
:1052480013441B889BB223F4E04323F07003BB850F
:105258007A683B681B789B001A44BB8D43F07F43F8
:1052680043F47F0343F4404343F080039BB213802D
:105278007A683B681B789B0013441B887B857B8D71
:1052880003F04003002B1BD07A683B681B789B0017
:1052980013441B889BB223F4E04323F070033B853F
:1052A8007A683B681B789B001A443B8D43F07F4328
:1052B80043F47F0343F4004343F0C0039BB21380DD
:1052C8007A683B681B789B0013441B889BB223F4C5
:1052D800E04323F07003FB847A683B681B789B00EB
:1052E8001A44FB8C43F07F4343F47F0343F4404369
:1052F80043F080039BB213807A683B681B789B005D
:1053080013441B889BB223F4E04323F04003BB847F
:105318007A683B681B789B001A44BB8C43F07F4338
:1053280043F47F0343F4004343F080039BB21380AC
:105338007A683B681B789B0013441B889BB223F454
:10534800804323F070037B847A683B681B789B005A
:105358001A447B8C43F07F4343F47F0343F40043B8
:1053680043F080039BB21380002318463437BD46B0
:105378005DF8047B704780B5C2B000AF07F5847351
:10538800A3F58273186007F58473A3F58473196015
:1053980007F58473A3F584731B685B78012B40F0D1
:1053A800B78607F58473A3F584731B689A6907F5B4
:1053B8008473A3F584731B681B699A4208D907F59F
:1053C8008473A3F584731B681B69C7F8043107E06D
:1053D80007F58473A3F584731B689B69C7F80431C8
:1053E80007F58473A3F584731B681B7B002B3AD1E4
:1053F80007F58473A3F584731B68596907F58473EB
:10540800A3F584731B68DA88D7F804319BB207F5D3
:105418008470A0F58270006801F098FC07F5847329
:10542800A3F582731B683B6107F58473A3F5827348
:105438001B68B3F850309BB21A463B6913443B6172
:1054480007F58473A3F584731B681B78DA003B693E
:10545800134403F20243FB60D7F804319AB2FB68A5
:105468001A8000F01FBE07F58473A3F584731B68C8
:10547800DB78022B40F0628407F58473A3F584730C
:105488001B681A6A07F58473A3F584731B681B6984
:105498009A4240F2DF8307F58473A3F582731A6892
:1054A80007F58473A3F584731B681B789B0013446A
:1054B8001B889BB223F4E04323F07003A7F856300F
:1054C80007F58473A3F582731A6807F58473A3F547
:1054D80084731B681B789B001A44B7F8563043F056
:1054E8007F4343F47F0343F4014343F080039BB2BB
:1054F800138007F58473A3F584731B681A6AD7F8B9
:105508000431D21A07F58473A3F584731B681A62F1
:1055180007F58473A3F582731A6807F58473A3F5F6
:1055280084731B681B789B0013441B889BB203F091
:105538004003002B00F0C78107F58473A3F582733D
:105548001B683B6307F58473A3F584731B685B785A
:10555800002B77D107F58473A3F582731B68BB62B0
:1055680007F58473A3F582731B68B3F850309BB2B8
:105578001A46BB6A1344BB6207F58473A3F58473A8
:105588001B681B78DA00BB6A134403F206437B628C
:105598007B6A1B889BB2C3F309039AB27B6A1A80A1
:1055A800D7F804313E2B21D9D7F804315B09C7F865
:1055B8000031D7F8043103F01F03002B04D1D7F8CA
:1055C8000031013BC7F800317B6A1B889AB2D7F8D3
:1055D80000319BB29B029BB213439BB26FEA4343D9
:1055E8006FEA53439AB27B6A1A8050E0D7F80431C5
:1055F800002B0AD17B6A1B889BB26FEA43436FEA90
:1056080053439AB27B6A1A8041E0D7F804315B08A9
:10561800C7F80031D7F8043103F00103002B04D098
:10562800D7F800310133C7F800317B6A1B889AB27A
:10563800D7F800319BB29B029BB213439AB27B6AA4
:105648001A8024E007F58473A3F584731B685B78DC
:10565800012B1CD107F58473A3F582731B68B3F87B
:1056680050309BB21A463B6B13443B6307F5847377
:10567800A3F584731B681B78DA003B6B134403F2B1
:105688000643FB62D7F804319AB2FB6A1A8007F521
:105698008473A3F584731B685B89A7F8763007F5D4
:1056A8008473A3F584731B685969D7F804319BB2D6
:1056B800B7F8762007F58470A0F58270006801F0CD
:1056C80045FB07F58473A3F584731B685A69D7F8FB
:1056D80004311A4407F58473A3F584731B685A616F
:1056E80007F58473A3F584731B681A6A07F5847336
:1056F800A3F584731B681B699A420FD907F5847355
:10570800A3F584731B681A6AD7F80431D21A07F50F
:105718008473A3F584731B681A620EE007F584731B
:10572800A3F584731B681B6AC7F8043107F58473F3
:10573800A3F584731B6800221A6207F58473A3F526
:1057480084731B685B78002B77D107F58473A3F506
:1057580082731B68BB6107F58473A3F582731B68AA
:10576800B3F850309BB21A46BB691344BB6107F5C6
:105778008473A3F584731B681B78DA00BB69134430
:1057880003F202437B617B691B889BB2C3F3090365
:105798009AB27B691A80D7F804313E2B21D9D7F801
:1057A80004315B09C7F8FC30D7F8043103F01F0354
:1057B800002B04D1D7F8FC30013BC7F8FC307B69DB
:1057C8001B889AB2D7F8FC309BB29B029BB213435A
:1057D8009BB26FEA43436FEA53439AB27B691A80DC
:1057E80056E0D7F80431002B0AD17B691B889BB29D
:1057F8006FEA43436FEA53439AB27B691A8047E0E2
:10580800D7F804315B08C7F8FC30D7F8043103F047
:105818000103002B04D0D7F8FC300133C7F8FC3063
:105828007B691B889AB2D7F8FC309BB29B029BB26B
:1058380013439AB27B691A802AE007F58473A3F5AB
:1058480084731B685B78012B22D107F58473A3F559
:1058580082731B683B6207F58473A3F582731B6828
:10586800B3F850309BB21A463B6A13443B6207F5C3
:105878008473A3F584731B681B78DA003B6A1344AE
:1058880003F20243FB61D7F804319AB2FB691A802C
:1058980007F58473A3F584731B681B89A7F8763012
:1058A80007F58473A3F584731B685969D7F8043125
:1058B8009BB2B7F8762007F58470A0F5827000686F
:1058C80001F044FAEEE307F58473A3F584731B68CB
:1058D8005B78002B77D107F58473A3F582731B6877
:1058E800BB6407F58473A3F582731B68B3F8503063
:1058F8009BB21A46BB6C1344BB6407F58473A3F5CB
:1059080084731B681B78DA00BB6C134403F20243F0
:105918007B647B6C1B889BB2C3F309039AB27B6CD4
:105928001A80D7F804313E2B21D9D7F804315B0906
:10593800C7F8F830D7F8043103F01F03002B04D15F
:10594800D7F8F830013BC7F8F8307B6C1B889AB25F
:10595800D7F8F8309BB29B029BB213439BB26FEA15
:1059680043436FEA53439AB27B6C1A8056E0D7F8E8
:105978000431002B0AD17B6C1B889BB26FEA43432E
:105988006FEA53439AB27B6C1A8047E0D7F8043128
:105998005B08C7F8F830D7F8043103F00103002B8F
:1059A80004D0D7F8F8300133C7F8F8307B6C1B887F
:1059B8009AB2D7F8F8309BB29B029BB213439AB2C3
:1059C8007B6C1A802AE007F58473A3F584731B683F
:1059D8005B78012B22D107F58473A3F582731B68CA
:1059E8003B6507F58473A3F582731B68B3F85030E1
:1059F8009BB21A463B6D13443B6507F58473A3F5C8
:105A080084731B681B78DA003B6D134403F202436E
:105A1800FB64D7F804319AB2FB6C1A8007F58473DB
:105A2800A3F584731B681B89A7F8763007F5847380
:105A3800A3F584731B685969D7F804319BB2B7F88A
:105A4800762007F58470A0F58270006801F07EF971
:105A580007F58473A3F584731B685A69D7F8043172
:105A68001A4407F58473A3F584731B685A6107F514
:105A78008473A3F584731B681A6A07F58473A3F506
:105A880084731B681B699A420FD907F58473A3F5C1
:105A980084731B681A6AD7F80431D21A07F584731D
:105AA800A3F584731B681A620EE007F58473A3F5E7
:105AB80084731B681B6AC7F8043107F58473A3F560
:105AC80084731B6800221A6207F58473A3F5827336
