:020000040800F2
:1000000000800020A1070008150700081B07000852
:1000100021070008270700082D070008000000003E
:10002000000000000000000000000000330700088E
:1000300041070008000000004F0700085D070008A6
:10004000F1070008F1070008F1070008F1070008B0
:10005000F1070008F1070008F1070008F1070008A0
:10006000F1070008F1070008F1070008F107000890
:10007000F1070008F1070008F1070008F107000880
:10008000F107000800000000F1070008F107000870
:1000900069070008F1070008F1070008F1070008E8
:1000A000F1070008F1070008F1070008F107000850
:1000B000F1070008F1070008F1070008F107000840
:1000C000F1070008F1070008F1070008F107000830
:1000D000F1070008F1070008F1070008F107000820
:1000E000F1070008F1070008F1070008F107000810
:1000F000F1070008F1070008F10700080000000000
:1001000000000000F107000800000000F1070008EF
:10011000F107000800000000F1070008F1070008DF
:10012000F1070008F1070008F1070008F1070008CF
:10013000F10700080000000000000000F1070008BF
:10014000F1070008F10700080000000000000000AF
:10015000000000000000000000000000000000009F
:10016000000000000000000000000000F10700088F
:10017000F10700080000000000000000000000007F
:1001800000000000F107000800000000000000006F
:10019000000000000000000000000000000000005F
:1001A0000000000000000000F1070008F10700084F
:1001B000F1070008F1070008F1070008000000003F
:1001C00000000000F107000800000000000000002F
:0801D000F1070008F107000827
:1001D80010B5054C237833B9044B13B10448AFF379
:1001E80000800123237010BDC00100200000000022
:1001F8004481000808B5034B1BB103490348AFF31A
:10020800008008BD00000000C401002044810008EF
:1002180080B485B000AF78600023FB600CE0002359
:10022800BB6002E0BB680133BB60BB68B3F5876F96
:10023800F8D3FB680133FB60FA687B689A42EED317
:1002480000BF00BF1437BD465DF8047B704700004F
:1002580080B590B000AF00F0C3F807F13403002276
:100268001A60C3F80320022387F834300D2387F877
:100278003530012387F83630092387F83A3007F1FB
:100288003403184605F0EAFB00F0D2F807F01EFA2E
:1002980000237B6200237B6100237B7608233B7667
:1002A8000023BB765723FB7661233B776B237B7751
:1002B8006523BB775523FB77702387F8203000230D
:1002C8007B60002387F83E303B1D1946424800F00A
:1002D80061F97B68002B5CD07B687B613B7A7B761D
:1002E8007B7A3B76002387F83F3010E097F83F2071
:1002F80097F83F3040323A4412F8362C40333B44AA
:1003080003F8252C97F83F30013387F83F303B7EC0
:1003180097F83F209A42E9D307F1140319462F486A
:1003280005F0C8F82C4B30221A702B4B30225A702B
:10033800294B30229A70284B3022DA703220FFF78E
:1003480067FF0021254805F095F8034687F83E30F9
:1003580097F83E30002B08D1012000F0B9F80122AF
:100368000D21022005F03EFA13E0022000F0B0F85B
:1003780000220D21022005F035FA07F1240300229E
:100388001946164804F030FF07F12403184600F018
:10039800BDF83220FFF73CFF0021104805F06AF84D
:1003A800034687F83E3097F83E30002B8CD0022069
:1003B80000F08EF800220D21022005F013FA07F153
:1003C800240300221946054804F00EFF07F1240310
:1003D800184600F09BF877E73400002000640040DE
:1003E80080B500AF05F068FB104BD3F888300F4A92
:1003F80043F00073C2F888301A21012005F024FC6C
:100408000021012005F0BCFB0121012005F0B8FB0B
:100418000221012005F0B4FB1921032005F0B0FBEF
:100428001721032005F0ACFB00BF80BD001002407F
:1004380080B58AB000AF07F1200300221A60C3F824
:100448000320012387F82030092387F8213002236D
:1004580087F82230092387F8263007F1180300228D
:100468001A60C3F8032001233B7608237B76022316
:10047800BB760923BB770123BB7500237B7500235B
:100488003B7501237B710123BB710D23FB71002395
:100498003B720D4BFB6000233B6102233B7107F16C
:1004A8002003184605F0DAFA07F11803184605F094
:1004B800D5FA07F114023B1D1946044804F004FD5F
:1004C80000BF2837BD4680BD000000200064004002
:1004D80080B584B000AF0346FB710B4A07F10803EF
:1004E80092E80300186004331970FB793033DBB2EB
:1004F800FB7207F108030521184607F0A5F900BFAC
:100508001037BD4680BD00BF5C81000880B586B04D
:1005180000AF78607B681B6807F10802114618462F
:1005280000F080F87B685B793033DBB2FB727B6864
:100538001B793033DBB23B730023FB750023FB755B
:1005480019E07B681B79FA7D9A420AD2FA7DFB7D15
:10055800053379680A44D27918333B4403F8102CE0
:1005680006E0FB7D053318333B44302203F8102C9A
:10057800FB7D0133FB75FB7D072BE2D90A237B75D5
:1005880007F108030E21184607F05EF900BF183777
:10059800BD4680BD80B586B000AF786039600E2357
:1005A8003B6107F110031946786807F039F97B6851
:1005B8001B783B737B685B787B737B689B78BB732A
:1005C80007F10C03184600F05BF802463B681A6016
:1005D8007B6803331B78303BDAB23B681A717B685F
:1005E80004331B78303BDAB23B685A710023FB7541
:1005F8000DE0FB7D05331A467B681A44FB7D1178B4
:100608003A6813440A469A71FB7D0133FB753B68CF
:100618005B79FA7D9A42ECD300BF00BF1837BD461C
:1006280080BD000090B486B000AF78603960134B8D
:1006380007F108040FCB84E80F007B6803F00F0272
:100648003B68023318323A4412F8102C1A707B684F
:10065800DBB21A093B68013318323A4412F8102CFD
:100668001A707B681B0A18333B4413F8102C3B683C
:100678001A7000BF1837BD4690BC704764810008E7
:1006880080B485B000AF78600023FB600023FB7264
:100698002DE0FB7A7A6813441B782F2B0FD9FB7A4D
:1006A8007A6813441B78392B09D8FB681B01FA7A3E
:1006B80079680A4412781344303BFB6014E0FB7AF3
:1006C8007A6813441B78402B0ED9FB7A7A68134456
:1006D8001B78462B08D8FB681B01FA7A79680A440C
:1006E80012781344373BFB60FB7A0133FB72FB7AC9
:1006F800022BCED9FB6818461437BD465DF8047B3B
:10070800704780B400AF72B600BFFEE780B400AF98
:10071800FEE780B400AFFEE780B400AFFEE780B428
:1007280000AFFEE780B400AFFEE780B400AF00BFC3
:10073800BD465DF8047B704780B400AF00BFBD467E
:100748005DF8047B704780B400AF00BFBD465DF81C
:10075800047B704780B500AF00F048F800BF80BD4B
:1007680080B500AF024800F000FA00BF80BD00BFAE
:10077800840E002080B400AF064BD3F88830054AB9
:1007880043F47003C2F8883000BFBD465DF8047BAF
:10079800704700BF00ED00E00D488546FFF7EAFF0F
:1007A8000C480D490D4A002302E0D458C4500433C4
:1007B800C4188C42F9D30A4A0A4C002301E013609A
:1007C8000432A242FBD307F08DFCFFF741FDFEE7A0
:1007D8000080002000000020C0010020C481000823
:1007E800C001002080130020FEE7000080B400AFA5
:1007F800054B1A68054B1B681344034A136000BF76
:10080800BD465DF8047B7047DC01002044000020F1
:1008180080B400AF034B1B681846BD465DF8047BE7
:10082800704700BFDC01002080B400AF044BDB68D8
:100838001B0A03F007031846BD465DF8047B7047A2
:1008480000ED00E080B483B000AF0346FB7197F978
:100858000730002B0BDBFB7903F01F02074997F9E0
:1008680007305B09012000FA02F241F8232000BF9B
:100878000C37BD465DF8047B704700BF00E100E01F
:1008880080B483B000AF03463960FB7197F9073035
:10089800002B0ADB3B68DAB20C4997F907301201E2
:1008A800D2B20B4483F800230AE03B68DAB2084965
:1008B800FB7903F00F03043B1201D2B20B441A7602
:1008C80000BF0C37BD465DF8047B704700E100E0CF
:1008D80000ED00E080B489B000AFF860B9607A60DC
:1008E800FB6803F00703FB61FB69C3F10703042BF3
:1008F80028BF0423BB61FB690433062B02D9FB69BB
:10090800033B00E000237B614FF0FF32BB6902FA32
:1009180003F3DA43BB681A407B699A404FF0FF3112
:100928007B6901FA03F3D9437B680B4013431846EC
:100938002437BD465DF8047B704780B586B000AFAC
:100948000346B9607A60FB73FFF76EFF78617A68D7
:10095800B9687869FFF7BEFF024697F90F3011466C
:100968001846FFF78DFF00BF1837BD4680BD80B51C
:1009780082B000AF0346FB7197F907301846FFF7BE
:1009880061FF00BF0837BD4680BD80B584B000AFA9
:1009980078607B68002B01D10123C0E07B6893F865
:1009A8009132DBB2002B06D17B68002283F89022BB
:1009B800786807F091F87B68032283F891227B68B6
:1009C8001B68184601F01DFF0023FB733EE0FA7B0D
:1009D800796813469B001344DB000B441133012252
:1009E8001A70FA7B796813469B001344DB000B44AA
:1009F8001033FA7B1A70FA7B796813469B0013440C
:100A0800DB000B44133300221A70FA7B7968134613
:100A18009B001344DB000B44203300221A60FA7B4E
:100A2800796813469B001344DB000B4424330022EF
:100A38001A60FB7B79685A1C13469B001344DB0041
:100A48000B4400221A60FB7B0133FB737B681B7924
:100A5800FA7B9A42BBD30023FB7344E0FA7B7968A4
:100A680013469B001344DB000B4403F2511300228E
:100A78001A70FA7B796813469B001344DB000B4419
:100A880003F5A873FA7B1A70FA7B796813469B0002
:100A98001344DB000B4403F2531300221A70FA7B51
:100AA800796813469B001344DB000B4403F5B073CD
:100AB80000221A60FA7B796813469B001344DB0016
:100AC8000B4403F5B27300221A60FA7B7968134667
:100AD8009B001344DB000B4403F5B47300221A6037
:100AE800FB7B0133FB737B681B79FA7B9A42B5D396
:100AF8007B6818687B68043393E8060001F09CFE65
:100B08007B6800221A737B68012283F891227B6834
:100B18009B7A012B02D1786801F041FC002318462A
:100B28001037BD4680BD80B582B000AF78607B6865
:100B380093F89032012B01D1022312E07B68012245
:100B480083F890227B681B68184601F043FE7B6897
:100B58001B68184604F003F97B68002283F890228A
:100B6800002318460837BD4680BD80B584B000AF65
:100B780078607B681B68184604F008F9F860FB6821
:100B880003F40043002B03D0786800F004FB10E165
:100B9800FB6803F48063002B13D07B681B68B3F8F1
:100BA80044309AB27B681B6822F4806292B2A3F840
:100BB8004420786807F021F80021786800F0FCF8F4
:100BC800F7E0FB6803F48043002B0CD07B681B68BC
:100BD800B3F844309AB27B681B6822F4804292B220
:100BE800A3F84420E5E0FB6803F40053002B0CD085
:100BF8007B681B68B3F844309AB27B681B6822F4A0
:100C0800005292B2A3F84420D3E0FB6803F4805367
:100C1800002B34D07B681B68B3F840309AB27B68ED
:100C28001B6822F0040292B2A3F840207B681B687C
:100C3800B3F840309AB27B681B6822F0080292B27F
:100C4800A3F840207B6893F8C832012B07D17B6852
:100C5800002283F8C8220021786807F0C1F9786873
:100C680007F004F87B681B68B3F844309AB27B68D5
:100C78001B6822F4805292B2A3F8442099E0FB68E2
:100C880003F40063002B27D07B681B68B3F840305F
:100C98009AB27B681B6842F0080292B2A3F840201F
:100CA8007B681B68B3F844309AB27B681B6822F4EF
:100CB800006292B2A3F844207B681B68B3F8403006
:100CC8009AB27B681B6842F0040292B2A3F84020F3
:100CD800786806F0B1FF6CE0FB6803F08003002B36
:100CE80040D07B681B68B3F844309AB27B681B68B5
:100CF80022F0800292B2A3F844207B6893F8C832AD
:100D0800002B2BD17B681B68B3F840309AB27B6804
:100D18001B6842F0040292B2A3F840207B681B686B
:100D2800B3F840309AB27B681B6842F0080292B26E
:100D3800A3F840207B68012283F8C8227B681B68DF
:100D4800B3F854309BB29B0803F03C027B68C3F8AD
:100D5800CC220121786807F043F92AE0786806F088
:100D68006BFF26E0FB6803F40073002B0FD07B6851
:100D78001B68B3F844309AB27B681B6822F400728F
:100D880092B2A3F84420786806F029FF11E0FB68C6
:100D980003F48073002B0CD07B681B68B3F84430D5
:100DA8009AB27B681B6822F4807292B2A3F844203E
:100DB80000BF1037BD4680BD80B582B000AF7860F7
:100DC8000B46FB707B6893F89032012B01D102230C
:100DD80012E07B68012283F890227B68FA781A7304
:100DE8007B681B68FA781146184603F0A4FF7B68F5
:100DF800002283F89022002318460837BD4680BD9C
:100E080080B584B000AF7860084611461A4603469C
:100E1800FB700B463B801346BB700023FB7297F9AF
:100E28000330002B0EDAFB7803F0070213469B0011
:100E38001344DB0010337A681344FB60FB6801221B
:100E48005A700EE0FB7803F0070213469B00134428
:100E5800DB0003F5A8737A681344FB60FB68002283
:100E68005A70FB7803F00703DAB2FB681A703A8805
:100E7800FB681A61FB68BA78DA70BB78022B02D17A
:100E8800FB6800221A717B6893F89032012B01D11C
:100E980002230EE07B68012283F890227B681B689E
:100EA800F968184601F0E6FC7B68002283F8902276
:100EB800FB7A18461037BD4680BD80B584B000AFB8
:100EC80078600B46FB7097F90330002B0EDAFB783D
:100ED80003F0070213469B001344DB0010337A68C3
:100EE8001344FB60FB6801225A700EE0FB7803F0A4
:100EF800070213469B001344DB0003F5A8737A68C6
:100F08001344FB60FB6800225A70FB7803F0070368
:100F1800DAB2FB681A707B6893F89032012B01D122
:100F280002230EE07B68012283F890227B681B680D
:100F3800F968184602F062F87B68002283F890226C
:100F4800002318461037BD4680BD80B586B000AF77
:100F5800F8607A603B600B46FB72FB7A03F007028D
:100F680013469B001344DB0003F5A873FA68134487
:100F78007B617B697A685A617B693A689A617B69A7
:100F88000022DA617B6900225A70FB7A03F00703BA
:100F9800DAB27B691A70FB681B687969184602F037
:100FA8001AFA002318461837BD4680BD80B483B0AE
:100FB80000AF78600B46FB70FB7803F00702796896
:100FC80013469B001344DB000B4403F5B6731B6800
:100FD80018460C37BD465DF8047B704780B586B06F
:100FE80000AFF8607A603B600B46FB72FB7A03F057
:100FF800070213469B001344DB001033FA681344BE
:101008007B617B697A685A617B693A689A617B6916
:10101800012283F824207B693A681A627B690022DE
:10102800DA617B6901225A70FB7A03F00703DAB2AE
:101038007B691A70FB681B687969184602F0CBF95E
:10104800002318461837BD4680BD80B584B000AF70
:1010580078600B46FB70FB7803F007037A68127917
:10106800934201D901233EE097F90330002B0EDAB1
:10107800FB7803F0070213469B001344DB00103390
:101088007A681344FB60FB6801225A700CE0FA7816
:1010980013469B001344DB0003F5A8737A681344D6
:1010A800FB60FB6800225A70FB6801229A70FB788B
:1010B80003F00703DAB2FB681A707B6893F8903282
:1010C800012B01D102230EE07B68012283F89022D4
:1010D8007B681B68F968184603F02EFD7B680022C0
:1010E80083F89022002318461037BD4680BD80B58E
:1010F80084B000AF78600B46FB70FB7803F00F03F9
:101108007A681279934201D9012340E097F90330B4
:10111800002B0EDAFB7803F0070213469B001344FA
:10112800DB0010337A681344FB60FB6801225A70B5
:101138000EE0FB7803F0070213469B001344DB0024
:1011480003F5A8737A681344FB60FB6800225A70A1
:10115800FB6800229A70FB7803F00703DAB2FB6899
:101168001A707B6893F89032012B01D102230EE0AC
:101178007B68012283F890227B681B68F96818460F
:1011880003F02BFD7B68002283F890220023184689
:101198001037BD4680BD80B596B000AF7860AEE32D
:1011A8007B681B68B3F84430A7F84E30B7F84E3068
:1011B800DBB203F00F0387F84D3097F84D30002B62
:1011C80040F07081B7F84E3003F01003002B4DD17A
:1011D8007B681B681B889BB223F4E14323F07003F0
:1011E800FB817B681A68FB896FEA43436FEA5343C4
:1011F8009BB213807B6810337B657B681B68B3F8F0
:1012080050309BB21A467B6D1B78DB0013447A681A
:101218001268134403F202431B88C3F309027B6D6F
:10122800DA617B6D5A697B6DDB691A447B6D5A61A3
:101238000021786806F0B9FC7B681B7BDBB2002BC9
:1012480000F05D837B6D9B69002B40F058837B68C1
:101258001B7BDBB263F07F03DAB27B681B6892B258
:10126800A3F84C207B6800221A7348E37B6803F5D7
:10127800A8737B657B681B681B88A7F84A30B7F89A
:101288004A3003F40063002B32D07B681B68B3F844
:1012980050309BB21A467B6D1B78DB0013447A688A
:1012A8001268134403F206431B88C3F309027B6DDB
:1012B800DA617B6818687B6803F526717B6DDA88CC
:1012C8007B6DDB699BB203F0B3FD7B681B681B88F1
:1012D8009AB240F68F7313403B827B681B683A8A48
:1012E80042F0800292B21A80786806F031FC06E378
:1012F800B7F94A30002B80F202837B681B681B8891
:101308009AB240F68F731340FB837B681B68FA8B95
:1013180042F0800292B21A807B681B68B3F85030A2
:101328009BB21A467B6D1B78DB0013447A681268FF
:10133800134403F206431B88C3F309027B6DDA6189
:101348007B6DDB69002B19D07B6D5B69002B15D099
:101358007B6818687B6D59697B6DDA887B6DDB6902
:101368009BB203F065FD7B6D5A697B6DDB691A449E
:101378007B6D5A610021786806F0FCFB7B681B686E
:101388001B88A7F84A30B7F84A3003F40063002BEB
:1013980040F0B582B7F84A3003F44053B3F5405FE4
:1013A80000F0AD827B681B68BB617B681B68B3F883
:1013B80050309BB21A46BB691344BB61BB6903F248
:1013C80006437B617B691B889BB2C3F309039AB20E
:1013D8007B691A807B6D1B693E2B1DD97B6D1B6950
:1013E8005B097B647B6D1B6903F01F03002B02D133
:1013F8007B6C013B7B647B691B889AB27B6C9BB2DC
:101408009B029BB213439BB26FEA43436FEA534379
:101418009AB27B691A8026E07B6D1B69002B0AD182
:101428007B691B889BB26FEA43436FEA53439AB2C6
:101438007B691A8017E07B6D1B695B087B647B6D99
:101448001B6903F00103002B02D07B6C01337B6422
:101458007B691B889AB27B6C9BB29B029BB213433D
:101468009AB27B691A807B681B681B889BB223F43D
:10147800804323F070037B827B8A83F480537B82D2
:101488007B8A83F400537B827B681A687B8A43F0EB
:101498007F4343F47F0343F4004343F080039BB24C
:1014A80013802CE27B681B681A4697F84D309B0026
:1014B80013441B88A7F84A30B7F94A30002B80F24A
:1014C800F6807B681B681A4697F84D309B001344DA
:1014D8001B889AB240F68F731340A7F848307B6890
:1014E8001B681A4697F84D309B001344B7F84820FC
:1014F80042F0800292B21A8097F84D2013469B0062
:101508001344DB0003F5A8737A6813447B657B6D8D
:101518001B7B002B23D17B681B68B3F850309BB230
:101528001A467B6D1B78DB0013447A6812681344F3
:1015380003F206431B88C3F30903A7F85030B7F832
:101548005030002B00F08E807B6818687B6D5969DD
:101558007B6DDA88B7F8503003F06AFC82E07B6D67
:10156800DB78022B0AD1B7F84A301A46796D7868C9
:1015780000F0D3F90346A7F8503073E07B681B6886
:101588001A467B6D1B789B0013441B889BB223F47F
:10159800E04323F07003A7F852307B681B681A46B3
:1015A8007B6D1B789B001A44B7F8523043F07F4399
:1015B80043F47F0343F4004343F0C0039BB213801A
:1015C8007B681B681A467B6D1B789B0013441B883D
:1015D8009BB203F48043002B22D07B681B68B3F8CE
:1015E80050309BB21A467B6D1B78DB0013447A6837
:1015F8001268134403F202431B88C3F30903A7F8D4
:101608005030B7F85030002B2CD07B6818687B6DB1
:1016180059697B6D1A89B7F8503003F009FC21E04D
:101628007B681B68B3F850309BB21A467B6D1B78F9
:10163800DB0013447A681268134403F206431B88DC
:10164800C3F30903A7F85030B7F85030002B09D07E
:101658007B6818687B6D59697B6D5A89B7F850307B
:1016680003F0E6FB7B6DDA69B7F850301A447B6DFE
:10167800DA617B6D5A69B7F850301A447B6D5A614C
:101688007B6D9B69002B05D0B7F850207B6D1B69DB
:101698009A4206D27B6D1B781946786806F06AFA7A
:1016A80005E07B681B68796D184601F094FEB7F871
:1016B8004A3003F08003002B00F0218197F84D2079
:1016C80013469B001344DB0010337A6813447B6590
:1016D8007B681B681A4697F84D309B0013441B889B
:1016E8009BB223F4E14323F07003A7F842307B68F0
:1016F8001B681A4697F84D309B001A44B7F84230D9
:101708006FEA43436FEA53439BB213807B6DDB78E8
:10171800012B40F0A2807B6D00229A617B6D1B7BC0
:10172800002B00F09380B7F84A3003F04003002BF9
:1017380046D07B6D5B78002B26D17B681B687B626B
:101748007B681B68B3F850309BB21A467B6A134417
:101758007B627B6D1B78DA007B6A134403F20243D9
:101768003B623B6A1B889BB2C3F309039AB23B6A8C
:101778001A803B6A1B889BB26FEA43436FEA534364
:101788009AB23B6A1A8061E07B6D5B78012B5DD170
:101798007B681B68FB627B681B68B3F850309BB2A0
:1017A8001A46FB6A1344FB627B6D1B78DA00FB6AFE
:1017B800134403F20243BB62BB6A00221A8045E06D
:1017C8007B681B68FB637B6D5B78002B26D17B688D
:1017D8001B687B637B681B68B3F850309BB21A4662
:1017E8007B6B13447B637B6D1B78DA007B6B134444
:1017F80003F206433B633B6B1B889BB2C3F30903AD
:101808009AB23B6B1A803B6B1B889BB26FEA4343CF
:101818006FEA53439AB23B6B1A8017E07B6D5B7893
:10182800012B13D17B681B68B3F850309BB21A4662
:10183800FB6B1344FB637B6D1B78DA00FB6B134473
:1018480003F20643BB63BB6B00221A807B6D1B78D7
:101858001946786806F0A9F951E0B7F84A3003F458
:101868008073002B44D17B681B68B3F850309BB25F
:101878001A467B6D1B78DB0013447A6812681344A0
:1018880003F202431B88C3F30903A7F840307B6DBA
:101898009A69B7F840309A4207D97B6D9A69B7F8C8
:1018A8004030D21A7B6D9A6102E07B6D00229A610A
:1018B8007B6D9B69002B06D17B6D1B781946786878
:1018C80006F073F91BE07B6D5A69B7F840301A448B
:1018D8007B6D5A617B6DDA69B7F840301A447B6DCD
:1018E800DA617B681B68796D184601F074FD06E0C3
:1018F800B7F84A301A46796D786800F017F97B68AE
:101908001B68B3F844309BB21BB2002BFFF648ACFF
:10191800002318465837BD4680BD80B588B000AF53
:10192800F860B9601346FB80FB8803F48043002B02
:101938007CD0FB681B68B3F850309BB21A46BB6872
:101948001B78DB001344FA681268134403F202435D
:101958001B88C3F309037B83BB689A697B8B9A4214
:1019680006D3BB689A697B8BD21ABB689A6102E07E
:10197800BB6800229A61BB689B69002B23D1FB6876
:101988001B681A46BB681B789B0013441B889BB2D4
:1019980023F4804323F070033B833B8B83F4005391
:1019A8003B83FB681B681A46BB681B789B001A447C
:1019B8003B8B43F07F4343F47F0343F4004343F0FE
:1019C80080039BB21380FB8803F04003002B1FD0D9
:1019D800FB681B681A46BB681B789B0013441B886E
:1019E8009BB223F4E04323F07003FB82FB681B687F
:1019F8001A46BB681B789B001A44FB8A43F07F4356
:101A080043F47F0343F4004343F0C0039BB21380C5
:101A18007B8B002B00F08580FB681868BB685969D0
:101A2800BB681A897B8B03F003FA7AE0FB681B68B2
:101A3800B3F850309BB21A46BB681B78DB001344DE
:101A4800FA681268134403F206431B88C3F30903B8
:101A58007B83BB689A697B8B9A4206D3BB689A6979
:101A68007B8BD21ABB689A6102E0BB6800229A613C
:101A7800BB689B69002B23D1FB681B681A46BB68AF
:101A88001B789B0013441B889BB223F4804323F0EC
:101A98007003FB83FB8B83F40053FB83FB681B6899
:101AA8001A46BB681B789B001A44FB8B43F07F43A4
:101AB80043F47F0343F4004343F080039BB2138055
:101AC800FB8803F04003002B1FD1FB681B681A46F4
:101AD800BB681B789B0013441B889BB223F4E0432C
:101AE80023F07003BB83FB681B681A46BB681B782E
:101AF8009B001A44BB8B43F07F4343F47F0343F4BA
:101B0800004343F0C0039BB213807B8B002B08D0AB
:101B1800FB681868BB685969BB685A897B8B03F0F6
:101B280087F97B8B18462037BD4680BD80B5A4B0A9
:101B380000AFF860B9601346FB80FB8803F04003F0
:101B4800002B00F0DB81FB681B68B3F850309BB2B8
:101B58001A46BB681B78DB001344FA681268134402
:101B680003F202431B88C3F30903A7F88630BB6856
:101B78009A69B7F886309A4207D9BB689A69B7F864
:101B88008630D21ABB689A6102E0BB6800229A616B
:101B9800BB689B69002B40F0B980BB685B78002B61
:101BA80026D1FB681B68FB62FB681B68B3F85030E2
:101BB8009BB21A46FB6A1344FB62BB681B78DA00C7
:101BC800FB6A134403F20243BB62BB6A1B889BB2E5
:101BD800C3F309039AB2BB6A1A80BB6A1B889BB21B
:101BE8006FEA43436FEA53439AB2BB6A1A801AE01A
:101BF800BB685B78012B16D1FB681B687B63FB68AD
:101C08001B68B3F850309BB21A467B6B13447B6356
:101C1800BB681B78DA007B6B134403F202433B6317
:101C28003B6B00221A80FB681B687B62BB685B7891
:101C3800002B26D1FB681B68FB61FB681B68B3F8A7
:101C480050309BB21A46FB691344FB61BB681B7892
:101C5800DA00FB69134403F20643BB61BB691B88C6
:101C68009BB2C3F309039AB2BB691A80BB691B888C
:101C78009BB26FEA43436FEA53439AB2BB691A8037
:101C880017E0BB685B78012B13D1FB681B68B3F8BE
:101C980050309BB21A467B6A13447B62BB681B7840
:101CA800DA007B6A134403F206433B623B6A002274
:101CB8001A80BB681B781946F86805F076FFFB8820
:101CC80003F48043002B00F0FA82FB681B681A4675
:101CD800BB681B789B0013441B889BB223F4E0432A
:101CE80023F07003FB82FB681B681A46BB681B78ED
:101CF8009B001A44FB8A43F07F4343F47F0343F479
:101D0800404343F080039BB21380D8E2FB8803F47E
:101D18008043002B21D0FB681B681A46BB681B78E0
:101D28009B0013441B889BB223F4E04323F0700309
:101D3800A7F88A30FB681B681A46BB681B789B00AB
:101D48001A44B7F88A3043F07F4343F47F0343F4DF
:101D5800404343F080039BB21380BB6893F8243060
:101D6800012B40F0AC82BB685A69B7F886301A4438
:101D7800BB685A61BB68DA69B7F886301A44BB6831
:101D8800DA61BB681A6ABB681B699A420BD3BB68E5
:101D98001B69C7F88C30BB681A6AD7F88C30D21A1E
:101DA800BB681A6217E0BB681B6A002B08D1B7F83A
:101DB8008630C7F88C30BB68002283F824200AE0FC
:101DC800BB68002283F82420BB681B6AC7F88C30E4
:101DD800BB6800221A62BB685B78002B65D1FB6880
:101DE8001B68FB63FB681B68B3F850309BB21A464C
:101DF800FB6B1344FB63BB681B78DA00FB6B134473
:101E080003F20243BB63BB6B1B889BB2C3F309039A
:101E18009AB2BB6B1A80D7F88C303E2B1DD9D7F8F5
:101E28008C305B09BB64D7F88C3003F01F03002BA0
:101E380002D1BB6C013BBB64BB6B1B889AB2BB6C09
:101E48009BB29B029BB213439BB26FEA43436FEA78
:101E580053439AB2BB6B1A8044E0D7F88C30002BFE
:101E68000AD1BB6B1B889BB26FEA43436FEA5343AB
:101E78009AB2BB6B1A8035E0D7F88C305B08BB642C
:101E8800D7F88C3003F00103002B02D0BB6C013370
:101E9800BB64BB6B1B889AB2BB6C9BB29B029BB2A8
:101EA80013439AB2BB6B1A801CE0BB685B78012BAA
:101EB80018D1FB681B687B64FB681B68B3F850305B
:101EC8009BB21A467B6C13447B64BB681B78DA00B0
:101ED8007B6C134403F202433B64D7F88C309AB20C
:101EE8003B6C1A80FB681868BB685969BB681A891B
:101EF800D7F88C309BB202F059FFE0E1FB681B6811
:101F0800B3F850309BB21A46BB681B78DB00134409
:101F1800FA681268134403F206431B88C3F30903E3
:101F2800A7F88630BB689A69B7F886309A4207D313
:101F3800BB689A69B7F88630D21ABB689A6102E022
:101F4800BB6800229A61BB689B69002B40F0C08087
:101F5800BB685B78002B26D1FB681B68FB67FB68B6
:101F68001B68B3F850309BB21A46FB6F1344FB67EB
:101F7800BB681B78DA00FB6F134403F20243BB67AC
:101F8800BB6F1B889BB2C3F309039AB2BB6F1A805D
:101F9800BB6F1B889BB26FEA43436FEA53439AB205
:101FA800BB6F1A801AE0BB685B78012B16D1FB68FF
:101FB8001B687B66FB681B68B3F850309BB21A46F7
:101FC8007B6E13447B66BB681B78DA007B6E134418
:101FD80003F202433B663B6E00221A80FB681B68D3
:101FE8007B67BB685B78002B2BD1FB681B68FB66A3
:101FF800FB681B68B3F850309BB21A46FB6E13445B
:10200800FB66BB681B78DA00FB6E134403F20643D9
:10201800C7F88030D7F880301B889BB2C3F3090318
:102028009AB2D7F880301A80D7F880301B889BB2D4
:102038006FEA43436FEA53439AB2D7F880301A8065
:1020480017E0BB685B78012B13D1FB681B68B3F8FA
:1020580050309BB21A467B6F13447B67BB681B7872
:10206800DA007B6F134403F206433B673B6F0022A1
:102078001A80BB681B781946F86805F096FDFB883E
:1020880003F48043002B40F01A81FB681B681A4652
:10209800BB681B789B0013441B889BB223F4E04366
:1020A80023F07003A7F88830FB681B681A46BB68E2
:1020B8001B789B001A44B7F8883043F07F4343F4F9
:1020C8007F0343F4404343F080039BB21380F6E060
:1020D800FB8803F48043002B21D1FB681B681A4658
:1020E800BB681B789B0013441B889BB223F4E04316
:1020F80023F07003A7F84E30FB681B681A46BB68CC
:102108001B789B001A44B7F84E3043F07F4343F4E2
:102118007F0343F4404343F080039BB21380BB68C2
:1021280093F82430012B40F0CA80BB685A69B7F88D
:1021380086301A44BB685A61BB68DA69B7F88630DA
:102148001A44BB68DA61BB681A6ABB681B699A42A1
:102158000BD3BB681B69C7F88C30BB681A6AD7F801
:102168008C30D21ABB681A6217E0BB681B6A002B56
:1021780008D1B7F88630C7F88C30BB68002283F8DE
:1021880024200AE0BB681B6AC7F88C30BB680022B1
:102198001A62BB68002283F82420FB681B687B65F1
:1021A800BB685B78002B65D1FB681B68FB65FB6827
:1021B8001B68B3F850309BB21A46FB6D1344FB659D
:1021C800BB681B78DA00FB6D134403F20643BB655A
:1021D800BB6D1B889BB2C3F309039AB2BB6D1A800F
:1021E800D7F88C303E2B1DD9D7F88C305B09BB66ED
:1021F800D7F88C3003F01F03002B02D1BB6E013BD4
:10220800BB66BB6D1B889AB2BB6E9BB29B029BB22E
:1022180013439BB26FEA43436FEA53439AB2BB6DD1
:102228001A8041E0D7F88C30002B0AD1BB6D1B888F
:102238009BB26FEA43436FEA53439AB2BB6D1A806D
:1022480032E0D7F88C305B08BB66D7F88C3003F0E7
:102258000103002B02D0BB6E0133BB66BB6D1B882C
:102268009AB2BB6E9BB29B029BB213439AB2BB6DF0
:102278001A8019E0BB685B78012B15D1FB681B68D5
:10228800B3F850309BB21A467B6D13447B65BB682C
:102298001B78DA007B6D134403F206433B65D7F8DD
:1022A8008C309AB23B6D1A80FB681868BB68596914
:1022B800BB685A89D7F88C309BB202F077FDFB686F
:1022C8001B681A46BB681B789B0013441B889BB28B
:1022D80023F4E04323F04003BB82BB8A83F010035E
:1022E800BB82BB8A83F02003BB82FB681B681A464B
:1022F800BB681B789B001A44BB8A43F07F4343F4B6
:102308007F0343F4004343F080039BB21380002310
:1023180018469037BD4680BD80B487B000AFF860DE
:102328007B600B467B8113463B817B8903F08003EE
:102338009BB2002B0BD07B8903F0070213469B004E
:102348001344DB001033FA6813447B6109E07A898F
:1023580013469B001344DB0003F5A873FA68134483
:102368007B613B89002B07D17B6900221A737B684C
:102378009AB27B69DA800BE07B6901221A737B6869
:102388009AB27B691A817B681B0C9AB27B695A8165
:10239800002318461C37BD465DF8047B704780B49F
:1023A80085B000AF78607B681B68FB607B680122A2
:1023B800C3F8D0227B68002283F8C822FB68B3F8F0
:1023C80054309BB243F001039AB2FB68A3F854203F
:1023D800FB68B3F854309BB243F002039AB2FB682F
:1023E800A3F85420002318461437BD465DF8047B33
:1023F8007047000080B586B000AF78600023FB749A
:102408000023BB747B681B6803F40023002B00F0D7
:10241800988000237B74434B9B6D03F08053002B03
:102428000DD1404B9B6D3F4A43F0805393653D4B24
:102438009B6D03F08053BB60BB6801237B743A4BF0
:102448001B68394A43F480731360FEF7E1F9F860BA
:1024580009E0FEF7DDF90246FB68D31A022B02D920
:102468000323FB7405E0304B1B6803F48073002BD7
:10247800EFD0FB7C002B59D12A4BD3F8903003F4D2
:1024880040737B617B69002B1ED07B681B6C7A696B
:102498009A4219D0234BD3F8903023F440737B61D0
:1024A800204BD3F890301F4A43F48033C2F8903061
:1024B8001C4BD3F890301B4A23F48033C2F8903079
:1024C800184A7B69C2F890307B6903F00103002B3E
:1024D80016D0FEF79DF9F8600BE0FEF799F9024671
:1024E800FB68D31A41F28832934202D90323FB7462
:1024F80006E00C4BD3F8903003F00203002BECD02D
:10250800FB7C002B0BD1074BD3F8903023F440729F
:102518007B681B6C03491343C1F8903008E0FB7CCF
:10252800BB7405E00010024000700040FB7CBB74E7
:102538007B7C012B05D1A64B9B6DA54A23F08053CC
:1025480093657B681B6803F00103002B0AD0A04B3E
:10255800D3F8883023F003027B685B689C491343F7
:10256800C1F888307B681B6803F00203002B0AD08F
:10257800974BD3F8883023F00C027B689B6894490A
:102588001343C1F888307B681B6803F00403002BF1
:102598000AD08F4BD3F8883023F030027B68DB6891
:1025A8008B491343C1F888307B681B6803F0080324
:1025B800002B0AD0864BD3F8883023F0C0027B6802
:1025C8001B6983491343C1F888307B681B6803F093
:1025D8002003002B0AD07E4BD3F8883023F44062C6
:1025E8007B685B697A491343C1F888307B681B684C
:1025F80003F04003002B0AD0754BD3F8883023F43E
:1026080040527B689B6972491343C1F888307B68E4
:102618001B6803F08003002B0AD06D4BD3F8883079
:1026280023F440427B68DB6969491343C1F8883069
:102638007B681B6803F48073002B0AD0644BD3F8C3
:10264800883023F440327B681B6A61491343C1F820
:1026580088307B681B6803F40073002B0AD05C4B3E
:10266800D3F8883023F440227B685B6A58491343C7
:10267800C1F888307B681B6803F48063002B15D091
:10268800534BD3F8883023F440127B689B6A504937
:102698001343C1F888307B689B6AB3F5801F05D166
:1026A8004B4BDB684A4A43F48013D3607B681B6852
:1026B80003F40063002B15D0454BD3F8883023F47E
:1026C80040027B68DB6A42491343C1F888307B6863
:1026D800DB6AB3F5800F05D13D4BDB683C4A43F418
:1026E8008013D3607B681B6803F48053002B15D0DC
:1026F800374BD3F8883023F040727B681B6B344922
:102708001343C1F888307B681B6BB3F1807F05D118
:102718002F4BDB682E4A43F48013D3607B681B6819
:1027280003F40053002B15D0294BD3F8883023F03D
:1027380040627B685B6B26491343C1F888307B682D
:102748005B6BB3F1006F05D1214BDB68204A43F482
:102758008013D3607B681B6803F48043002B15D07B
:102768001B4BD3F8883023F040627B689B6B184979
:102778001343C1F888307B689B6BB3F1006F05D1B8
:10278800134BDB68124A43F48013D3607B681B68E1
:1027980003F40043002B15D00D4BD3F8883023F0F9
:1027A80040527B68DB6B0A491343C1F888307B6869
:1027B800DB6BB3F1805F05D1054BDB68044A43F45A
:1027C8008033D360BB7C18461837BD4680BD00BF38
:1027D8000010024080B485B000AF78607B680022AA
:1027E800A3F844204BF68073FB60FB689AB27B68C1
:1027F800A3F84020002318461437BD465DF8047B33
:10280800704780B485B000AF78604BF68073FB608A
:102818007B68B3F840309AB2FB689BB2DB439BB24B
:1028280013409AB27B68A3F8402000231846143757
:10283800BD465DF8047B704780B485B000AFF86092
:102848003B1D83E80600FB680122A3F84020FB68D3
:102858000022A3F84020FB680022A3F84420FB686C
:102868000022A3F85020002318461437BD465DF80F
:10287800047B704780B49DB000AF78603960002356
:1028880087F86F307A683B681B789B0013441B8875
:102898009BB223F4EC4323F07003A7F86C303B6839
:1028A800DB78032B1FD801A252F823F0C5280008B3
:1028B800E1280008F7280008D3280008B7F86C308A
:1028C80043F40073A7F86C3012E0B7F86C3043F4A7
:1028D800C063A7F86C300BE0B7F86C3043F4806342
:1028E800A7F86C3004E0012387F86F3000E000BFE0
:1028F8007A683B681B789B001A44B7F86C3043F041
:102908007F4343F47F0343F4004343F080039BB2C7
:1029180013807A683B681B789B0013441B889BB222
:102928001BB223F4E04323F070031AB23B681B7810
:102938001BB213431BB2A7F866307A683B681B7852
:102948009B001A44B7F8663043F07F4343F47F0393
:1029580043F4004343F080039BB213803B681B7B26
:10296800002B40F078813B685B78002B00F0848076
:102978007B68BB617B68B3F850309BB21A46BB6971
:102988001344BB613B681B78DA00BB69134403F549
:1029980080637B613B68DB885B089BB25B009AB213
:1029A8007B691A807A683B681B789B0013441B88F4
:1029B8007B827B8A03F04003002B1BD07A683B683C
:1029C8001B789B0013441B889BB223F4E04323F03D
:1029D80070033B827A683B681B789B001A443B8AE9
:1029E80043F07F4343F47F0343F4004343F0C003C1
:1029F8009BB213803B68DB78012B20D07A683B6858
:102A08001B789B0013441B889BB223F4E04323F0FC
:102A18004003BB81BB8983F02003BB817A683B6894
:102A28001B789B001A44BB8943F07F4343F47F0320
:102A380043F4004343F080039BB21380D5E27A68E5
:102A48003B681B789B0013441B889BB223F4E0432C
:102A580023F04003FB817A683B681B789B001A448B
:102A6800FB8943F07F4343F47F0343F4004343F07F
:102A780080039BB21380B8E27B683B637B68B3F842
:102A880050309BB21A463B6B13443B633B681B7840
:102A9800DA003B6B134403F20443FB623B68DB88B8
:102AA8005B089BB25B009AB2FB6A1A807B68BB62C8
:102AB8007B68B3F850309BB21A46BB6A1344BB62BA
:102AC8003B681B78DA00BB6A134403F206437B6257
:102AD8007B6A1B889BB2C3F309039AB27B6A1A808C
:102AE8003B681B693E2B1DD93B681B695B09BB66AC
:102AF8003B681B6903F01F03002B02D1BB6E013B2F
:102B0800BB667B6A1B889AB2BB6E9BB29B029BB268
:102B180013439BB26FEA43436FEA53439AB27B6A0B
:102B28001A8026E03B681B69002B0AD17B6A1B8848
:102B38009BB26FEA43436FEA53439AB27B6A1A80A7
:102B480017E03B681B695B08BB663B681B6903F0C1
:102B58000103002B02D0BB6E0133BB667B6A1B8866
:102B68009AB2BB6E9BB29B029BB213439AB27B6A2A
:102B78001A807A683B681B789B0013441B887B8407
:102B88007B8C03F48043002B1BD07A683B681B784E
:102B98009B0013441B889BB223F4E04323F070038B
:102BA8003B847A683B681B789B001A443B8C43F053
:102BB8007F4343F47F0343F4404343F080039BB2D5
:102BC80013803B681B78002B24D17A683B681B78FC
:102BD8009B0013441B889BB223F4804323F07003AB
:102BE800BB83BB8B83F48053BB83BB8B83F40053C1
:102BF800BB837A683B681B789B001A44BB8B43F005
:102C08007F4343F47F0343F4004343F080039BB2C4
:102C18001380EAE17A683B681B789B0013441B88A1
:102C28009BB223F4804323F07003FB83FB8B83F474
:102C38000053FB837A683B681B789B001A44FB8B24
:102C480043F07F4343F47F0343F4004343F080039E
:102C58009BB21380C9E13B68DB78022B1ED17A68EE
:102C68003B681B789B0013441B889BB223F4E0430A
:102C780023F07003A7F862307A683B681B789B00E2
:102C88001A44B7F8623043F07F4343F47F0343F4B8
:102C9800014343F080039BB213801DE07A683B68D0
:102CA8001B789B0013441B889BB223F4E24323F058
:102CB8007003A7F864307A683B681B789B001A4455
:102CC800B7F8643043F07F4343F47F0343F4004391
:102CD80043F080039BB213807B68FB657B68B3F885
:102CE80050309BB21A46FB6D1344FB653B681B785A
:102CF800DA00FB6D134403F58063BB653B681B89F1
:102D08005B089BB25B009AB2BB6D1A807B687B65DF
:102D18007B68B3F850309BB21A467B6D13447B65D1
:102D28003B681B78DA007B6D134403F204433B6570
:102D38003B685B895B089BB25B009AB23B6D1A806B
:102D48003B685B78002B40F093807A683B681B787F
:102D58009B0013441B88A7F84030B7F8403003F4B1
:102D68008043002B1BD07A683B681B789B00134478
:102D78001B889BB223F4E04323F07003FB877A6837
:102D88003B681B789B001A44FB8F43F07F4343F456
:102D98007F0343F4404343F080039BB213807A6877
:102DA8003B681B789B0013441B88BB87BB8F03F0D1
:102DB8004003002B1BD07A683B681B789B001344A8
:102DC8001B889BB223F4E04323F070037B877A6867
:102DD8003B681B789B001A447B8F43F07F4343F486
:102DE8007F0343F4004343F0C0039BB213807A6827
:102DF8003B681B789B0013441B889BB223F48043D9
:102E080023F070033B873B8F83F480533B873B8FD2
:102E180083F400533B877A683B681B789B001A440D
:102E28003B8F43F07F4343F47F0343F4004343F075
:102E380080039BB213807A683B681B789B0013441D
:102E48001B889BB223F4E04323F04003FB867A6897
:102E58003B681B789B001A44FB8E43F07F4343F486
:102E68007F0343F4004343F080039BB21380BCE02C
:102E78007A683B681B789B0013441B88A7F84E3080
:102E8800B7F84E3003F48043002B1DD07A683B68B6
:102E98001B789B0013441B889BB223F4E04323F068
:102EA8007003A7F84C307A683B681B789B001A447B
:102EB800B7F84C3043F07F4343F47F0343F4404377
:102EC80043F080039BB213807A683B681B789B00B1
:102ED80013441B88A7F84A30B7F84A3003F0400378
:102EE800002B1DD07A683B681B789B0013441B8815
:102EF8009BB223F4E04323F07003A7F848307A68C4
:102F08003B681B789B001A44B7F8483043F07F436E
:102F180043F47F0343F4004343F0C0039BB21380A0
:102F28003B68DB78012B24D07A683B681B789B00D0
:102F380013441B889BB223F4E04323F04003A7F813
:102F48004430B7F8443083F02003A7F844307A6857
:102F58003B681B789B001A44B7F8443043F07F4322
:102F680043F47F0343F4004343F080039BB2138090
:102F78001DE07A683B681B789B0013441B889BB252
:102F880023F4E04323F04003A7F846307A683B680F
:102F98001B789B001A44B7F8463043F07F4343F44C
:102FA8007F0343F4004343F080039BB213807A68A5
:102FB8003B681B789B0013441B889BB223F4804317
:102FC80023F07003A7F842307A683B681B789B00AF
:102FD8001A44B7F8423043F07F4343F47F0343F485
:102FE800004343F080039BB2138097F86F30184674
:102FF8007437BD465DF8047B704700BF80B48DB060
:1030080000AF786039603B681B7B002B40F08E80F6
:103018003B685B78002B44D07A683B681B789B0040
:1030280013441B88BB81BB8903F04003002B1BD0D2
:103038007A683B681B789B0013441B889BB223F477
:10304800E04323F070037B817A683B681B789B0020
:103058001A447B8943F07F4343F47F0343F40043DE
:1030680043F0C0039BB213807A683B681B789B00CF
:1030780013441B889BB223F4E04323F040033B81B5
:103088007A683B681B789B001A443B8943F07F436E
:1030980043F47F0343F4004343F080039BB213805F
:1030A80092E17A683B681B789B0013441B887B82FB
:1030B8007B8A03F48043002B1BD07A683B681B781B
:1030C8009B0013441B889BB223F4E04323F0700356
:1030D8003B827A683B681B789B001A443B8A43F022
:1030E8007F4343F47F0343F4404343F080039BB2A0
:1030F80013807A683B681B789B0013441B889BB23B
:1031080023F4804323F07003FB817A683B681B78C3
:103118009B001A44FB8943F07F4343F47F0343F445
:10312800004343F080039BB213804DE13B685B781A
:10313800002B40F0A5807A683B681B789B001344FD
:103148001B883B843B8C03F48043002B1BD07A689C
:103158003B681B789B0013441B889BB223F4E04315
:1031680023F07003FB837A683B681B789B001A4442
:10317800FB8B43F07F4343F47F0343F4404343F026
:1031880080039BB213807A683B681B789B001344CA
:103198001B88BB83BB8B03F04003002B1BD07A68D2
:1031A8003B681B789B0013441B889BB223F4E043C5
:1031B80023F070037B837A683B681B789B001A4472
:1031C8007B8B43F07F4343F47F0343F4004343F096
:1031D800C0039BB213807A683B681B789B0013443A
:1031E8001B889BB223F4E04323F070033B837A6887
:1031F8003B681B789B001A443B8B43F07F4343F4A6
:103208007F0343F4004343F0C0039BB213807A6802
:103218003B681B789B0013441B889BB223F48043B4
:1032280023F07003FB827A683B681B789B001A4482
:10323800FB8A43F07F4343F47F0343F4004343F0A6
:1032480080039BB213807A683B681B789B00134409
:103258001B889BB223F4E04323F04003BB827A68C7
:103268003B681B789B001A44BB8A43F07F4343F4B6
:103278007F0343F4004343F080039BB21380A3E031
:103288007A683B681B789B0013441B88FB85FB8D81
:1032980003F48043002B1BD07A683B681B789B00A3
:1032A80013441B889BB223F4E04323F07003BB85CF
:1032B8007A683B681B789B001A44BB8D43F07F43B8
:1032C80043F47F0343F4404343F080039BB21380ED
:1032D8007A683B681B789B0013441B887B857B8D31
:1032E80003F04003002B1BD07A683B681B789B00D7
:1032F80013441B889BB223F4E04323F070033B85FF
:103308007A683B681B789B001A443B8D43F07F43E7
:1033180043F47F0343F4004343F0C0039BB213809C
:103328007A683B681B789B0013441B889BB223F484
:10333800E04323F07003FB847A683B681B789B00AA
:103348001A44FB8C43F07F4343F47F0343F4404328
:1033580043F080039BB213807A683B681B789B001C
:1033680013441B889BB223F4E04323F04003BB843F
:103378007A683B681B789B001A44BB8C43F07F43F8
:1033880043F47F0343F4004343F080039BB213806C
:103398007A683B681B789B0013441B889BB223F414
:1033A800804323F070037B847A683B681B789B001A
:1033B8001A447B8C43F07F4343F47F0343F4004378
:1033C80043F080039BB21380002318463437BD4670
:1033D8005DF8047B704780B5C2B000AF07F5847311
:1033E800A3F58273186007F58473A3F584731960D5
:1033F80007F58473A3F584731B685B78012B40F091
:10340800B78607F58473A3F584731B689A6907F573
:103418008473A3F584731B681B699A4208D907F55E
:103428008473A3F584731B681B69C7F8043107E02C
:1034380007F58473A3F584731B689B69C7F8043187
:1034480007F58473A3F584731B681B7B002B3AD1A3
:1034580007F58473A3F584731B68596907F58473AA
:10346800A3F584731B68DA88D7F804319BB207F593
:103478008470A0F58270006801F098FC07F58473E9
:10348800A3F582731B683B6107F58473A3F5827308
:103498001B68B3F850309BB21A463B6913443B6132
:1034A80007F58473A3F584731B681B78DA003B69FE
:1034B800134403F20243FB60D7F804319AB2FB6865
:1034C8001A8000F01FBE07F58473A3F584731B6888
:1034D800DB78022B40F0628407F58473A3F58473CC
:1034E8001B681A6A07F58473A3F584731B681B6944
:1034F8009A4240F2DF8307F58473A3F582731A6852
:1035080007F58473A3F584731B681B789B00134429
:103518001B889BB223F4E04323F07003A7F85630CE
:1035280007F58473A3F582731A6807F58473A3F506
:1035380084731B681B789B001A44B7F8563043F015
:103548007F4343F47F0343F4014343F080039BB27A
:10355800138007F58473A3F584731B681A6AD7F878
:103568000431D21A07F58473A3F584731B681A62B1
:1035780007F58473A3F582731A6807F58473A3F5B6
:1035880084731B681B789B0013441B889BB203F051
:103598004003002B00F0C78107F58473A3F58273FD
:1035A8001B683B6307F58473A3F584731B685B781A
:1035B800002B77D107F58473A3F582731B68BB6270
:1035C80007F58473A3F582731B68B3F850309BB278
:1035D8001A46BB6A1344BB6207F58473A3F5847368
:1035E8001B681B78DA00BB6A134403F206437B624C
:1035F8007B6A1B889BB2C3F309039AB27B6A1A8061
:10360800D7F804313E2B21D9D7F804315B09C7F824
:103618000031D7F8043103F01F03002B04D1D7F889
:103628000031013BC7F800317B6A1B889AB2D7F892
:1036380000319BB29B029BB213439BB26FEA434398
:103648006FEA53439AB27B6A1A8050E0D7F8043184
:10365800002B0AD17B6A1B889BB26FEA43436FEA4F
:1036680053439AB27B6A1A8041E0D7F804315B0869
:10367800C7F80031D7F8043103F00103002B04D058
:10368800D7F800310133C7F800317B6A1B889AB23A
:10369800D7F800319BB29B029BB213439AB27B6A64
:1036A8001A8024E007F58473A3F584731B685B789C
:1036B800012B1CD107F58473A3F582731B68B3F83B
:1036C80050309BB21A463B6B13443B6307F5847337
:1036D800A3F584731B681B78DA003B6B134403F271
:1036E8000643FB62D7F804319AB2FB6A1A8007F5E1
:1036F8008473A3F584731B685B89A7F8763007F594
:103708008473A3F584731B685969D7F804319BB295
:10371800B7F8762007F58470A0F58270006801F08C
:1037280045FB07F58473A3F584731B685A69D7F8BA
:1037380004311A4407F58473A3F584731B685A612E
:1037480007F58473A3F584731B681A6A07F58473F5
:10375800A3F584731B681B699A420FD907F5847314
:10376800A3F584731B681A6AD7F80431D21A07F5CF
:103778008473A3F584731B681A620EE007F58473DB
:10378800A3F584731B681B6AC7F8043107F58473B3
:10379800A3F584731B6800221A6207F58473A3F5E6
:1037A80084731B685B78002B77D107F58473A3F5C6
:1037B80082731B68BB6107F58473A3F582731B686A
:1037C800B3F850309BB21A46BB691344BB6107F586
:1037D8008473A3F584731B681B78DA00BB691344F0
:1037E80003F202437B617B691B889BB2C3F3090325
:1037F8009AB27B691A80D7F804313E2B21D9D7F8C1
:1038080004315B09C7F8FC30D7F8043103F01F0313
:10381800002B04D1D7F8FC30013BC7F8FC307B699A
:103828001B889AB2D7F8FC309BB29B029BB2134319
:103838009BB26FEA43436FEA53439AB27B691A809B
:1038480056E0D7F80431002B0AD17B691B889BB25C
:103858006FEA43436FEA53439AB27B691A8047E0A1
:10386800D7F804315B08C7F8FC30D7F8043103F007
:103878000103002B04D0D7F8FC300133C7F8FC3023
:103888007B691B889AB2D7F8FC309BB29B029BB22B
:1038980013439AB27B691A802AE007F58473A3F56B
:1038A80084731B685B78012B22D107F58473A3F519
:1038B80082731B683B6207F58473A3F582731B68E8
:1038C800B3F850309BB21A463B6A13443B6207F583
:1038D8008473A3F584731B681B78DA003B6A13446E
:1038E80003F20243FB61D7F804319AB2FB691A80EC
:1038F80007F58473A3F584731B681B89A7F87630D2
:1039080007F58473A3F584731B685969D7F80431E4
:103918009BB2B7F8762007F58470A0F5827000682E
:1039280001F044FAEEE307F58473A3F584731B688A
:103938005B78002B77D107F58473A3F582731B6836
:10394800BB6407F58473A3F582731B68B3F8503022
:103958009BB21A46BB6C1344BB6407F58473A3F58A
:1039680084731B681B78DA00BB6C134403F20243B0
:103978007B647B6C1B889BB2C3F309039AB27B6C94
:103988001A80D7F804313E2B21D9D7F804315B09C6
:10399800C7F8F830D7F8043103F01F03002B04D11F
:1039A800D7F8F830013BC7F8F8307B6C1B889AB21F
:1039B800D7F8F8309BB29B029BB213439BB26FEAD5
:1039C80043436FEA53439AB27B6C1A8056E0D7F8A8
:1039D8000431002B0AD17B6C1B889BB26FEA4343EE
:1039E8006FEA53439AB27B6C1A8047E0D7F80431E8
:1039F8005B08C7F8F830D7F8043103F00103002B4F
:103A080004D0D7F8F8300133C7F8F8307B6C1B883E
:103A18009AB2D7F8F8309BB29B029BB213439AB282
:103A28007B6C1A802AE007F58473A3F584731B68FE
:103A38005B78012B22D107F58473A3F582731B6889
:103A48003B6507F58473A3F582731B68B3F85030A0
:103A58009BB21A463B6D13443B6507F58473A3F587
:103A680084731B681B78DA003B6D134403F202432E
:103A7800FB64D7F804319AB2FB6C1A8007F584739B
:103A8800A3F584731B681B89A7F8763007F5847340
:103A9800A3F584731B685969D7F804319BB2B7F84A
:103AA800762007F58470A0F58270006801F07EF931
:103AB80007F58473A3F584731B685A69D7F8043132
:103AC8001A4407F58473A3F584731B685A6107F5D4
:103AD8008473A3F584731B681A6A07F58473A3F5C6
:103AE80084731B681B699A420FD907F58473A3F581
:103AF80084731B681A6AD7F80431D21A07F58473DD
:103B0800A3F584731B681A620EE007F58473A3F5A6
:103B180084731B681B6AC7F8043107F58473A3F51F
:103B280084731B6800221A6207F58473A3F58273F5
:103B38001B683B6407F58473A3F584731B685B7883
:103B4800002B77D107F58473A3F582731B68BB63D9
:103B580007F58473A3F582731B68B3F850309BB2E2
:103B68001A46BB6B1344BB6307F58473A3F58473D0
:103B78001B681B78DA00BB6B134403F206437B63B4
:103B88007B6B1B889BB2C3F309039AB27B6B1A80C9
:103B9800D7F804313E2B21D9D7F804315B09C7F88F
:103BA800F430D7F8043103F01F03002B04D1D7F801
:103BB800F430013BC7F8F4307B6B1B889AB2D7F816
:103BC800F4309BB29B029BB213439BB26FEA434310
:103BD8006FEA53439AB27B6B1A8050E0D7F80431EE
:103BE800002B0AD17B6B1B889BB26FEA43436FEAB9
:103BF80053439AB27B6B1A8041E0D7F804315B08D3
:103C0800C7F8F430D7F8043103F00103002B04D0CF
:103C1800D7F8F4300133C7F8F4307B6B1B889AB2BD
:103C2800D7F8F4309BB29B029BB213439AB27B6BDA
:103C38001A8024E007F58473A3F584731B685B7806
:103C4800012B1CD107F58473A3F582731B68B3F8A5
:103C580050309BB21A463B6C13443B6407F584739F
:103C6800A3F584731B681B78DA003B6C134403F2DA
:103C78000643FB63D7F804319AB2FB6B1A8007F549
:103C88008473A3F584731B685B89A7F8763007F5FE
:103C98008473A3F584731B685969D7F804319BB200
:103CA800B7F8762007F58470A0F58270006801F0F7
:103CB8007DF827E207F58473A3F584731B681B6AF4
:103CC800C7F8043107F58473A3F582731A6807F5FA
:103CD8008473A3F584731B681B789B0013441B88AB
:103CE8009BB223F4E24323F07003A7F8623007F590
:103CF8008473A3F582731A6807F58473A3F5847334
:103D08001B681B789B001A44B7F8623043F07F4366
:103D180043F47F0343F4004343F080039BB21380D2
:103D280007F58473A3F582731B68FB6507F5847335
:103D3800A3F582731B68B3F850309BB21A46FB6D2B
:103D48001344FB6507F58473A3F584731B681B781C
:103D5800DA00FB6D134403F20243BB65D7F8043164
:103D68009AB2BB6D1A8007F58473A3F584731B6838
:103D78001B89A7F8763007F58473A3F584731B684D
:103D88005969D7F804319BB2B7F8762007F58470E3
:103D9800A0F58270006801F009F8B3E107F58473B3
:103DA800A3F584731B681A6AD7F80431D21A07F589
:103DB8008473A3F584731B681A6207F58473A3F5EB
:103DC80082731A6807F58473A3F584731B681B78DC
:103DD8009B0013441B889BB203F04003002B00F0A8
:103DE800C68007F58473A3F582731B683B6707F5E4
:103DF8008473A3F584731B685B78002B77D107F570
:103E08008473A3F582731B68BB6607F58473A3F5F7
:103E180082731B68B3F850309BB21A46BB6E1344CA
:103E2800BB6607F58473A3F584731B681B78DA00F7
:103E3800BB6E134403F206437B667B6E1B889BB202
:103E4800C3F309039AB27B6E1A80D7F804313E2B6C
:103E580021D9D7F804315B09C7F8F030D7F8043115
:103E680003F01F03002B04D1D7F8F030013BC7F84B
:103E7800F0307B6E1B889AB2D7F8F0309BB29B0269
:103E88009BB213439BB26FEA43436FEA53439AB220
:103E98007B6E1A8050E0D7F80431002B0AD17B6E74
:103EA8001B889BB26FEA43436FEA53439AB27B6E17
:103EB8001A8041E0D7F804315B08C7F8F030D7F82A
:103EC800043103F00103002B04D0D7F8F03001339C
:103ED800C7F8F0307B6E1B889AB2D7F8F0309BB2E7
:103EE8009B029BB213439AB27B6E1A8024E007F5BB
:103EF8008473A3F584731B685B78012B1CD107F5C9
:103F08008473A3F582731B68B3F850309BB21A46CA
:103F18003B6F13443B6707F58473A3F584731B68F1
:103F28001B78DA003B6F134403F20643FB66D7F8AD
:103F380004319AB2FB6E1A8007F58473A3F5847373
:103F48001B685B89A7F8763007F58473A3F584733B
:103F58001B685969D7F804319BB2B7F8762007F582
:103F68008470A0F58270006800F020FFCAE007F5B1
:103F78008473A3F584731B685B78002B77D107F5EE
:103F88008473A3F582731B68FB6707F58473A3F535
:103F980082731B68B3F850309BB21A46FB6F134408
:103FA800FB6707F58473A3F584731B681B78DA0035
:103FB800FB6F134403F20243BB67BB6F1B889BB2C2
:103FC800C3F309039AB2BB6F1A80D7F804313E2BAA
:103FD80021D9D7F804315B09C7F8EC30D7F8043198
:103FE80003F01F03002B04D1D7F8EC30013BC7F8CE
:103FF800EC30BB6F1B889AB2D7F8EC309BB29B02AF
:104008009BB213439BB26FEA43436FEA53439AB29E
:10401800BB6F1A805CE0D7F80431002B0AD1BB6F64
:104028001B889BB26FEA43436FEA53439AB2BB6F54
:104038001A804DE0D7F804315B08C7F8EC30D7F8A0
:10404800043103F00103002B04D0D7F8EC3001331E
:10405800C7F8EC30BB6F1B889AB2D7F8EC309BB22C
:104068009B029BB213439AB2BB6F1A8030E007F5EC
:104078008473A3F584731B685B78012B28D107F53B
:104088008473A3F582731B68C7F8843007F58473BB
:10409800A3F582731B68B3F850309BB21A46D7F861
:1040A80084301344C7F8843007F58473A3F5847308
:1040B8001B681B78DA00D7F88430134403F20243F4
:1040C800C7F88030D7F804319AB2D7F880301A8010
:1040D80007F58473A3F584731B681B89A7F87630EA
:1040E80007F58473A3F584731B685969D7F80431FD
:1040F8009BB2B7F8762007F58470A0F58270006847
:1041080000F054FE07F58473A3F582731A6807F567
:104118008473A3F584731B681B789B0013441B8866
:104128009BB223F4E04323F040037B817B8983F037
:1041380010037B817B8983F020037B8107F58473DF
:10414800A3F582731A6807F58473A3F584731B6853
:104158001B789B001A447B8943F07F4343F47F0319
:1041680043F4004343F080039BB2138000F0DEBCAD
:1041780007F58473A3F584731B681B7B002B40F041
:10418800BB8007F58473A3F584731B689A6907F5E8
:104198008473A3F584731B681B699A4217D907F5C2
:1041A8008473A3F584731B681B69C7F8043107F58A
:1041B8008473A3F584731B689A69D7F80431D21AFB
:1041C80007F58473A3F584731B689A610EE007F5FD
:1041D8008473A3F584731B689B69C7F8043107F5DA
:1041E8008473A3F584731B6800229A6107F58473AE
:1041F800A3F582731B68C7F8903007F58473A3F59D
:1042080082731B68B3F850309BB21A46D7F89030C7
:104218001344C7F8903007F58473A3F584731B68BB
:104228001B78DA00D7F89030134403F20643C7F836
:104238008C30D7F88C301B889BB2C3F309039AB231
:10424800D7F88C301A80D7F804313E2B24D9D7F808
:1042580004315B09C7F8E830D7F8043103F01F03CD
:10426800002B04D1D7F8E830013BC7F8E830D7F87D
:104278008C301B889AB2D7F8E8309BB29B029BB26D
:1042880013439BB26FEA43436FEA53439AB2D7F89A
:104298008C301A8000F010BCD7F80431002B0CD1F8
:1042A800D7F88C301B889BB26FEA43436FEA5343BD
:1042B8009AB2D7F88C301A80FEE3D7F804315B083D
:1042C800C7F8E830D7F8043103F00103002B04D015
:1042D800D7F8E8300133C7F8E830D7F88C301B88B6
:1042E8009AB2D7F8E8309BB29B029BB213439AB2BA
:1042F800D7F88C301A80DFE307F58473A3F584734D
:104308001B68DB78022B40F0188207F58473A3F54D
:1043180084731B685B78002B40F09D8007F58473DD
:10432800A3F582731B68C7F8AC3007F58473A3F54F
:1043380082731B68B3F850309BB21A46D7F8AC307A
:104348001344C7F8AC3007F58473A3F584731B686E
:104358001B78DA00D7F8AC30134403F20243C7F8ED
:10436800A830D7F8A8301B889BB2C3F309039AB2C8
:10437800D7F8A8301A8007F58473A3F584731B68EF
:104388001B693E2B2BD907F58473A3F584731B682F
:104398001B695B09C7F8E43007F58473A3F58473D8
:1043A8001B681B6903F01F03002B04D1D7F8E43006
:1043B800013BC7F8E430D7F8A8301B889AB2D7F881
:1043C800E4309BB29B029BB213439BB26FEA434318
:1043D8006FEA53439AB2D7F8A8301A8070E007F50D
:1043E8008473A3F584731B681B69002B0CD1D7F861
:1043F800A8301B889BB26FEA43436FEA53439AB2D3
:10440800D7F8A8301A805BE007F58473A3F58473A6
:104418001B681B695B08C7F8E43007F58473A3F5CC
:1044280084731B681B6903F00103002B04D0D7F8C1
:10443800E4300133C7F8E430D7F8A8301B889AB2C3
:10444800D7F8E4309BB29B029BB213439AB2D7F8D9
:10445800A8301A8034E007F58473A3F584731B68C9
:104468005B78012B2CD107F58473A3F582731B6845
:10447800C7F8B43007F58473A3F582731B68B3F8E3
:1044880050309BB21A46D7F8B4301344C7F8B4304A
:1044980007F58473A3F584731B681B78DA00D7F8D3
:1044A800B430134403F20243C7F8B03007F58473FD
:1044B800A3F584731B681B699AB2D7F8B0301A80C9
:1044C80007F58473A3F582731B68C7F8A43007F552
:1044D8008473A3F584731B685B78002B40F09D8080
:1044E80007F58473A3F582731B68C7F89C3007F53A
:1044F8008473A3F582731B68B3F850309BB21A46D5
:10450800D7F89C301344C7F89C3007F58473A3F59B
:1045180084731B681B78DA00D7F89C30134403F2C5
:104528000643C7F89830D7F898301B889BB2C3F376
:1045380009039AB2D7F898301A8007F58473A3F55F
:1045480084731B681B693E2B2BD907F58473A3F56D
:1045580084731B681B695B09C7F8E03007F584732F
:10456800A3F584731B681B6903F01F03002B04D198
:10457800D7F8E030013BC7F8E030D7F898301B880F
:104588009AB2D7F8E0309BB29B029BB213439BB21E
:104598006FEA43436FEA53439AB2D7F898301A80C8
:1045A80069E007F58473A3F584731B681B69002B06
:1045B8000CD1D7F898301B889BB26FEA43436FEA57
:1045C80053439AB2D7F898301A8054E007F58473A9
:1045D800A3F584731B681B695B08C7F8E03007F50F
:1045E8008473A3F584731B681B6903F00103002B14
:1045F80004D0D7F8E0300133C7F8E030D7F8983066
:104608001B889AB2D7F8E0309BB29B029BB2134347
:104618009AB2D7F898301A802DE007F58473A3F57D
:1046280084731B685B78012B25D107F58473A3F588
:1046380082731B68B3F850309BB21A46D7F8A4307F
:104648001344C7F8A43007F58473A3F584731B6873
:104658001B78DA00D7F8A430134403F20643C7F8EE
:10466800A03007F58473A3F584731B681B699AB29D
:10467800D7F8A0301A8007F58473A3F584731B68F4
:10468800DB69002B00F0188207F58473A3F58273A9
:104698001A6807F58473A3F584731B681B789B005D
:1046A80013441B88A7F89630B7F8963003F4804374
:1046B800002B05D0B7F8963003F04003002B0DD13E
:1046C800B7F8963003F48043002B40F0F581B7F833
:1046D800963003F04003002B40F0EE8107F5847319
:1046E800A3F582731A6807F58473A3F584731B68AE
:1046F8001B789B0013441B889BB223F4E04323F0F0
:104708007003A7F8943007F58473A3F582731A68C9
:1047180007F58473A3F584731B681B789B001A4400
:10472800B7F8943043F07F4343F47F0343F40043E6
:1047380043F0C0039BB21380BEE107F58473A3F571
:1047480084731B68DB78012B40F0B48107F5847310
:10475800A3F584731B689A6907F58473A3F58473BA
:104768001B681B699A4217D907F58473A3F58473EC
:104778001B681B69C7F8043107F58473A3F58473B4
:104788001B689A69D7F80431D21A07F58473A3F520
:1047980084731B689A610EE007F58473A3F584732C
:1047A8001B689B69C7F8043107F58473A3F5847304
:1047B8001B6800229A6107F58473A3F584731B684C
:1047C8005B78002B40F0858007F58473A3F582732E
:1047D8001B68C7F8CC3007F58473A3F582731B6890
:1047E800B3F850309BB21A46D7F8CC301344C7F808
:1047F800CC3007F58473A3F584731B681B78DA0043
:10480800D7F8CC30134403F20243C7F8C830D7F8BE
:10481800C8301B889BB2C3F309039AB2D7F8C830D3
:104828001A80D7F804313E2B23D9D7F804315B0915
:10483800C7F8DC30D7F8043103F01F03002B04D18C
:10484800D7F8DC30013BC7F8DC30D7F8C8301B8814
:104858009AB2D7F8DC309BB29B029BB213439BB24F
:104868006FEA43436FEA53439AB2D7F8C8301A80C5
:1048780060E0D7F80431002B0CD1D7F8C8301B887A
:104888009BB26FEA43436FEA53439AB2D7F8C830F2
:104898001A804FE0D7F804315B08C7F8DC30D7F846
:1048A800043103F00103002B04D0D7F8DC300133C6
:1048B800C7F8DC30D7F8C8301B889AB2D7F8DC3094
:1048C8009BB29B029BB213439AB2D7F8C8301A80A6
:1048D80030E007F58473A3F584731B685B78012BBC
:1048E80028D107F58473A3F582731B68C7F8D43001
:1048F80007F58473A3F582731B68B3F850309BB235
:104908001A46D7F8D4301344C7F8D43007F584735F
:10491800A3F584731B681B78DA00D7F8D4301344E6
:1049280003F20243C7F8D030D7F804319AB2D7F867
:10493800D0301A8007F58473A3F582731B68C7F813
:10494800C43007F58473A3F584731B685B78002B68
:1049580040F0858007F58473A3F582731B68C7F858
:10496800BC3007F58473A3F582731B68B3F8503025
:104978009BB21A46D7F8BC301344C7F8BC3007F5C9
:104988008473A3F584731B681B78DA00D7F8BC30EE
:10499800134403F20643C7F8B830D7F8B8301B8879
:1049A8009BB2C3F309039AB2D7F8B8301A80D7F884
:1049B80004313E2B23D9D7F804315B09C7F8D83026
:1049C800D7F8043103F01F03002B04D1D7F8D830EF
:1049D800013BC7F8D830D7F8B8301B889AB2D7F857
:1049E800D8309BB29B029BB213439BB26FEA4343FE
:1049F8006FEA53439AB2D7F8B8301A805CE0D7F818
:104A08000431002B0CD1D7F8B8301B889BB26FEA61
:104A180043436FEA53439AB2D7F8B8301A804BE051
:104A2800D7F804315B08C7F8D830D7F8043103F059
:104A38000103002B04D0D7F8D8300133C7F8D83099
:104A4800D7F8B8301B889AB2D7F8D8309BB29B02F7
:104A58009BB213439AB2D7F8B8301A802CE007F506
:104A68008473A3F584731B685B78012B24D107F545
:104A78008473A3F582731B68B3F850309BB21A464F
:104A8800D7F8C4301344C7F8C43007F58473A3F5C6
:104A980084731B681B78DA00D7F8C430134403F218
:104AA8000643C7F8C030D7F804319AB2D7F8C030F7
:104AB8001A8001E001233AE007F58473A3F58273B5
:104AC8001A6807F58473A3F584731B681B789B0029
:104AD80013441B889BB223F4804323F07003A7F888
:104AE8008A30B7F88A3083F48053A7F88A30B7F849
:104AF8008A3083F40053A7F88A3007F58473A3F546
:104B080082731A6807F58473A3F584731B681B788E
:104B18009B001A44B7F88A3043F07F4343F47F037D
:104B280043F4004343F080039BB2138000231846EC
:104B380007F58477BD4680BD80B485B000AF786046
:104B480039603B685B78002B20D07A683B681B781B
:104B58009B0013441B889BB223F4E04323F04003DB
:104B6800BB81BB8983F01003BB817A683B681B78E3
:104B78009B001A44BB8943F07F4343F47F0343F40B
:104B8800004343F080039BB213801FE07A683B68C0
:104B98001B789B0013441B889BB223F4804323F0AB
:104BA8007003FB81FB8983F48053FB817A683B683F
:104BB8001B789B001A44FB8943F07F4343F47F032F
:104BC80043F4004343F080039BB21380002318464C
:104BD8001437BD465DF8047B704780B487B000AFDA
:104BE800786039603B681B7B002B40F09D803B68F8
:104BF8005B78002B4CD07A683B681B789B00134489
:104C08001B883B823B8A03F04003002B1BD07A6849
:104C18003B681B789B0013441B889BB223F4E0433A
:104C280023F07003FB817A683B681B789B001A4469
:104C3800FB8943F07F4343F47F0343F4004343F08D
:104C4800C0039BB213803B68DB78012B6CD07A6879
:104C58003B681B789B0013441B889BB223F4E043FA
:104C680023F04003BB81BB8983F02003BB817A68B2
:104C78003B681B789B001A44BB8943F07F4343F48D
:104C88007F0343F4004343F080039BB213804BE05F
:104C98007A683B681B789B0013441B88FB82FB8A5D
:104CA80003F48043002B1BD07A683B681B789B0079
:104CB80013441B889BB223F4E04323F07003BB82A8
:104CC8007A683B681B789B001A44BB8A43F07F4391
:104CD80043F47F0343F4404343F080039BB21380C3
:104CE8007A683B681B789B0013441B889BB223F4AB
:104CF800804323F070037B827B8A83F480537B821A
:104D08007B8A83F400537B827A683B681B789B001C
:104D18001A447B8A43F07F4343F47F0343F4004300
:104D280043F080039BB21380002318461C37BD460E
:104D38005DF8047B704780B483B000AF78600B46A1
:104D4800FB70FB78002B03D17B688022A3F84C20F2
:104D5800002318460C37BD465DF8047B704780B4C5
:104D680083B000AF78607B68B3F858309BB26FEAC5
:104D780043436FEA53439AB27B68A3F85820002351
:104D880018460C37BD465DF8047B704780B485B083
:104D980000AF78607B68B3F844309BB2FB60FB6877
:104DA80018461437BD465DF8047B704780B48BB055
:104DB80000AFF860B96011461A460B46FB801346EF
:104DC800BB80BB8801335B08BB61FB687B61BB6848
:104DD800FB61FA887B69134403F580633B62BB6916
:104DE8007B621BE0FB691B787B82FB6901331B78C4
:104DF8001B021AB2B7F9123013431BB27B823B6A0B
:104E08007A8A1A803B6A02333B62FB690133FB6191
:104E1800FB690133FB617B6A013B7B627B6A002B88
:104E2800E0D100BF00BF2C37BD465DF8047B70475A
:104E380080B48BB000AFF860B96011461A460B46D3
:104E4800FB801346BB80BB885B089BB2BB61FB68D9
:104E58007B61BB68FB61FA887B69134403F5806357
:104E68003B62BB697B6218E03B6A1B889BB23B6173
:104E78003B6A02333B623B69DAB2FB691A70FB6931
:104E88000133FB613B691B0ADAB2FB691A70FB69E3
:104E98000133FB617B6A013B7B627B6A002BE3D1B8
:104EA800BB8803F001039BB2002B07D03B6A1B8829
:104EB8009BB23B613B69DAB2FB691A7000BF2C37C1
:104EC800BD465DF8047B704780B48BB000AFF860D6
:104ED800B9607A60FB68A04A934202D19F4B7B621B
:104EE8000CE0FB689E4A934202D19E4B7B6205E030
:104EF800FB689D4A934201D19C4B7B62FB689B698E
:104F080043F00102FB689A6100BFFB689B6903F0EC
:104F18000103002BF9D0FB689B6943F00202FB6890
:104F28009A61FB689B6923F48072FB689A61FB684D
:104F38009B6923F40072FB689A61FB689B6923F400
:104F48000052FB689A61FB689B6923F48052FB68F6
:104F58009A61FB689B6923F02002FB689A61FB68F1
:104F68009B6923F00402FB689A610023BB61BB695B
:104F780043F0C063BB61BB6943F42063BB61BB6999
:104F880043F00303BB61BB6943F44033BB61FB6877
:104F9800BA69DA61BB681B78002B08D1FB68D3F8C3
:104FA800803023F03002FB68C3F880201CE0BB6827
:104FB8001B78012B10D1FB68D3F8803023F0300226
:104FC800FB68C3F88020FB68D3F8803043F01002F8
:104FD800FB68C3F8802007E0FB68D3F8803043F013
:104FE8003002FB68C3F88020BB685B78002B08D1CF
:104FF800FB68D3F8803023F40072FB68C3F8802084
:1050080007E0FB68D3F8803043F40072FB68C3F80C
:105018008020BB689B78002B08D1FB68D3F88030D0
:1050280023F48072FB68C3F8802007E0FB68D3F89C
:10503800803043F48072FB68C3F88020FB68D3F8A3
:10504800803023F4F812FB68C3F88020FB68D3F89B
:105058008030BA68D2781146BA6812790A441204C4
:105068001A43FB68C3F880207B6A3B620023FB7706
:1050780008E03B6A00221A603B6A04333B62FB7F0C
:105088000133FB77FB7FD32BF3D90023BB770023B6
:105098007B7723E0BB689A687B7F9B0013441B687F
:1050A8007B61BB689A687B7F9B0013441B681B0469
:1050B8007A6913437B617B6943F000637B617B6999
:1050C80043F080437B61BB7F5A1CBA7719467B6AE1
:1050D8007A6943F821207B7F01337B77BB68DB78D3
:1050E8007A7F9A42D6D300233B7723E0BB68DA68FD
:1050F8003B7F9B0013441B687B61BB68DA683B7F7E
:105108009B0013441B681B047A6913437B617B690A
:1051180043F080537B617B6943F080437B61BB7FB5
:105128005A1CBA7719467B6A7A6943F821203B7F73
:1051380001333B77BB681B793A7F9A42D6D37B68A9
:105148005B78002B14D1FB68D3F8C03023F0807251
:10515800FB68C3F8C02013E00064004000A40040CE
:105168000068004000A80040006C004000AC00400F
:10517800FB68D3F8C03043F08072FB68C3F8C020E6
:105188007B681B78002B06D1FB689B6923F480425F
:10519800FB689A6105E0FB689B6943F48042FB6801
:1051A8009A617B689B78002B06D1FB689B6923F08A
:1051B8004002FB689A6105E0FB689B6943F0400286
:1051C800FB689A61FB689B6923F00202FB689A619D
:1051D800FB689B6923F00102FB689A6100BF2C37CA
:1051E800BD465DF8047B704780B487B000AFF860B7
:1051F800B9601346FB71FB68984A934202D1984BF9
:105208007B610CE0FB68974A934202D1964B7B6125
:1052180005E0FB68954A934201D1954B7B61FB7988
:10522800002B40F08580FB68D3F890301B0ADBB276
:1052380003F003033B743A7C79691346DB0013449B
:10524800DB000B44B0331B689B0FDBB203F0010398
:10525800DAB2BB689A713A7C79691346DB00134469
:10526800DB000B44B0331B685B0FDBB203F00103B8
:10527800DAB2BB685A71BB689B79002B0ED13A7CB5
:1052880079691346DB001344DB000B44B0331B6819
:105298009B0CC3F30A02BB681A600CE03A7C79697C
:1052A8001346DB001344DB000B44B0331B6823F0C8
:1052B8006042BB681A60BB685B79002B33D13A7CCB
:1052C80079691346DB001344DB000B44B4331B68D5
:1052D8001B0CDBB203F00F03DAB2BB681A710023B0
:1052E800FB741BE03A7CFB7C9B08DBB218467969AF
:1052F8001346DB0013445B0003442E3351F823208C
:10530800FB7C03F00303DB00DA40FB7CD1B2BA6814
:1053180013440A46DA71FB7C0133FB74BB681B79C2
:10532800FA7C9A42DED33A7CFB68C3F894208FE07B
:10533800FB68D3F898301B0ADBB203F003037B74D5
:105348007A7C79691346DB001344DB000B4403F5D0
:10535800C4731B689B0FDBB203F00103DAB2BB68AE
:105368009A717A7C79691346DB001344DB000B449D
:1053780003F5C4731B685B0FDBB203F00103DAB2F9
:10538800BB685A71BB689B79002B0FD17A7C79690D
:105398001346DB001344DB000B4403F5C4731B689E
:1053A8009B0CC3F30A02BB681A600DE07A7C79692A
:1053B8001346DB001344DB000B4403F5C4731B687E
:1053C80023F06042BB681A60BB685B79002B34D15C
:1053D8007A7C79691346DB001344DB000B4403F540
:1053E800C6731B681B0CDBB203F00F03DAB2BB6891
:1053F8001A710023BB741BE07A7CBB7C9B08DBB270
:10540800184679691346DB0013445B000344643390
:1054180051F82320BB7C03F00303DB00DA40BB7C9C
:10542800D1B2BA6813440A46DA71BB7C0133BB7443
:10543800BB681B79BA7C9A42DED3FB68D3F89C30F0
:105448007A7C012101FA02F21A43FB68C3F89C2016
:1054580000BF1C37BD465DF8047B70470064004000
:1054680000A400400068004000A80040006C004014
:1054780000AC004080B485B000AF78600B46FB708C
:10548800FB78002B07D17B68D3F89030DBB203F0B0
:105498000F03FB7306E07B68D3F89830DBB203F0A8
:1054A8000F03FB73FB7B18461437BD465DF8047B7E
:1054B8007047000080B489B000AF786039607B68BD
:1054C800544A934202D1544BFB610CE07B68534A27
:1054D800934202D1524BFB6105E07B68514A9342EB
:1054E80001D1514BFB617B68D3F8C4301B0CDBB294
:1054F80003F00303BB730023BB613B689B79012B5B
:1055080007D13B681B68BB61BB6943F08043BB6143
:1055180003E03B681B689B04BB613B685B79012B1C
:1055280006D1BB6943F00053BB613B6800221A7186
:10553800BA7BF9691346DB001344DB000B4403F51F
:105548001E73BA691A603B681B791B04BA7B18463C
:10555800F9691346DB001344DB000B4403F51F73A2
:10556800186000237B6100233B610023FB7324E068
:10557800FB7B032B0FD8FB7B3A681344DB791A4675
:10558800FB7B03F00303DB0002FA03F31A467B6993
:1055980013437B610EE0FB7B3A681344DB791A46C0
:1055A800FB7B03F00303DB0002FA03F31A463B69B3
:1055B80013433B61FB7B0133FB733B681B79FA7B2D
:1055C8009A42D5D3BA7BF9691346DB001344DB0052
:1055D8000B4403F520737A691A60BA7BF96913469C
:1055E800DB001344DB000B4403F521733A691A60AE
:1055F8007B68D3F8CC30BA7B012101FA02F21A4356
:105608007B68C3F8CC2000BF2437BD465DF8047B17
:10561800704700BF0064004000A4004000680040DC
:1056280000A80040006C004000AC004080B485B089
:1056380000AF0346FB710B46BB7113467B71002319
:10564800FB60FB79062B27D801A252F823F000BF94
:10565800755600087D5600088356000889560008CC
:105668008F560008955600089B5600084FF0904347
:10567800FB6012E0164BFB600FE0164BFB600CE082
:10568800154BFB6009E0154BFB6006E0144BFB6013
:1056980003E0144BFB6000E000BFFB681B68BA79AD
:1056A8005200032101FA02F2D2431A40FB681A6041
:1056B800FB681B687979BA79520001FA02F21A4339
:1056C800FB681A6000BF1437BD465DF8047B70475D
:1056D8000004004800080048000C0048001000487A
:1056E800001400480018004890B484B000AF044685
:1056F800084611461A462346FB710346BB710B4602
:105708007B7113463B710023FB60FB79062B27D87E
:1057180001A252F823F000BF3D5700084557000882
:105728004B57000851570008575700085D570008A5
:10573800635700084FF09043FB6012E0234BFB6077
:105748000FE0234BFB600CE0224BFB6009E0224B8F
:10575800FB6006E0214BFB6003E0214BFB6000E0AF
:1057680000BF7B79002B0AD1FB685B68BA790121FD
:1057780001FA02F2D2431A40FB685A600BE07B79C7
:10578800012B08D1FB685B68BA79012101FA02F2A2
:105798001A43FB685A60FB689B68BA795200032178
:1057A80001FA02F2D2431A40FB689A60FB689B68D0
:1057B8003979BA79520001FA02F21A43FB689A6001
:1057C80000BF1037BD4690BC704700BF00040048BA
:1057D80000080048000C0048001000480014004869
:1057E8000018004880B485B000AF0346FB710B4633
:1057F800BB7113467B710023FB60FB79062B27D80E
:1058080001A252F823F000BF2D58000835580008AF
:105818003B58000841580008475800084D580008F0
:10582800535800084FF09043FB6012E0194BFB609F
:105838000FE0194BFB600CE0184BFB6009E0184BBC
:10584800FB6006E0174BFB6003E0174BFB6000E0D2
:1058580000BF7B79012B09D1FB685B69BA7901210B
:1058680001FA02F21A43FB685A610CE07B79002BBB
:1058780009D1FB685B69BA79012101FA02F2D243C6
:105888001A40FB685A6100BF1437BD465DF8047BB7
:10589800704700BF0004004800080048000C00489A
:1058A80000100048001400480018004880B485B073
:1058B80000AF0346FB710B46BB7113467B71002397
:1058C800FB60FB79062B27D801A252F823F000BF12
:1058D800F5580008FD580008035900080959000840
:1058E8000F590008155900081B5900084FF090433C
:1058F800FB6012E0164BFB600FE0164BFB600CE000
:10590800154BFB6009E0154BFB6006E0144BFB6090
:1059180003E0144BFB6000E000BFFB68DB68BA796A
:105928005200032101FA02F2D2431A40FB68DA60FE
:10593800FB68DB687979BA79520001FA02F21A43F6
:10594800FB68DA6000BF1437BD465DF8047B70471A
:105958000004004800080048000C004800100048F7
:10596800001400480018004880B485B000AF034612
:10597800FB710B46BB7113467B710023FB60FB79FF
:10598800062B27D801A252F823F000BFB15900080E
:10599800B9590008BF590008C5590008CB59000873
:1059A800D1590008D75900084FF09043FB6012E026
:1059B800244BFB600FE0244BFB600CE0234BFB60A7
:1059C80009E0234BFB6006E0224BFB6003E0224B1F
:1059D800FB6000E000BFBB79072B15D8FB681B6A8A
:1059E800BA7992000F2101FA02F2D2431A40FB68F9
:1059F8001A62FB681B6A7979BA79920001FA02F295
:105A08001A43FB681A6216E0FB685B6ABA79083ABF
:105A180092000F2101FA02F2D2431A40FB685A623F
:105A2800FB685B6A7979BA79083A920001FA02F25E
:105A38001A43FB685A6200BF1437BD465DF8047B01
:105A4800704700BF0004004800080048000C0048E8
:105A580000100048001400480018004880B582B0C3
:105A680000AF78607B6818787B6859787B689B788A
:105A78001A46FFF7DBFD7B6818787B6859787B68E6
:105A8800DA787B681B79FFF72FFE7B6818787B68CC
:105A980059787B685B791A46FFF708FF7B681878A6
:105AA8007B6859787B689B791A46FFF75DFF00BFD2
:105AB8000837BD4680BD000080B400AF2F4B0022E0
:105AC8001A602E4B00225A602C4B00229A602B4BF6
