:020000040800F2
:1000000000800020B50B0008050C0008050C000856
:10001000050C0008050C0008050C00080000000095
:10002000000000000000000000000000050C0008B7
:10003000050C000800000000050C0008050C000875
:10004000050C0008050C0008050C0008050C00084C
:10005000050C0008050C0008050C0008050C00083C
:10006000050C0008050C0008050C0008050C00082C
:10007000050C0008050C0008050C0008050C00081C
:10008000050C000800000000050C0008050C000825
:10009000050C0008050C0008050C0008050C0008FC
:1000A000050C0008050C0008050C0008050C0008EC
:1000B000050C0008050C0008050C0008050C0008DC
:1000C000050C0008050C0008050C0008050C0008CC
:1000D000050C0008050C0008050C0008050C0008BC
:1000E000050C0008050C0008050C0008050C0008AC
:1000F000050C0008050C0008050C000800000000B5
:1001000000000000050C000800000000050C0008BD
:10011000050C000800000000050C0008050C000894
:10012000050C0008050C0008050C0008050C00086B
:10013000050C00080000000000000000050C00088D
:10014000050C0008050C0008050C00080000000064
:10015000000000000000000000000000000000009F
:10016000000000000000000000000000050C000876
:10017000050C000800000000000000000000000066
:1001800000000000050C0008000000000000000056
:1001900000000000050C0008000000000000000046
:1001A0000000000000000000050C0008050C00081D
:1001B000050C0008050C0008050C000800000000F4
:1001C00000000000050C0008000000000000000016
:0801D000050C0008050C0008F5
:1001D80010B5054C237833B9044B13B10448AFF379
:1001E80000800123237010BD0000002000000000E3
:1001F800500C000808B5034B1BB103490348AFF383
:10020800008008BD0000000004000020500C000819
:1002180080B487B000AFF860B9607A60FB68564A6E
:10022800934202D1554B7B610CE0FB68544A9342E0
:1002380002D1544B7B6105E0FB68534A934201D1DC
:10024800524B7B61FB689B6943F00102FB689A6132
:1002580000BFFB689B6903F00103002BF9D0FB6822
:100268009B6943F00202FB689A61FB689B6923F46F
:100278008072FB689A61FB689B6923F40072FB68D3
:100288009A61FB689B6923F40052FB689A61FB68DA
:100298009B6923F48052FB689A61FB689B6923F091
:1002A8002002FB689A61FB689B6923F00402FB68E3
:1002B8009A6100233B613B6943F0C0633B613B6942
:1002C80043F420633B613B6943F003033B613B69B3
:1002D80043F400233B61FB682D4ADA61FB6840F672
:1002E8003322DA607B685B78002B08D1FB68D3F88F
:1002F800DC3023F08072FB68C3F8DC2007E0FB6881
:10030800D3F8DC3043F08072FB68C3F8DC207B68EC
:100318001B78002B06D1FB689B6923F48042FB689D
:100328009A6105E0FB689B6943F48042FB689A6127
:100338007B689B78002B06D1FB689B6923F0400201
:10034800FB689A6105E0FB689B6943F04002FB6823
:100358009A61FB689B6923F00202FB689A61FB685B
:100368009B6923F00102FB689A6100BF1C37BD46F8
:100378005DF8047B704700BF0064004000A40040A3
:100388000068004000A80040006C004000AC00403D
:1003980001010F0090B486B000AF786039607B68C7
:1003A800794A934202D1794B7B610CE07B68784AA9
:1003B800934202D1774B7B6105E07B68764A934292
:1003C80001D1764B7B617B68D3F8E0301B0CDBB244
:1003D80003F00303BB7300233B613B689B79012B4C
:1003E80007D13B681B683B613B6943F080433B6135
:1003F80003E03B681B689B043B613B685B79012B0E
:1004080003D13B6943F000533B61BA7B79691346DA
:10041800DB001344DB000B4403F51E733A691A60D2
:10042800BA7B79691346DB001344DB000B4403F500
:100438001F731B68BA7B23F4000178691346DB003D
:100448001344DB00034403F51F731960BA7B796911
:100458001346DB001344DB000B4403F51F731B68D2
:10046800BA7B23F4001178691346DB001344DB00E0
:10047800034403F51F731960BA7B79691346DB00DF
:100488001344DB000B4403F51F731B68BA7B23F48A
:10049800801178691346DB001344DB00034403F53D
:1004A8001F731960BA7B79691346DB001344DB00BC
:1004B8000B4403F51F731B683A681279120411463E
:1004C800BA7B194378691346DB001344DB00034405
:1004D80003F51F731960BA7B79691346DB0013446F
:1004E800DB000B4403F5207300221A60BA7B79699C
:1004F8001346DB001344DB000B4403F52173002291
:100508001A600023FB732AE0BA7BFB7B9B08D8B2F6
:10051800044679691346DB0013445B002344A03387
:1005280051F823303A689168FA7B0A4412781146E8
:10053800FA7B02F00302D20001FA02F21146BA7BFA
:10054800044643EA010079691346DB0013445B0063
:100558002344A03341F82300FB7B0133FB733B6842
:100568001B79FA7B9A42CFD37B68D3F8E830BA7B01
:10057800012101FA02F21A437B68C3F8E82000BFA0
:100588001837BD4690BC70470064004000A4004086
:100598000068004000A80040006C004000AC00402B
:1005A80080B485B000AF0346FB710B46BB711346A0
:1005B8007B710023FB60FB79062B27D801A252F838
:1005C80023F000BFE9050008F1050008F705000859
:1005D800FD05000803060008090600080F060008C4
:1005E8004FF09043FB6012E0164BFB600FE0164B98
:1005F800FB600CE0154BFB6009E0154BFB6006E067
:10060800144BFB6003E0144BFB6000E000BFFB6889
:100618001B68BA795200032101FA02F2D2431A4048
:10062800FB681A60FB681B687979BA79520001FA8D
:1006380002F21A43FB681A6000BF1437BD465DF822
:10064800047B70470004004800080048000C00487C
:1006580000100048001400480018004890B484B006
:1006680000AF0446084611461A462346FB71034666
:10067800BB710B467B7113463B710023FB60FB7912
:10068800062B27D801A252F823F000BFB1060008B4
:10069800B9060008BF060008C5060008CB06000812
:1006A800D1060008D70600084FF09043FB6012E01F
:1006B800234BFB600FE0234BFB600CE0224BFB60FD
:1006C80009E0224BFB6006E0214BFB6003E0214B75
:1006D800FB6000E000BF7B79002B0AD1FB685B68F8
:1006E800BA79012101FA02F2D2431A40FB685A6032
:1006F8000BE07B79012B08D1FB685B68BA79012193
:1007080001FA02F21A43FB685A60FB689B68BA79DF
:100718005200032101FA02F2D2431A40FB689A60A0
:10072800FB689B683979BA79520001FA02F21A43D8
:10073800FB689A6000BF1037BD4690BC704700BF89
:100748000004004800080048000C00480010004859
:10075800001400480018004880B485B000AF034674
:10076800FB710B46BB7113467B710023FB60FB7961
:10077800062B27D801A252F823F000BFA1070008D2
:10078800A9070008AF070008B5070008BB0700085D
:10079800C1070008C70700084FF09043FB6012E04C
:1007A800164BFB600FE0164BFB600CE0154BFB6033
:1007B80009E0154BFB6006E0144BFB6003E0144BAB
:1007C800FB6000E000BFFB68DB68BA7952000321D8
:1007D80001FA02F2D2431A40FB68DA60FB68DB6870
:1007E8007979BA79520001FA02F21A43FB68DA60A1
:1007F80000BF1437BD465DF8047B7047000400480D
:1008080000080048000C0048001000480014004888
:100818000018004880B485B000AF03460A46FB7153
:100828001346BB710023FB60FB79062B26D801A277
:1008380052F823F059080008610800086708000802
:100848006D08000873080008790800087F08000888
:100858004FF09043FB6012E0104BFB600FE0104B31
:10086800FB600CE00F4BFB6009E00F4BFB6006E000
:100878000E4BFB6003E00E4BFB6000E000BFFB6823
:100888005B69BA79012101FA02F25A40FB685A61A0
:1008980000BF1437BD465DF8047B7047000400486C
:1008A80000080048000C00480010004800140048E8
:1008B8000018004880B485B000AF0346FB710B46B2
:1008C800BB7113467B710023FB60FB79062B27D88D
:1008D80001A252F823F000BFFD080008050900082E
:1008E8000B09000811090008170900081D0900086C
:1008F800230900084FF09043FB6012E0244BFB6093
:100908000FE0244BFB600CE0234BFB6009E0234B1A
:10091800FB6006E0224BFB6003E0224BFB6000E03B
:1009280000BFBB79072B15D8FB681B6ABA79920000
:100938000F2101FA02F2D2431A40FB681A62FB68DF
:100948001B6A7979BA79920001FA02F21A43FB68B4
:100958001A6216E0FB685B6ABA79083A92000F21BE
:1009680001FA02F2D2431A40FB685A62FB685B6ADA
:100978007979BA79083A920001FA02F21A43FB68C7
:100988005A6200BF1437BD465DF8047B704700BF4C
:100998000004004800080048000C00480010004807
:1009A800001400480018004880B582B000AF786095
:1009B8007B6818787B6859787B689B781A46FFF7BC
:1009C800EFFD7B6818787B6859787B68DA787B68F4
:1009D8001B79FFF743FE7B6818787B6859787B683A
:1009E8005B791A46FFF7B8FE7B6818787B685978F8
:1009F8007B689B791A46FFF75DFF00BF0837BD4645
:100A080080BD000080B592B000AF012387F8423066
:100A1800002387F84130002387F84030022387F805
:100A28003A30012387F83830082387F83930002313
:100A380087F83B30092387F83E30002387F83C309D
:100A4800022387F83230012387F83030092387F8EA
:100A58003130002387F83330092387F836300023F4
:100A680087F83430002387F82C30002387F82D309E
:100A7800002387F82E3001237B770123BB770223DD
:100A8800FB77022387F82030234A07F1140392E802
:100A9800030083E8030007F114037B6207F11403E2
:100AA800BB6201233B771D4A3B4692E8030083E87B
:100AB80003003B463B6108233B730923BB600023CB
:100AC800BB7300237B7300F02DF807F13003184641
:100AD800FFF76AFF07F138031846FFF765FF07F1CC
:100AE80040031846FFF760FF07F12C0207F11C03CB
:100AF80019460B48FFF78CFB07F10803194608480D
:100B0800FFF748FC00210020FFF784FE4FF4FA703D
:100B180000F02CF8F0E700BF680C0008700C000823
:100B28000064004080B400AF0F4BD3F888300E4A01
:100B380043F00073C2F888300B4BDB6C0A4A43F071
:100B48000103D364084BDB6C074A43F00203D36408
:100B5800054B9B6D044A43F00073936500BFBD4687
:100B68005DF8047B704700BF0010024080B485B078
:100B780000AF78600023FB600CE00023BB6002E05C
:100B8800BB680133BB60BB68B3F5876FF8D3FB68FC
:100B98000133FB60FA687B689A42EED300BF00BF5E
:100BA8001437BD465DF8047B704700000D48854644
:100BB800AFF300800C480D490D4A002302E0D458D9
:100BC800C4500433C4188C42F9D30A4A0A4C00238F
:100BD80001E013600432A242FBD300F011F8FFF7E2
:100BE80011FFFEE700800020000000200000002028
:100BF800800C0008000000201C000020FEE7000018
:100C080070B50D4D0D4C641BA4100026A64209D1E9
:100C18000B4D0C4C00F018F8641BA4100026A642DB
:100C280005D170BD55F8043B98470136EEE755F8F5
:100C3800043B98470136F2E7780C0008780C000866
:100C4800780C00087C0C0008F8B500BFF8BC08BC9C
:100C58009E467047F8B500BFF8BC08BC9E46704772
:100C6800300000003100000048656C6C6F20484976
:040C7800FD01000872
:040C7C00D901000892
:0400000508000BB52F
:00000001FF
