:020000040800F2
:10000000008000204D1400089D1400089D14000875
:100010009D1400089D1400089D14000800000000B5
:100020000000000000000000000000009D14000817
:100030009D140008000000009D1400089D14000895
:100040009D1400089D1400089D1400089D140008CC
:100050009D1400089D1400089D1400089D140008BC
:100060009D1400089D1400089D1400089D140008AC
:100070009D1400089D1400089D1400089D1400089C
:100080009D140008000000009D1400089D14000845
:100090009D1400089D1400089D1400089D1400087C
:1000A0009D1400089D1400089D1400089D1400086C
:1000B0009D1400089D1400089D1400089D1400085C
:1000C0009D1400089D1400089D1400089D1400084C
:1000D0009D1400089D1400089D1400089D1400083C
:1000E0009D1400089D1400089D1400089D1400082C
:1000F0009D1400089D1400089D14000800000000D5
:10010000000000009D140008000000009D1400087D
:100110009D140008000000009D1400089D140008B4
:100120009D1400089D1400089D1400089D140008EB
:100130009D14000800000000000000009D1400084D
:100140009D1400089D1400089D1400080000000084
:10015000000000000000000000000000000000009F
:100160000000000000000000000000009D140008D6
:100170009D140008000000000000000000000000C6
:10018000000000009D1400080000000000000000B6
:10019000000000009D1400080000000000000000A6
:1001A00000000000000000009D1400089D140008DD
:1001B0009D1400089D1400089D1400080000000014
:1001C000000000009D140008000000000000000076
:0801D0009D1400089D140008B5
:1001D80010B5054C237833B9044B13B10448AFF379
:1001E80000800123237010BD0000002000000000E3
:1001F800E814000808B5034B1BB103490348AFF3E3
:10020800008008BD0000000004000020E814000879
:1002180080B48BB000AFF860B9607A60FB68A04A20
:10022800934202D19F4B7B620CE0FB689E4A93424B
:1002380002D19E4B7B6205E0FB689D4A934201D147
:100248009C4B7B62FB689B6943F00102FB689A61E7
:1002580000BFFB689B6903F00103002BF9D0FB6822
:100268009B6943F00202FB689A61FB689B6923F46F
:100278008072FB689A61FB689B6923F40072FB68D3
:100288009A61FB689B6923F40052FB689A61FB68DA
:100298009B6923F48052FB689A61FB689B6923F091
:1002A8002002FB689A61FB689B6923F00402FB68E3
:1002B8009A610023BB61BB6943F0C063BB61BB6942
:1002C80043F42063BB61BB6943F00303BB61BB69B3
:1002D80043F44033BB61FB68BA69DA61BB681B78D9
:1002E800002B08D1FB68D3F8803023F03002FB687C
:1002F800C3F880201CE0BB681B78012B10D1FB6879
:10030800D3F8803023F03002FB68C3F88020FB6804
:10031800D3F8803043F01002FB68C3F8802007E070
:10032800FB68D3F8803043F03002FB68C3F88020C4
:10033800BB685B78002B08D1FB68D3F8803023F4C6
:100348000072FB68C3F8802007E0FB68D3F88030B0
:1003580043F40072FB68C3F88020BB689B78002BCD
:1003680008D1FB68D3F8803023F48072FB68C3F8A7
:10037800802007E0FB68D3F8803043F48072FB6884
:10038800C3F88020FB68D3F8803023F4F812FB68A8
:10039800C3F88020FB68D3F88030BA68D278114659
:1003A800BA6812790A4412041A43FB68C3F8802019
:1003B8007B6A3B620023FB7708E03B6A00221A60F5
:1003C8003B6A04333B62FB7F0133FB77FB7FD32B14
:1003D800F3D90023BB7700237B7723E0BB689A68B7
:1003E8007B7F9B0013441B687B61BB689A687B7F9B
:1003F8009B0013441B681B047A6913437B617B6968
:1004080043F000637B617B6943F080437B61BB7F82
:100418005A1CBA7719467B6A7A6943F821207B7F90
:1004280001337B77BB68DB787A7F9A42D6D3002387
:100438003B7723E0BB68DA683B7F9B0013441B686B
:100448007B61BB68DA683B7F9B0013441B681B0415
:100458007A6913437B617B6943F080537B617B69D5
:1004680043F080437B61BB7F5A1CBA7719467B6A8D
:100478007A6943F821203B7F01333B77BB681B79BE
:100488003A7F9A42D6D37B685B78002B14D1FB68FD
:10049800D3F8C03023F08072FB68C3F8C02013E0A3
:1004A8000064004000A400400068004000A800402C
:1004B800006C004000AC0040FB68D3F8C03043F04B
:1004C8008072FB68C3F8C0207B681B78002B06D1BC
:1004D800FB689B6923F48042FB689A6105E0FB682E
:1004E8009B6943F48042FB689A617B689B78002B88
:1004F80006D1FB689B6923F04002FB689A6105E01E
:10050800FB689B6943F04002FB689A61FB689B6942
:1005180023F00202FB689A61FB689B6923F00102E1
:10052800FB689A6100BF2C37BD465DF8047B7047B5
:1005380080B487B000AFF860B9601346FB71FB6800
:10054800984A934202D1984B7B610CE0FB68974A2A
:10055800934202D1964B7B6105E0FB68954A934232
:1005680001D1954B7B61FB79002B40F08580FB68BE
:10057800D3F890301B0ADBB203F003033B743A7CD8
:1005880079691346DB001344DB000B44B0331B6866
:100598009B0FDBB203F00103DAB2BB689A713A7CB5
:1005A80079691346DB001344DB000B44B0331B6846
:1005B8005B0FDBB203F00103DAB2BB685A71BB68A8
:1005C8009B79002B0ED13A7C79691346DB001344E2
:1005D800DB000B44B0331B689B0CC3F30A02BB68F7
:1005E8001A600CE03A7C79691346DB001344DB009F
:1005F8000B44B0331B6823F06042BB681A60BB68C9
:100608005B79002B33D13A7C79691346DB001344BC
:10061800DB000B44B4331B681B0CDBB203F00F0385
:10062800DAB2BB681A710023FB741BE03A7CFB7CCE
:100638009B08DBB2184679691346DB0013445B005C
:1006480003442E3351F82320FB7C03F00303DB0023
:10065800DA40FB7CD1B2BA6813440A46DA71FB7CF3
:100668000133FB74BB681B79FA7C9A42DED33A7C6F
:10067800FB68C3F894208FE0FB68D3F898301B0A16
:10068800DBB203F003037B747A7C79691346DB00E1
:100698001344DB000B4403F5C4731B689B0FDBB2E8
:1006A80003F00103DAB2BB689A717A7C7969134660
:1006B800DB001344DB000B4403F5C4731B685B0FBA
:1006C800DBB203F00103DAB2BB685A71BB689B79ED
:1006D800002B0FD17A7C79691346DB001344DB00C9
:1006E8000B4403F5C4731B689B0CC3F30A02BB6875
:1006F8001A600DE07A7C79691346DB001344DB004D
:100708000B4403F5C4731B6823F06042BB681A608E
:10071800BB685B79002B34D17A7C79691346DB009E
:100728001344DB000B4403F5C6731B681B0CDBB2D8
:1007380003F00F03DAB2BB681A710023BB741BE025
:100748007A7CBB7C9B08DBB2184679691346DB00D0
:1007580013445B000344643351F82320BB7C03F04B
:100768000303DB00DA40BB7CD1B2BA6813440A4603
:10077800DA71BB7C0133BB74BB681B79BA7C9A42C3
:10078800DED3FB68D3F89C307A7C012101FA02F2AF
:100798001A43FB68C3F89C2000BF1C37BD465DF8B0
:1007A800047B70470064004000A4004000680040DB
:1007B80000A80040006C004000AC004080B485B048
:1007C80000AF78600B46FB70FB78002B07D17B6885
:1007D800D3F89030DBB203F00F03FB7306E07B68BD
:1007E800D3F89830DBB203F00F03FB73FB7B18469A
:1007F8001437BD465DF8047B7047000080B489B0AB
:1008080000AF786039607B68544A934202D1544BF8
:10081800FB610CE07B68534A934202D1524BFB6167
:1008280005E07B68514A934201D1514BFB617B68DB
:10083800D3F8C4301B0CDBB203F00303BB730023F3
:10084800BB613B689B79012B07D13B681B68BB6187
:10085800BB6943F08043BB6103E03B681B689B04B2
:10086800BB613B685B79012B06D1BB6943F0005340
:10087800BB613B6800221A71BA7BF9691346DB0039
:100888001344DB000B4403F51E73BA691A603B6816
:100898001B791B04BA7B1846F9691346DB0013441D
:1008A800DB000B4403F51F73186000237B610023F2
:1008B8003B610023FB7324E0FB7B032B0FD8FB7BFE
:1008C8003A681344DB791A46FB7B03F00303DB0029
:1008D80002FA03F31A467B6913437B610EE0FB7B44
:1008E8003A681344DB791A46FB7B03F00303DB0009
:1008F80002FA03F31A463B6913433B61FB7B01335E
:10090800FB733B681B79FA7B9A42D5D3BA7BF969AA
:100918001346DB001344DB000B4403F520737A69AC
:100928001A60BA7BF9691346DB001344DB000B44F9
:1009380003F521733A691A607B68D3F8CC30BA7B27
:10094800012101FA02F21A437B68C3F8CC2000BFE8
:100958002437BD465DF8047B704700BF0064004043
:1009680000A400400068004000A80040006C00405F
:1009780000AC004080B485B000AF0346FB710B4665
:10098800BB7113467B710023FB60FB79062B27D8CC
:1009980001A252F823F000BFBD090008C5090008EC
:1009A800CB090008D1090008D7090008DD090008AB
:1009B800E30900084FF09043FB6012E0164BFB6020
:1009C8000FE0164BFB600CE0154BFB6009E0154B84
:1009D800FB6006E0144BFB6003E0144BFB6000E097
:1009E80000BFFB681B68BA795200032101FA02F2C2
:1009F800D2431A40FB681A60FB681B687979BA7998
:100A0800520001FA02F21A43FB681A6000BF143759
:100A1800BD465DF8047B70470004004800080048A4
:100A2800000C004800100048001400480018004856
:100A380090B484B000AF0446084611461A462346CF
:100A4800FB710346BB710B467B7113463B71002358
:100A5800FB60FB79062B27D801A252F823F000BFD0
:100A6800850A00088D0A0008930A0008990A0008F8
:100A78009F0A0008A50A0008AB0A00084FF0904337
:100A8800FB6012E0234BFB600FE0234BFB600CE0A4
:100A9800224BFB6009E0224BFB6006E0214BFB6028
:100AA80003E0214BFB6000E000BF7B79002B0AD1FB
:100AB800FB685B68BA79012101FA02F2D2431A4055
:100AC800FB685A600BE07B79012B08D1FB685B68F7
:100AD800BA79012101FA02F21A43FB685A60FB68ED
:100AE8009B68BA795200032101FA02F2D2431A40F4
:100AF800FB689A60FB689B683979BA79520001FAF9
:100B080002F21A43FB689A6000BF1037BD4690BCDA
:100B1800704700BF0004004800080048000C004867
:100B280000100048001400480018004880B485B040
:100B380000AF0346FB710B46BB7113467B71002364
:100B4800FB60FB79062B27D801A252F823F000BFDF
:100B5800750B00087D0B0008830B0008890B000843
:100B68008F0B0008950B00089B0B00084FF0904373
:100B7800FB6012E0194BFB600FE0194BFB600CE0C7
:100B8800184BFB6009E0184BFB6006E0174BFB6055
:100B980003E0174BFB6000E000BF7B79012B09D114
:100BA800FB685B69BA79012101FA02F21A43FB6812
:100BB8005A610CE07B79002B09D1FB685B69BA7933
:100BC800012101FA02F2D2431A40FB685A6100BFC0
:100BD8001437BD465DF8047B704700BF0004004829
:100BE80000080048000C00480010004800140048A5
:100BF8000018004880B485B000AF0346FB710B466F
:100C0800BB7113467B710023FB60FB79062B27D849
:100C180001A252F823F000BF3D0C0008450C000863
:100C28004B0C0008510C0008570C00085D0C00081C
:100C3800630C00084FF09043FB6012E0164BFB601A
:100C48000FE0164BFB600CE0154BFB6009E0154B01
:100C5800FB6006E0144BFB6003E0144BFB6000E014
:100C680000BFFB68DB68BA795200032101FA02F27F
:100C7800D2431A40FB68DA60FB68DB687979BA7995
:100C8800520001FA02F21A43FB68DA6000BF143717
:100C9800BD465DF8047B7047000400480008004822
:100CA800000C0048001000480014004800180048D4
:100CB80080B485B000AF0346FB710B46BB71134689
:100CC8007B710023FB60FB79062B27D801A252F821
:100CD80023F000BFF90C0008010D0008070D0008FB
:100CE8000D0D0008130D0008190D00081F0D000850
:100CF8004FF09043FB6012E0244BFB600FE0244B65
:100D0800FB600CE0234BFB6009E0234BFB6006E033
:100D1800224BFB6003E0224BFB6000E000BFBB7985
:100D2800072B15D8FB681B6ABA7992000F2101FAC4
:100D380002F2D2431A40FB681A62FB681B6A79798F
:100D4800BA79920001FA02F21A43FB681A6216E0B5
:100D5800FB685B6ABA79083A92000F2101FA02F23D
:100D6800D2431A40FB685A62FB685B6A7979BA79A0
:100D7800083A920001FA02F21A43FB685A6200BF6D
:100D88001437BD465DF8047B704700BF0004004877
:100D980000080048000C00480010004800140048F3
:100DA8000018004880B582B000AF78607B6818787A
:100DB8007B6859787B689B781A46FFF7DBFD7B6870
:100DC80018787B6859787B68DA787B681B79FFF735
:100DD8002FFE7B6818787B6859787B685B791A46A0
:100DE800FFF708FF7B6818787B6859787B689B79E0
:100DF8001A46FFF75DFF00BF0837BD4680BD0000FB
:100E080080B400AF2A4B00221A60294B00225A6096
:100E1800274B00229A60264B0022DA60244B0022DE
:100E2800C3F89020224B0022C3F89420204B0022C4
:100E3800C3F898201E4B1B681D4A43F48073136047
:100E48001B4B1B681A4A43F400731360184B1B684A
:100E5800174A43F480331360154B1B68144A43F454
:100E680080231360124B5B68114A43F08043536040
:100E78000F4B9B680E4A43F0010393600C4B0C4ADE
:100E88009B6893600A4B0A4A9B689360084B084A20
:100E98009B689360064B064A9B689360044B044A20
:100EA8009B68936000BFBD465DF8047B704700BF38
:100EB8000010024080B483B000AF03460A46FB71BD
:100EC8001346BB71FB79052B50D801A252F823F0C9
:100ED800F10E0008070F00081D0F0008330F000867
:100EE800490F00085F0F0008234B9B6CBA7901215A
:100EF80001FA02F21146204A0B43936436E01E4B76
:100F0800DB6CBA79012101FA02F211461A4A0B4345
:100F1800D3642BE0184B1B6DBA79012101FA02F258
:100F28001146154A0B43136520E0134B9B6DBA79A4
:100F3800012101FA02F211460F4A0B43936515E0AD
:100F48000D4BDB6DBA79012101FA02F211460A4A0A
:100F58000B43D3650AE0084B1B6EBA79012101FAED
:100F680002F21146044A0B43136600BF00BF0C3758
:100F7800BD465DF8047B70470010024080B59AB00A
:100F880000AFFFF73DFFCC4BD3F88830CA4A43F097
:100F98000073C2F8883000210120FFF78BFF012180
:100FA8000120FFF787FF02210120FFF783FF1921A6
:100FB8000320FFF77FFF00F087F900F0E5F9002331
:100FC80087F82A3008237B62002387F82930082312
:100FD80087F82830482387F82B30652387F82C308A
:100FE8006C2387F82D306C2387F82E306F2387F811
:100FF8002F30202387F83030482387F83130692391
:1010080087F83230002387F83A3009237B630023BE
:1010180087F83930052387F83830482387F83B307C
:10102800652387F83C306C2387F83D306C2387F8BC
:101038003E306F2387F83F30202387F8403048231D
:1010480087F84130692387F84230002387F84A300F
:101058000F237B64012387F84930052387F848303C
:101068004D2387F84B30612387F84C30682387F885
:101078004D306D2387F84E306F2387F84F30752336
:1010880087F85030642387F85130302387F852307E
:10109800002387F85A300F237B65012387F85930DE
:1010A8000023BB7200237B72012203210020FFF77B
:1010B8003DFD012209210020FFF738FD01220A2108
:1010C8000020FFF733FD01220D210220FFF72EFD3E
:1010D800002387F86730794A3B4612681146198021
:1010E8000233120C1A7000217548FFF767FB03469C
:1010F800002BF8D007F11403002219467048FFF7B7
:1011080017FA7B7E012B67D17B697B607B69092B92
:1011180003D13B7887F8663015E07B690A2B03D149
:101128007B7887F866300EE07B69032B03D1BB78A8
:1011380087F8663007E0052387F8663097F8673048
:10114800013387F8673097F86630002B08D10323FE
:101158003B724F23FB7246233B7346237B7335E078
:1011680097F86630012B06D102233B724F23FB729E
:101178004E233B732AE097F86630052B26D197F863
:101188006730092B07D801233B7297F86730303353
:10119800DBB2FB721AE002233B7297F86730494AC8
:1011A800A2FB0323DB08DBB23033DBB2FB7297F818
:1011B8006720444BA3FB0213D9080B469B000B4442
:1011C8005B00D31ADBB23033DBB2FB723B1D19462E
:1011D8003B48FFF713FB86E73B7E052B83D9FB7E55
:1011E800742B80D13B7F752B7FF47DAF7B7F722B77
:1011F8007FF479AFBB7F6E2B7FF475AFFB7F4F2BEE
:101208007FF471AF3B7E062B24D197F820304E2B0C
:1012180020D17B69092B07D101233B7000220921CA
:101228000020FFF783FC45E07B690A2B07D10123E7
:101238007B7000220A210020FFF778FC3AE07B69E6
:10124800032B37D10123BB70002203210020FFF7B5
:101258006DFC2FE03B7E072B7FF445AF97F82030DD
:10126800462B7FF440AF97F82130462B7FF43BAFF5
:101278007B69092B07D100233B700122092100203B
:10128800FFF754FC2FE77B690A2B07D100237B70FB
:1012980001220A210020FFF749FC24E77B69032B80
:1012A8007FF421AF0023BB70012203210020FFF748
:1012B8003DFC18E700BF16E70010024000150008C3
:1012C80000640040CDCCCCCC80B58AB000AF07F12B
:1012D800200300221A60C3F80320022387F8213074
:1012E800012387F82230092387F8263007F11803ED
:1012F80000221A60C3F8032003237B760123BB7600
:101308000923BB7707F1100300221A60C3F80320F2
:1013180009237B740123BB740923BB7507F10803F8
:1013280000221A60C3F803200A237B720123BB72D0
:101338000923BB733B4600221A60C3F8032002232B
:101348003B700D237B700123BB700923BB7107F130
:1013580010031846FFF726FD07F108031846FFF7A4
:1013680021FD07F120031846FFF71CFD07F11803BC
:101378001846FFF717FD3B461846FFF713FD00BF59
:101388002837BD4680BD000090B58FB000AF07F18B
:10139800300300221A60C3F80320012387F8303095
:1013A800092387F83130022387F83230092387F878
:1013B800363007F1280300221A60C3F803200123FE
:1013C80087F82830082387F82930022387F82A303D
:1013D800092387F82E30012387F82630002387F861
:1013E8002530002387F8243001237B750123BB7542
:1013F8000423FB7500233B76104B3C1D0FCB84E880
:101408000F003B1DFB6100233B6202233B7507F184
:1014180030031846FFF7C6FC07F128031846FFF704
:10142800C1FC07F1240207F1140319460448FEF72A
:10143800EFFE00BF3C37BD4690BD00BF0415000855
:10144800006400400D488546AFF300800C480D4904
:101458000D4A002302E0D458C4500433C4188C4207
:10146800F9D30A4A0A4C002301E013600432A2426D
:10147800FBD300F011F8FFF781FDFEE700800020A4
:1014880000000020000000201C15000800000020BB
:101498001C000020FEE7000070B50D4D0D4C641BCC
:1014A800A4100026A64209D10B4D0C4C00F018F8E8
:1014B800641BA4100026A64205D170BD55F8043B54
:1014C80098470136EEE755F8043B98470136F2E7AE
:1014D800141500081415000814150008181500083C
:1014E800F8B500BFF8BC08BC9E467047F8B500BF09
:0814F800F8BC08BC9E467047D9
:101500000000000003000000090000000A000000C5
:041510000F000000C8
:04151400FD010008CD
:04151800D9010008ED
:040000050800144D8E
:00000001FF
