:020000040800F2
:100000000080002069120008B9120008B912000827
:10001000B9120008B9120008B91200080000000067
:10002000000000000000000000000000B9120008FD
:10003000B912000800000000B9120008B912000847
:10004000B9120008B9120008B9120008B912000864
:10005000B9120008B9120008B9120008B912000854
:10006000B9120008B9120008B9120008B912000844
:10007000B9120008B9120008B9120008B912000834
:10008000B912000800000000B9120008B9120008F7
:10009000B9120008B9120008B9120008B912000814
:1000A000B9120008B9120008B9120008B912000804
:1000B000B9120008B9120008B9120008B9120008F4
:1000C000B9120008B9120008B9120008B9120008E4
:1000D000B9120008B9120008B9120008B9120008D4
:1000E000B9120008B9120008B9120008B9120008C4
:1000F000B9120008B9120008B91200080000000087
:1001000000000000B912000800000000B912000849
:10011000B912000800000000B9120008B912000866
:10012000B9120008B9120008B9120008B912000883
:10013000B91200080000000000000000B912000819
:10014000B9120008B9120008B91200080000000036
:10015000000000000000000000000000000000009F
:10016000000000000000000000000000B9120008BC
:10017000B9120008000000000000000000000000AC
:1001800000000000B912000800000000000000009C
:1001900000000000B912000800000000000000008C
:1001A0000000000000000000B9120008B9120008A9
:1001B000B9120008B9120008B912000800000000C6
:1001C00000000000B912000800000000000000005C
:0801D000B9120008B912000881
:1001D80010B5054C237833B9044B13B10448AFF379
:1001E80000800123237010BD0000002000000000E3
:1001F8000413000808B5034B1BB103490348AFF3C8
:10020800008008BD0000000004000020041300085E
:1002180080B48BB000AFF860B9607A60FB68A04A20
:10022800934202D19F4B7B620CE0FB689E4A93424B
:1002380002D19E4B7B6205E0FB689D4A934201D147
:100248009C4B7B62FB689B6943F00102FB689A61E7
:1002580000BFFB689B6903F00103002BF9D0FB6822
:100268009B6943F00202FB689A61FB689B6923F46F
:100278008072FB689A61FB689B6923F40072FB68D3
:100288009A61FB689B6923F40052FB689A61FB68DA
:100298009B6923F48052FB689A61FB689B6923F091
:1002A8002002FB689A61FB689B6923F00402FB68E3
:1002B8009A610023BB61BB6943F0C063BB61BB6942
:1002C80043F42063BB61BB6943F00303BB61BB69B3
:1002D80043F44033BB61FB68BA69DA61BB681B78D9
:1002E800002B08D1FB68D3F8803023F03002FB687C
:1002F800C3F880201CE0BB681B78012B10D1FB6879
:10030800D3F8803023F03002FB68C3F88020FB6804
:10031800D3F8803043F01002FB68C3F8802007E070
:10032800FB68D3F8803043F03002FB68C3F88020C4
:10033800BB685B78002B08D1FB68D3F8803023F4C6
:100348000072FB68C3F8802007E0FB68D3F88030B0
:1003580043F40072FB68C3F88020BB689B78002BCD
:1003680008D1FB68D3F8803023F48072FB68C3F8A7
:10037800802007E0FB68D3F8803043F48072FB6884
:10038800C3F88020FB68D3F8803023F4F812FB68A8
:10039800C3F88020FB68D3F88030BA68D278114659
:1003A800BA6812790A4412041A43FB68C3F8802019
:1003B8007B6A3B620023FB7708E03B6A00221A60F5
:1003C8003B6A04333B62FB7F0133FB77FB7FD32B14
:1003D800F3D90023BB7700237B7723E0BB689A68B7
:1003E8007B7F9B0013441B687B61BB689A687B7F9B
:1003F8009B0013441B681B047A6913437B617B6968
:1004080043F000637B617B6943F080437B61BB7F82
:100418005A1CBA7719467B6A7A6943F821207B7F90
:1004280001337B77BB68DB787A7F9A42D6D3002387
:100438003B7723E0BB68DA683B7F9B0013441B686B
:100448007B61BB68DA683B7F9B0013441B681B0415
:100458007A6913437B617B6943F080537B617B69D5
:1004680043F080437B61BB7F5A1CBA7719467B6A8D
:100478007A6943F821203B7F01333B77BB681B79BE
:100488003A7F9A42D6D37B685B78002B14D1FB68FD
:10049800D3F8C03023F08072FB68C3F8C02013E0A3
:1004A8000064004000A400400068004000A800402C
:1004B800006C004000AC0040FB68D3F8C03043F04B
:1004C8008072FB68C3F8C0207B681B78002B06D1BC
:1004D800FB689B6923F48042FB689A6105E0FB682E
:1004E8009B6943F48042FB689A617B689B78002B88
:1004F80006D1FB689B6923F04002FB689A6105E01E
:10050800FB689B6943F04002FB689A61FB689B6942
:1005180023F00202FB689A61FB689B6923F00102E1
:10052800FB689A6100BF2C37BD465DF8047B7047B5
:1005380080B487B000AFF860B9601346FB71FB6800
:10054800984A934202D1984B7B610CE0FB68974A2A
:10055800934202D1964B7B6105E0FB68954A934232
:1005680001D1954B7B61FB79002B40F08580FB68BE
:10057800D3F890301B0ADBB203F003033B743A7CD8
:1005880079691346DB001344DB000B44B0331B6866
:100598009B0FDBB203F00103DAB2BB689A713A7CB5
:1005A80079691346DB001344DB000B44B0331B6846
:1005B8005B0FDBB203F00103DAB2BB685A71BB68A8
:1005C8009B79002B0ED13A7C79691346DB001344E2
:1005D800DB000B44B0331B689B0CC3F30A02BB68F7
:1005E8001A600CE03A7C79691346DB001344DB009F
:1005F8000B44B0331B6823F06042BB681A60BB68C9
:100608005B79002B33D13A7C79691346DB001344BC
:10061800DB000B44B4331B681B0CDBB203F00F0385
:10062800DAB2BB681A710023FB741BE03A7CFB7CCE
:100638009B08DBB2184679691346DB0013445B005C
:1006480003442E3351F82320FB7C03F00303DB0023
:10065800DA40FB7CD1B2BA6813440A46DA71FB7CF3
:100668000133FB74BB681B79FA7C9A42DED33A7C6F
:10067800FB68C3F894208FE0FB68D3F898301B0A16
:10068800DBB203F003037B747A7C79691346DB00E1
:100698001344DB000B4403F5C4731B689B0FDBB2E8
:1006A80003F00103DAB2BB689A717A7C7969134660
:1006B800DB001344DB000B4403F5C4731B685B0FBA
:1006C800DBB203F00103DAB2BB685A71BB689B79ED
:1006D800002B0FD17A7C79691346DB001344DB00C9
:1006E8000B4403F5C4731B689B0CC3F30A02BB6875
:1006F8001A600DE07A7C79691346DB001344DB004D
:100708000B4403F5C4731B6823F06042BB681A608E
:10071800BB685B79002B34D17A7C79691346DB009E
:100728001344DB000B4403F5C6731B681B0CDBB2D8
:1007380003F00F03DAB2BB681A710023BB741BE025
:100748007A7CBB7C9B08DBB2184679691346DB00D0
:1007580013445B000344643351F82320BB7C03F04B
:100768000303DB00DA40BB7CD1B2BA6813440A4603
:10077800DA71BB7C0133BB74BB681B79BA7C9A42C3
:10078800DED3FB68D3F89C307A7C012101FA02F2AF
:100798001A43FB68C3F89C2000BF1C37BD465DF8B0
:1007A800047B70470064004000A4004000680040DB
:1007B80000A80040006C004000AC004080B485B048
:1007C80000AF78600B46FB70FB78002B07D17B6885
:1007D800D3F89030DBB203F00F03FB7306E07B68BD
:1007E800D3F89830DBB203F00F03FB73FB7B18469A
:1007F8001437BD465DF8047B7047000080B485B0AF
:1008080000AF0346FB710B46BB7113467B71002397
:10081800FB60FB79062B27D801A252F823F000BF12
:10082800450800084D080008530800085908000842
:100838005F080008650800086B0800084FF090433F
:10084800FB6012E0164BFB600FE0164BFB600CE000
:10085800154BFB6009E0154BFB6006E0144BFB6091
:1008680003E0144BFB6000E000BFFB681B68BA792B
:100878005200032101FA02F2D2431A40FB681A60BF
:10088800FB681B687979BA79520001FA02F21A43B7
:10089800FB681A6000BF1437BD465DF8047B7047DB
:1008A8000004004800080048000C004800100048F8
:1008B800001400480018004890B484B000AF044603
:1008C800084611461A462346FB710346BB710B4680
:1008D8007B7113463B710023FB60FB79062B27D8FD
:1008E80001A252F823F000BF0D09000815090008FD
:1008F8001B09000821090008270900082D0900081C
:10090800330900084FF09043FB6012E0234BFB6073
:100918000FE0234BFB600CE0224BFB6009E0224B0D
:10092800FB6006E0214BFB6003E0214BFB6000E02D
:1009380000BF7B79002B0AD1FB685B68BA7901217B
:1009480001FA02F2D2431A40FB685A600BE07B7945
:10095800012B08D1FB685B68BA79012101FA02F220
:100968001A43FB685A60FB689B68BA7952000321F6
:1009780001FA02F2D2431A40FB689A60FB689B684E
:100988003979BA79520001FA02F21A43FB689A607F
:1009980000BF1037BD4690BC704700BF0004004838
:1009A80000080048000C00480010004800140048E7
:1009B8000018004880B485B000AF0346FB710B46B1
:1009C800BB7113467B710023FB60FB79062B27D88C
:1009D80001A252F823F000BFFD090008050A00082B
:1009E8000B0A0008110A0008170A00081D0A000867
:1009F800230A00084FF09043FB6012E0194BFB609C
:100A08000FE0194BFB600CE0184BFB6009E0184B3A
:100A1800FB6006E0174BFB6003E0174BFB6000E050
:100A280000BF7B79012B09D1FB685B69BA79012189
:100A380001FA02F21A43FB685A610CE07B79002B39
:100A480009D1FB685B69BA79012101FA02F2D24344
:100A58001A40FB685A6100BF1437BD465DF8047B35
:100A6800704700BF0004004800080048000C004818
:100A780000100048001400480018004880B485B0F1
:100A880000AF0346FB710B46BB7113467B71002315
:100A9800FB60FB79062B27D801A252F823F000BF90
:100AA800C50A0008CD0A0008D30A0008D90A0008B8
:100AB800DF0A0008E50A0008EB0A00084FF0904337
:100AC800FB6012E0164BFB600FE0164BFB600CE07E
:100AD800154BFB6009E0154BFB6006E0144BFB600F
:100AE80003E0144BFB6000E000BFFB68DB68BA79E9
:100AF8005200032101FA02F2D2431A40FB68DA607D
:100B0800FB68DB687979BA79520001FA02F21A4374
:100B1800FB68DA6000BF1437BD465DF8047B704798
:100B28000004004800080048000C00480010004875
:100B3800001400480018004880B485B000AF034690
:100B48000A46FB711346BB710023FB60FB79062B39
:100B580026D801A252F823F07D0B0008850B000867
:100B68008B0B0008910B0008970B00089D0B0008E1
:100B7800A30B00084FF09043FB6012E0104BFB60A2
:100B88000FE0104BFB600CE00F4BFB6009E00F4BD4
:100B9800FB6006E00E4BFB6003E00E4BFB6000E0E1
:100BA80000BFFB685B69BA79012101FA02F25A4079
:100BB800FB685A6100BF1437BD465DF8047B704777
:100BC8000004004800080048000C004800100048D5
:100BD800001400480018004880B485B000AF0346F0
:100BE800FB710B46BB7113467B710023FB60FB79DD
:100BF800062B27D801A252F823F000BF210C0008C9
:100C0800290C00082F0C0008350C00083B0C0008C4
:100C1800410C0008470C00084FF09043FB6012E0BD
:100C2800244BFB600FE0244BFB600CE0234BFB6084
:100C380009E0234BFB6006E0224BFB6003E0224BFC
:100C4800FB6000E000BFBB79072B15D8FB681B6A67
:100C5800BA7992000F2101FA02F2D2431A40FB68D6
:100C68001A62FB681B6A7979BA79920001FA02F272
:100C78001A43FB681A6216E0FB685B6ABA79083A9D
:100C880092000F2101FA02F2D2431A40FB685A621D
:100C9800FB685B6A7979BA79083A920001FA02F23C
:100CA8001A43FB685A6200BF1437BD465DF8047BDF
:100CB800704700BF0004004800080048000C0048C6
:100CC80000100048001400480018004880B582B0A1
:100CD80000AF78607B6818787B6859787B689B7868
:100CE8001A46FFF78BFD7B6818787B6859787B6814
:100CF800DA787B681B79FFF7DFFD7B6818787B68FB
:100D080059787B685B791A46FFF7B8FE7B681878D4
:100D18007B6859787B689B791A46FFF75DFF00BFAF
:100D28000837BD4680BD000080B400AF2A4B0022C2
:100D38001A60294B00225A60274B00229A60264BE2
:100D48000022DA60244B0022C3F89020224B0022B4
:100D5800C3F89420204B0022C3F898201E4B1B6830
:100D68001D4A43F4807313601B4B1B681A4A43F4F3
:100D780000731360184B1B68174A43F480331360E1
:100D8800154B1B68144A43F480231360124B5B68AD
:100D9800114A43F0804353600F4B9B680E4A43F05F
:100DA800010393600C4B0C4A9B6893600A4B0A4AF8
:100DB8009B689360084B084A9B689360064B064AF9
:100DC8009B689360044B044A9B68936000BFBD46D0
:100DD8005DF8047B704700BF0010024080B483B008
:100DE80000AF03460A46FB711346BB71FB79052B1E
:100DF80050D801A252F823F0190E00082F0E00084F
:100E0800450E00085B0E0008710E0008870E0008EA
:100E1800234B9B6CBA79012101FA02F21146204A50
:100E28000B43936436E01E4BDB6CBA79012101FA5F
:100E380002F211461A4A0B43D3642BE0184B1B6D80
:100E4800BA79012101FA02F21146154A0B431365DA
:100E580020E0134B9B6DBA79012101FA02F2114689
:100E68000F4A0B43936515E00D4BDB6DBA790121F1
:100E780001FA02F211460A4A0B43D3650AE0084B0D
:100E88001B6EBA79012101FA02F21146044A0B439A
:100E9800136600BF00BF0C37BD465DF8047B704782
:100EA8000010024080B596B000AFFFF73DFF8C4BB5
:100EB800D3F888308A4A43F00073C2F8883000219A
:100EC8000120FFF78BFF01210120FFF787FF022197
:100ED8000120FFF783FF19210320FFF77FFF00F0B0
:100EE80005F900F063F90023BB7608237B61002332
:100EF8007B7608233B764823FB7665233B776C2378
:100F08007B776C23BB776F23FB77202387F8203010
:100F1800482387F82130692387F82230002387F88F
:100F28002A3009237B62002387F82930052387F8B4
:100F38002830482387F82B30652387F82C306C231A
:100F480087F82D306C2387F82E306F2387F82F30E1
:100F5800202387F83030482387F83130692387F811
:100F68003230002387F83A300F237B63012387F858
:100F78003930052387F838304D2387F83B30612313
:100F880087F83C30682387F83D306D2387F83E307A
:100F98006F2387F83F30752387F84030642387F83C
:100FA8004130302387F84230002387F84A300F2336
:100FB8007B64012387F84930012203210020FFF7D1
:100FC800F9FC012209210020FFF7F4FC01220A2183
:100FD8000020FFF7EFFC01220D210220FFF7EAFCB9
:100FE800404A3B461268114619800233120C1A70A7
:100FF800002387F8573000213B48FFF7DFFB034603
:10100800002BF8D03B1D002219463748FFF790FA0D
:10101800002387F856305EE07A6897F856301B014F
:1010280058333B44443B1B689A424FD13A7A97F86D
:1010380056301B0158333B44403B1B789A4245D1FC
:101048007A7A97F856301B0158333B443F3B1B785C
:101058009A423BD1012387F85730002387F855304F
:101068001AE097F8553058333B4413F84D2C97F84D
:10107800561097F855300901583139440B443D3B17
:101088001B789A4203D0002387F857300FE097F86F
:101098005530013387F8553097F856301B015833CF
:1010A8003B44403B1B7897F855209A42D9D397F890
:1010B8005730002B0AD097F8563058333B4413F872
:1010C800583C19460020FFF737FD08E097F85630DE
:1010D800013387F8563097F85630022B9CD98AE7A7
:1010E800001002401C1300080064004080B58AB05C
:1010F80000AF07F1200300221A60C3F8032002237F
:1011080087F82130012387F82230092387F8263011
:1011180007F1180300221A60C3F8032003237B7623
:101128000123BB760923BB7707F1100300221A605D
:10113800C3F8032009237B740123BB740923BB75FF
:1011480007F1080300221A60C3F803200A237B7200
:101158000123BB720923BB733B4600221A60C3F804
:10116800032002233B700D237B700123BB700923EE
:10117800BB7107F110031846FFF7A8FD07F1080334
:101188001846FFF7A3FD07F120031846FFF79EFD59
:1011980007F118031846FFF799FD3B461846FFF775
:1011A80095FD00BF2837BD4680BD000080B58CB0D6
:1011B80000AF07F1280300221A60C3F803200123B7
:1011C80087F82830092387F82930022387F82A303E
:1011D800092387F82E3007F1200300221A60C3F88C
:1011E8000320012387F82030082387F821300223C1
:1011F80087F82230092387F826300123BB7700239C
:101208007B7700233B7701237B730123BB73032385
:10121800FB7300233B74104A3B4607CA83E8070068
:101228003B467B610023BB6102233B7307F1280324
:101238001846FFF74BFD07F120031846FFF746FD58
:1012480007F11C0207F10C0319460448FEF7E0FFFA
:1012580000BF3037BD4680BD201300080064004041
:101268000D488546AFF300800C480D490D4A002310
:1012780002E0D458C4500433C4188C42F9D30A4A43
:101288000A4C002301E013600432A242FBD300F0B1
:1012980011F8FFF707FEFEE700800020000000209D
:1012A8000000002034130008000000201C0000206B
:1012B800FEE7000070B50D4D0D4C641BA410002610
:1012C800A64209D10B4D0C4C00F018F8641BA41071
:1012D8000026A64205D170BD55F8043B9847013653
:1012E800EEE755F8043B98470136F2E72C1300085F
:1012F8002C1300082C13000830130008F8B500BFA1
:10130800F8BC08BC9E467047F8B500BFF8BC08BCDE
:041318009E46704736
:10131C00090A030008000000090000000F0000008B
:04132C00FD010008B7
:04133000D9010008D7
:040000050800126974
:00000001FF
