:020000040800F2
:10000000008000203D1300088D1300088D130008A8
:100010008D1300088D1300088D13000800000000E8
:100020000000000000000000000000008D13000828
:100030008D130008000000008D1300088D130008C8
:100040008D1300088D1300088D1300088D13000810
:100050008D1300088D1300088D1300088D13000800
:100060008D1300088D1300088D1300088D130008F0
:100070008D1300088D1300088D1300088D130008E0
:100080008D130008000000008D1300088D13000878
:100090008D1300088D1300088D1300088D130008C0
:1000A0008D1300088D1300088D1300088D130008B0
:1000B0008D1300088D1300088D1300088D130008A0
:1000C0008D1300088D1300088D1300088D13000890
:1000D0008D1300088D1300088D1300088D13000880
:1000E0008D1300088D1300088D1300088D13000870
:1000F0008D1300088D1300088D1300080000000008
:10010000000000008D130008000000008D1300089F
:100110008D130008000000008D1300088D130008E7
:100120008D1300088D1300088D1300088D1300082F
:100130008D13000800000000000000008D1300086F
:100140008D1300088D1300088D13000800000000B7
:10015000000000000000000000000000000000009F
:100160000000000000000000000000008D130008E7
:100170008D130008000000000000000000000000D7
:10018000000000008D1300080000000000000000C7
:10019000000000008D1300080000000000000000B7
:1001A00000000000000000008D1300088D130008FF
:1001B0008D1300088D1300088D1300080000000047
:1001C000000000008D130008000000000000000087
:0801D0008D1300088D130008D7
:1001D80010B5054C237833B9044B13B10448AFF379
:1001E80000800123237010BD0000002000000000E3
:1001F800D813000808B5034B1BB103490348AFF3F4
:10020800008008BD0000000004000020D81300088A
:1002180080B48BB000AFF860B9607A60FB68A04A20
:10022800934202D19F4B7B620CE0FB689E4A93424B
:1002380002D19E4B7B6205E0FB689D4A934201D147
:100248009C4B7B62FB689B6943F00102FB689A61E7
:1002580000BFFB689B6903F00103002BF9D0FB6822
:100268009B6943F00202FB689A61FB689B6923F46F
:100278008072FB689A61FB689B6923F40072FB68D3
:100288009A61FB689B6923F40052FB689A61FB68DA
:100298009B6923F48052FB689A61FB689B6923F091
:1002A8002002FB689A61FB689B6923F00402FB68E3
:1002B8009A610023BB61BB6943F0C063BB61BB6942
:1002C80043F42063BB61BB6943F00303BB61BB69B3
:1002D80043F44033BB61FB68BA69DA61BB681B78D9
:1002E800002B08D1FB68D3F8803023F03002FB687C
:1002F800C3F880201CE0BB681B78012B10D1FB6879
:10030800D3F8803023F03002FB68C3F88020FB6804
:10031800D3F8803043F01002FB68C3F8802007E070
:10032800FB68D3F8803043F03002FB68C3F88020C4
:10033800BB685B78002B08D1FB68D3F8803023F4C6
:100348000072FB68C3F8802007E0FB68D3F88030B0
:1003580043F40072FB68C3F88020BB689B78002BCD
:1003680008D1FB68D3F8803023F48072FB68C3F8A7
:10037800802007E0FB68D3F8803043F48072FB6884
:10038800C3F88020FB68D3F8803023F4F812FB68A8
:10039800C3F88020FB68D3F88030BA68D278114659
:1003A800BA6812790A4412041A43FB68C3F8802019
:1003B8007B6A3B620023FB7708E03B6A00221A60F5
:1003C8003B6A04333B62FB7F0133FB77FB7FD32B14
:1003D800F3D90023BB7700237B7723E0BB689A68B7
:1003E8007B7F9B0013441B687B61BB689A687B7F9B
:1003F8009B0013441B681B047A6913437B617B6968
:1004080043F000637B617B6943F080437B61BB7F82
:100418005A1CBA7719467B6A7A6943F821207B7F90
:1004280001337B77BB68DB787A7F9A42D6D3002387
:100438003B7723E0BB68DA683B7F9B0013441B686B
:100448007B61BB68DA683B7F9B0013441B681B0415
:100458007A6913437B617B6943F080537B617B69D5
:1004680043F080437B61BB7F5A1CBA7719467B6A8D
:100478007A6943F821203B7F01333B77BB681B79BE
:100488003A7F9A42D6D37B685B78002B14D1FB68FD
:10049800D3F8C03023F08072FB68C3F8C02013E0A3
:1004A8000064004000A400400068004000A800402C
:1004B800006C004000AC0040FB68D3F8C03043F04B
:1004C8008072FB68C3F8C0207B681B78002B06D1BC
:1004D800FB689B6923F48042FB689A6105E0FB682E
:1004E8009B6943F48042FB689A617B689B78002B88
:1004F80006D1FB689B6923F04002FB689A6105E01E
:10050800FB689B6943F04002FB689A61FB689B6942
:1005180023F00202FB689A61FB689B6923F00102E1
:10052800FB689A6100BF2C37BD465DF8047B7047B5
:1005380080B487B000AFF860B9601346FB71FB6800
:10054800984A934202D1984B7B610CE0FB68974A2A
:10055800934202D1964B7B6105E0FB68954A934232
:1005680001D1954B7B61FB79002B40F08580FB68BE
:10057800D3F890301B0ADBB203F003033B743A7CD8
:1005880079691346DB001344DB000B44B0331B6866
:100598009B0FDBB203F00103DAB2BB689A713A7CB5
:1005A80079691346DB001344DB000B44B0331B6846
:1005B8005B0FDBB203F00103DAB2BB685A71BB68A8
:1005C8009B79002B0ED13A7C79691346DB001344E2
:1005D800DB000B44B0331B689B0CC3F30A02BB68F7
:1005E8001A600CE03A7C79691346DB001344DB009F
:1005F8000B44B0331B6823F06042BB681A60BB68C9
:100608005B79002B33D13A7C79691346DB001344BC
:10061800DB000B44B4331B681B0CDBB203F00F0385
:10062800DAB2BB681A710023FB741BE03A7CFB7CCE
:100638009B08DBB2184679691346DB0013445B005C
:1006480003442E3351F82320FB7C03F00303DB0023
:10065800DA40FB7CD1B2BA6813440A46DA71FB7CF3
:100668000133FB74BB681B79FA7C9A42DED33A7C6F
:10067800FB68C3F894208FE0FB68D3F898301B0A16
:10068800DBB203F003037B747A7C79691346DB00E1
:100698001344DB000B4403F5C4731B689B0FDBB2E8
:1006A80003F00103DAB2BB689A717A7C7969134660
:1006B800DB001344DB000B4403F5C4731B685B0FBA
:1006C800DBB203F00103DAB2BB685A71BB689B79ED
:1006D800002B0FD17A7C79691346DB001344DB00C9
:1006E8000B4403F5C4731B689B0CC3F30A02BB6875
:1006F8001A600DE07A7C79691346DB001344DB004D
:100708000B4403F5C4731B6823F06042BB681A608E
:10071800BB685B79002B34D17A7C79691346DB009E
:100728001344DB000B4403F5C6731B681B0CDBB2D8
:1007380003F00F03DAB2BB681A710023BB741BE025
:100748007A7CBB7C9B08DBB2184679691346DB00D0
:1007580013445B000344643351F82320BB7C03F04B
:100768000303DB00DA40BB7CD1B2BA6813440A4603
:10077800DA71BB7C0133BB74BB681B79BA7C9A42C3
:10078800DED3FB68D3F89C307A7C012101FA02F2AF
:100798001A43FB68C3F89C2000BF1C37BD465DF8B0
:1007A800047B70470064004000A4004000680040DB
:1007B80000A80040006C004000AC004080B485B048
:1007C80000AF78600B46FB70FB78002B07D17B6885
:1007D800D3F89030DBB203F00F03FB7306E07B68BD
:1007E800D3F89830DBB203F00F03FB73FB7B18469A
:1007F8001437BD465DF8047B7047000080B489B0AB
:1008080000AF786039607B68544A934202D1544BF8
:10081800FB610CE07B68534A934202D1524BFB6167
:1008280005E07B68514A934201D1514BFB617B68DB
:10083800D3F8C4301B0CDBB203F00303BB730023F3
:10084800BB613B689B79012B07D13B681B68BB6187
:10085800BB6943F08043BB6103E03B681B689B04B2
:10086800BB613B685B79012B06D1BB6943F0005340
:10087800BB613B6800221A71BA7BF9691346DB0039
:100888001344DB000B4403F51E73BA691A603B6816
:100898001B791B04BA7B1846F9691346DB0013441D
:1008A800DB000B4403F51F73186000237B610023F2
:1008B8003B610023FB7324E0FB7B032B0FD8FB7BFE
:1008C8003A681344DB791A46FB7B03F00303DB0029
:1008D80002FA03F31A467B6913437B610EE0FB7B44
:1008E8003A681344DB791A46FB7B03F00303DB0009
:1008F80002FA03F31A463B6913433B61FB7B01335E
:10090800FB733B681B79FA7B9A42D5D3BA7BF969AA
:100918001346DB001344DB000B4403F520737A69AC
:100928001A60BA7BF9691346DB001344DB000B44F9
:1009380003F521733A691A607B68D3F8CC30BA7B27
:10094800012101FA02F21A437B68C3F8CC2000BFE8
:100958002437BD465DF8047B704700BF0064004043
:1009680000A400400068004000A80040006C00405F
:1009780000AC004080B485B000AF0346FB710B4665
:10098800BB7113467B710023FB60FB79062B27D8CC
:1009980001A252F823F000BFBD090008C5090008EC
:1009A800CB090008D1090008D7090008DD090008AB
:1009B800E30900084FF09043FB6012E0164BFB6020
:1009C8000FE0164BFB600CE0154BFB6009E0154B84
:1009D800FB6006E0144BFB6003E0144BFB6000E097
:1009E80000BFFB681B68BA795200032101FA02F2C2
:1009F800D2431A40FB681A60FB681B687979BA7998
:100A0800520001FA02F21A43FB681A6000BF143759
:100A1800BD465DF8047B70470004004800080048A4
:100A2800000C004800100048001400480018004856
:100A380090B484B000AF0446084611461A462346CF
:100A4800FB710346BB710B467B7113463B71002358
:100A5800FB60FB79062B27D801A252F823F000BFD0
:100A6800850A00088D0A0008930A0008990A0008F8
:100A78009F0A0008A50A0008AB0A00084FF0904337
:100A8800FB6012E0234BFB600FE0234BFB600CE0A4
:100A9800224BFB6009E0224BFB6006E0214BFB6028
:100AA80003E0214BFB6000E000BF7B79002B0AD1FB
:100AB800FB685B68BA79012101FA02F2D2431A4055
:100AC800FB685A600BE07B79012B08D1FB685B68F7
:100AD800BA79012101FA02F21A43FB685A60FB68ED
:100AE8009B68BA795200032101FA02F2D2431A40F4
:100AF800FB689A60FB689B683979BA79520001FAF9
:100B080002F21A43FB689A6000BF1037BD4690BCDA
:100B1800704700BF0004004800080048000C004867
:100B280000100048001400480018004880B485B040
:100B380000AF0346FB710B46BB7113467B71002364
:100B4800FB60FB79062B27D801A252F823F000BFDF
:100B5800750B00087D0B0008830B0008890B000843
:100B68008F0B0008950B00089B0B00084FF0904373
:100B7800FB6012E0194BFB600FE0194BFB600CE0C7
:100B8800184BFB6009E0184BFB6006E0174BFB6055
:100B980003E0174BFB6000E000BF7B79012B09D114
:100BA800FB685B69BA79012101FA02F21A43FB6812
:100BB8005A610CE07B79002B09D1FB685B69BA7933
:100BC800012101FA02F2D2431A40FB685A6100BFC0
:100BD8001437BD465DF8047B704700BF0004004829
:100BE80000080048000C00480010004800140048A5
:100BF8000018004880B485B000AF0346FB710B466F
:100C0800BB7113467B710023FB60FB79062B27D849
:100C180001A252F823F000BF3D0C0008450C000863
:100C28004B0C0008510C0008570C00085D0C00081C
:100C3800630C00084FF09043FB6012E0164BFB601A
:100C48000FE0164BFB600CE0154BFB6009E0154B01
:100C5800FB6006E0144BFB6003E0144BFB6000E014
:100C680000BFFB68DB68BA795200032101FA02F27F
:100C7800D2431A40FB68DA60FB68DB687979BA7995
:100C8800520001FA02F21A43FB68DA6000BF143717
:100C9800BD465DF8047B7047000400480008004822
:100CA800000C0048001000480014004800180048D4
:100CB80080B485B000AF03460A46FB711346BB718A
:100CC8000023FB60FB79062B26D801A252F823F0FB
:100CD800F50C0008FD0C0008030D0008090D0008BC
:100CE8000F0D0008150D00081B0D00084FF090436C
:100CF800FB6012E0104BFB600FE0104BFB600CE058
:100D08000F4BFB6009E00F4BFB6006E00E4BFB60EE
:100D180003E00E4BFB6000E000BFFB685B69BA793B
:100D2800012101FA02F25A40FB685A6100BF1437E8
:100D3800BD465DF8047B7047000400480008004881
:100D4800000C004800100048001400480018004833
:100D580080B485B000AF0346FB710B46BB711346E8
:100D68007B710023FB60FB79062B27D801A252F880
:100D780023F000BF990D0008A10D0008A70D000879
:100D8800AD0D0008B30D0008B90D0008BF0D00082F
:100D98004FF09043FB6012E0244BFB600FE0244BC4
:100DA800FB600CE0234BFB6009E0234BFB6006E093
:100DB800224BFB6003E0224BFB6000E000BFBB79E5
:100DC800072B15D8FB681B6ABA7992000F2101FA24
:100DD80002F2D2431A40FB681A62FB681B6A7979EF
:100DE800BA79920001FA02F21A43FB681A6216E015
:100DF800FB685B6ABA79083A92000F2101FA02F29D
:100E0800D2431A40FB685A62FB685B6A7979BA79FF
:100E1800083A920001FA02F21A43FB685A6200BFCC
:100E28001437BD465DF8047B704700BF00040048D6
:100E380000080048000C0048001000480014004852
:100E48000018004880B582B000AF78607B681878D9
:100E58007B6859787B689B781A46FFF78BFD7B681F
:100E680018787B6859787B68DA787B681B79FFF794
:100E7800DFFD7B6818787B6859787B685B791A4650
:100E8800FFF7B8FE7B6818787B6859787B689B7990
:100E98001A46FFF75DFF00BF0837BD4680BD00005A
:100EA80080B400AF2A4B00221A60294B00225A60F6
:100EB800274B00229A60264B0022DA60244B00223E
:100EC800C3F89020224B0022C3F89420204B002224
:100ED800C3F898201E4B1B681D4A43F480731360A7
:100EE8001B4B1B681A4A43F400731360184B1B68AA
:100EF800174A43F480331360154B1B68144A43F4B4
:100F080080231360124B5B68114A43F0804353609F
:100F18000F4B9B680E4A43F0010393600C4B0C4A3D
:100F28009B6893600A4B0A4A9B689360084B084A7F
:100F38009B689360064B064A9B689360044B044A7F
:100F48009B68936000BFBD465DF8047B704700BF97
:100F58000010024080B483B000AF03460A46FB711C
:100F68001346BB71FB79052B50D801A252F823F028
:100F7800910F0008A70F0008BD0F0008D30F000845
:100F8800E90F0008FF0F0008234B9B6CBA79012179
:100F980001FA02F21146204A0B43936436E01E4BD5
:100FA800DB6CBA79012101FA02F211461A4A0B43A5
:100FB800D3642BE0184B1B6DBA79012101FA02F2B8
:100FC8001146154A0B43136520E0134B9B6DBA7904
:100FD800012101FA02F211460F4A0B43936515E00D
:100FE8000D4BDB6DBA79012101FA02F211460A4A6A
:100FF8000B43D3650AE0084B1B6EBA79012101FA4D
:1010080002F21146044A0B43136600BF00BF0C37B7
:10101800BD465DF8047B70470010024080B58AB079
:1010280000AF00F09DF800F0BBF800F003F90021D4
:101038004A48FFF7C3FB0346002BF8D007F1140317
:10104800002219464548FFF773FA7B69213B082BB4
:101058007ED801A252F823F0851000089F100008DE
:10106800C910000859110008591100085911000841
:10107800591100085911000805110008092100201C
:10108800FFF716FE4FF4FA6000F034F9092100204A
:10109800FFF70EFE5CE0002387F827300BE00A21FB
:1010A8000020FFF705FE642000F024F997F82730A8
:1010B800013387F8273097F82730092BEFD947E015
:1010C80003210020FFF7F4FD23237B6002233B72FA
:1010D8000023BB7200237B724823FB7269233B7396
:1010E8003B1D19461D48FFF789FB4FF4FA7000F0C5
:1010F80001F903210020FFF7DBFD29E0032100208F
:10110800FFF7D6FD29237B6008233B720023BB72BF
:1011180000237B723023FB7230233B7331237B73B4
:101128003023BB733123FB7331233B7430237B742F
:101138003123BB743B1D19460848FFF75FFB4FF48A
:10114800FA7000F0D7F803210020FFF7B1FD00BFC7
:101158000D210220FFF7ACFD69E700BF00640040E5
:1011680080B500AFFFF79CFE0C4BD3F888300B4AD4
:1011780043F00073C2F8883000210120FFF7EAFE2F
:1011880001210120FFF7E6FE02210120FFF7E2FE20
:1011980019210320FFF7DEFE00BF80BD00100240CA
:1011A80080B582B000AF3B4600221A60C3F8032026
:1011B80002233B700D237B700123BB703B4618460E
:1011C800FFF740FE00233B7009237B703B4618461F
:1011D800FFF738FE0A237B703B461846FFF732FEBE
:1011E80002237B703B461846FFF72CFE03237B70D7
:1011F8003B461846FFF726FE012202210020FFF792
:1012080095FC012203210020FFF790FC012209210F
:101218000020FFF78BFC01220A210020FFF786FC43
:1012280001220D210220FFF781FC00BF0837BD46CF
:1012380080BD0000B0B58EB000AF07F130030022CA
:101248001A60C3F80320012387F83030092387F890
:101258003130022387F83230092387F8363007F116
:10126800280300221A60C3F80320012387F82830D6
:10127800082387F82930022387F82A30092387F8BA
:101288002E30012387F82630002387F825300023E5
:1012980087F8243001237B750123BB750523FB7573
:1012A80000233B76114B3C461D460FCD0FC42B68DF
:1012B80023603B46FB6100233B6202233B7507F139
:1012C80030031846FFF7BEFD07F128031846FFF75D
:1012D800B9FD07F1240207F1140319460448FEF783
:1012E80097FF00BF3837BD46B0BD00BFF0130008F8
:1012F8000064004080B485B000AF78600023FB60D4
:101308000CE00023BB6002E0BB680133BB60BB6834
:10131800B3F5876FF8D3FB680133FB60FA687B6825
:101328009A42EED300BF00BF1437BD465DF8047B78
:10133800704700000D488546AFF300800C480D4902
:101348000D4A002302E0D458C4500433C4188C4218
:10135800F9D30A4A0A4C002301E013600432A2427E
:10136800FBD300F011F8FFF759FEFEE700800020DC
:1013780000000020000000200C14000800000020DD
:101388001C000020FEE7000070B50D4D0D4C641BDD
:10139800A4100026A64209D10B4D0C4C00F018F8F9
:1013A800641BA4100026A64205D170BD55F8043B65
:1013B80098470136EEE755F8043B98470136F2E7BF
:1013C8000414000804140008041400080814000891
:1013D800F8B500BFF8BC08BC9E467047F8B500BF1A
:0813E800F8BC08BC9E467047EA
:1013F000210000002200000023000000290000005E
:041400000F000000D9
:04140400FD010008DE
:04140800D9010008FE
:040000050800133D9F
:00000001FF
