:020000040800F2
:1000000000800020BD0C00080D0D00080D0D00083B
:100010000D0D00080D0D00080D0D0008000000007A
:100020000000000000000000000000000D0D0008AE
:100030000D0D0008000000000D0D00080D0D00085A
:100040000D0D00080D0D00080D0D00080D0D000828
:100050000D0D00080D0D00080D0D00080D0D000818
:100060000D0D00080D0D00080D0D00080D0D000808
:100070000D0D00080D0D00080D0D00080D0D0008F8
:100080000D0D0008000000000D0D00080D0D00080A
:100090000D0D00080D0D00080D0D00080D0D0008D8
:1000A0000D0D00080D0D00080D0D00080D0D0008C8
:1000B0000D0D00080D0D00080D0D00080D0D0008B8
:1000C0000D0D00080D0D00080D0D00080D0D0008A8
:1000D0000D0D00080D0D00080D0D00080D0D000898
:1000E0000D0D00080D0D00080D0D00080D0D000888
:1000F0000D0D00080D0D00080D0D0008000000009A
:10010000000000000D0D0008000000000D0D0008AB
:100110000D0D0008000000000D0D00080D0D000879
:100120000D0D00080D0D00080D0D00080D0D000847
:100130000D0D000800000000000000000D0D00087B
:100140000D0D00080D0D00080D0D00080000000049
:10015000000000000000000000000000000000009F
:100160000000000000000000000000000D0D00086D
:100170000D0D00080000000000000000000000005D
:10018000000000000D0D000800000000000000004D
:10019000000000000D0D000800000000000000003D
:1001A00000000000000000000D0D00080D0D00080B
:1001B0000D0D00080D0D00080D0D000800000000D9
:1001C000000000000D0D000800000000000000000D
:0801D0000D0D00080D0D0008E3
:1001D80010B5054C237833B9044B13B10448AFF379
:1001E80000800123237010BD0000002000000000E3
:1001F800580D000808B5034B1BB103490348AFF37A
:10020800008008BD0000000004000020580D000810
:1002180080B48BB000AFF860B9607A60FB68A04A20
:10022800934202D19F4B7B620CE0FB689E4A93424B
:1002380002D19E4B7B6205E0FB689D4A934201D147
:100248009C4B7B62FB689B6943F00102FB689A61E7
:1002580000BFFB689B6903F00103002BF9D0FB6822
:100268009B6943F00202FB689A61FB689B6923F46F
:100278008072FB689A61FB689B6923F40072FB68D3
:100288009A61FB689B6923F40052FB689A61FB68DA
:100298009B6923F48052FB689A61FB689B6923F091
:1002A8002002FB689A61FB689B6923F00402FB68E3
:1002B8009A610023BB61BB6943F0C063BB61BB6942
:1002C80043F42063BB61BB6943F00303BB61BB69B3
:1002D80043F44033BB61FB68BA69DA61BB681B78D9
:1002E800002B08D1FB68D3F8803023F03002FB687C
:1002F800C3F880201CE0BB681B78012B10D1FB6879
:10030800D3F8803023F03002FB68C3F88020FB6804
:10031800D3F8803043F01002FB68C3F8802007E070
:10032800FB68D3F8803043F03002FB68C3F88020C4
:10033800BB685B78002B08D1FB68D3F8803023F4C6
:100348000072FB68C3F8802007E0FB68D3F88030B0
:1003580043F40072FB68C3F88020BB689B78002BCD
:1003680008D1FB68D3F8803023F48072FB68C3F8A7
:10037800802007E0FB68D3F8803043F48072FB6884
:10038800C3F88020FB68D3F8803023F4F812FB68A8
:10039800C3F88020FB68D3F88030BA68D278114659
:1003A800BA6812790A4412041A43FB68C3F8802019
:1003B8007B6A3B620023FB7708E03B6A00221A60F5
:1003C8003B6A04333B62FB7F0133FB77FB7FD32B14
:1003D800F3D90023BB7700237B7723E0BB689A68B7
:1003E8007B7F9B0013441B687B61BB689A687B7F9B
:1003F8009B0013441B681B047A6913437B617B6968
:1004080043F000637B617B6943F080437B61BB7F82
:100418005A1CBA7719467B6A7A6943F821207B7F90
:1004280001337B77BB68DB787A7F9A42D6D3002387
:100438003B7723E0BB68DA683B7F9B0013441B686B
:100448007B61BB68DA683B7F9B0013441B681B0415
:100458007A6913437B617B6943F080537B617B69D5
:1004680043F080437B61BB7F5A1CBA7719467B6A8D
:100478007A6943F821203B7F01333B77BB681B79BE
:100488003A7F9A42D6D37B685B78002B14D1FB68FD
:10049800D3F8C03023F08072FB68C3F8C02013E0A3
:1004A8000064004000A400400068004000A800402C
:1004B800006C004000AC0040FB68D3F8C03043F04B
:1004C8008072FB68C3F8C0207B681B78002B06D1BC
:1004D800FB689B6923F48042FB689A6105E0FB682E
:1004E8009B6943F48042FB689A617B689B78002B88
:1004F80006D1FB689B6923F04002FB689A6105E01E
:10050800FB689B6943F04002FB689A61FB689B6942
:1005180023F00202FB689A61FB689B6923F00102E1
:10052800FB689A6100BF2C37BD465DF8047B7047B5
:1005380090B486B000AF786039607B684D4A9342CA
:1005480002D14D4B7B610CE07B684C4A934202D14F
:100558004B4B7B6105E07B684A4A934201D14A4B89
:100568007B617B68D3F8C4301B0CDBB203F0030358
:10057800BB7300233B613B689B79012B07D13B6828
:100588001B683B613B6943F080433B6103E03B6888
:100598001B689B043B613B685B79012B03D13B697A
:1005A80043F000533B61BA7B79691346DB0013447F
:1005B800DB000B4403F51E733A691A60BA7B79694C
:1005C8001346DB001344DB000B4403F51F731B6861
:1005D8003A68127912041146BA7B194378691346AE
:1005E800DB001344DB00034403F51F731960002389
:1005F800FB732AE0BA7BFB7B9B08D8B20446796977
:100608001346DB0013445B002344A03351F8233026
:100618003A689168FA7B0A4412781146FA7B02F02C
:100628000302D20001FA02F21146BA7B044643EAF9
:10063800010079691346DB0013445B002344A033AF
:1006480041F82300FB7B0133FB733B681B79FA7B82
:100658009A42CFD37B68D3F8CC30BA7B012101FA18
:1006680002F21A437B68C3F8CC2000BF1837BD4696
:1006780090BC70470064004000A40040006800403F
:1006880000A80040006C004000AC004080B485B079
:1006980000AF0346FB710B46BB7113467B71002309
:1006A800FB60FB79062B27D801A252F823F000BF84
:1006B800D5060008DD060008E3060008E90600087C
:1006C800EF060008F5060008FB0600084FF0904307
:1006D800FB6012E0164BFB600FE0164BFB600CE072
:1006E800154BFB6009E0154BFB6006E0144BFB6003
:1006F80003E0144BFB6000E000BFFB681B68BA799D
:100708005200032101FA02F2D2431A40FB681A6030
:10071800FB681B687979BA79520001FA02F21A4328
:10072800FB681A6000BF1437BD465DF8047B70474C
:100738000004004800080048000C00480010004869
:10074800001400480018004890B484B000AF044674
:10075800084611461A462346FB710346BB710B46F1
:100768007B7113463B710023FB60FB79062B27D86E
:1007780001A252F823F000BF9D070008A507000852
:10078800AB070008B1070008B7070008BD07000855
:10079800C30700084FF09043FB6012E0234BFB6057
:1007A8000FE0234BFB600CE0224BFB6009E0224B7F
:1007B800FB6006E0214BFB6003E0214BFB6000E09F
:1007C80000BF7B79002B0AD1FB685B68BA790121ED
:1007D80001FA02F2D2431A40FB685A600BE07B79B7
:1007E800012B08D1FB685B68BA79012101FA02F292
:1007F8001A43FB685A60FB689B68BA795200032168
:1008080001FA02F2D2431A40FB689A60FB689B68BF
:100818003979BA79520001FA02F21A43FB689A60F0
:1008280000BF1037BD4690BC704700BF00040048A9
:1008380000080048000C0048001000480014004858
:100848000018004880B485B000AF0346FB710B4622
:10085800BB7113467B710023FB60FB79062B27D8FD
:1008680001A252F823F000BF8D080008950800087F
:100878009B080008A1080008A7080008AD080008A0
:10088800B30800084FF09043FB6012E0164BFB6082
:100898000FE0164BFB600CE0154BFB6009E0154BB5
:1008A800FB6006E0144BFB6003E0144BFB6000E0C8
:1008B80000BFFB68DB68BA795200032101FA02F233
:1008C800D2431A40FB68DA60FB68DB687979BA7949
:1008D800520001FA02F21A43FB68DA6000BF1437CB
:1008E800BD465DF8047B70470004004800080048D6
:1008F800000C004800100048001400480018004888
:1009080080B485B000AF03460A46FB711346BB713D
:100918000023FB60FB79062B26D801A252F823F0AE
:10092800450900084D09000853090008590900083D
:100938005F090008650900086B0900084FF090433B
:10094800FB6012E0104BFB600FE0104BFB600CE00B
:100958000F4BFB6009E00F4BFB6006E00E4BFB60A2
:1009680003E00E4BFB6000E000BFFB685B69BA79EF
:10097800012101FA02F25A40FB685A6100BF14379C
:10098800BD465DF8047B7047000400480008004835
:10099800000C0048001000480014004800180048E7
:1009A80080B485B000AF0346FB710B46BB7113469C
:1009B8007B710023FB60FB79062B27D801A252F834
:1009C80023F000BFE9090008F1090008F709000849
:1009D800FD090008030A0008090A00080F0A0008B0
:1009E8004FF09043FB6012E0244BFB600FE0244B78
:1009F800FB600CE0234BFB6009E0234BFB6006E047
:100A0800224BFB6003E0224BFB6000E000BFBB7998
:100A1800072B15D8FB681B6ABA7992000F2101FAD7
:100A280002F2D2431A40FB681A62FB681B6A7979A2
:100A3800BA79920001FA02F21A43FB681A6216E0C8
:100A4800FB685B6ABA79083A92000F2101FA02F250
:100A5800D2431A40FB685A62FB685B6A7979BA79B3
:100A6800083A920001FA02F21A43FB685A6200BF80
:100A78001437BD465DF8047B704700BF000400488A
:100A880000080048000C0048001000480014004806
:100A98000018004880B582B000AF78607B6818788D
:100AA8007B6859787B689B781A46FFF7EFFD7B686F
:100AB80018787B6859787B68DA787B681B79FFF748
:100AC80043FE7B6818787B6859787B685B791A469F
:100AD800FFF7B8FE7B6818787B6859787B689B7944
:100AE8001A46FFF75DFF00BF0837BD4680BD00000E
:100AF80080B592B000AF012387F842300D2387F804
:100B08004130022387F84030022387F83A30012326
:100B180087F83830082387F83930002387F83B30C6
:100B2800092387F83E30002387F83C30022387F8F2
:100B38003230012387F83030092387F83130002319
:100B480087F83330092387F83630002387F83430A4
:100B5800002387F82C30002387F82D30012387F8ED
:100B68002E3001237B770123BB770223FB770223F7
:100B780087F82030274A07F1140392E8030083E836
:100B8800030007F114037B6207F11403BB6201231E
:100B98003B77214A3B4692E80300186004331980EA
:100BA8000023FB803B463B6105233B730923BB6065
:100BB8000023BB7300237B7300F032F807F1300386
:100BC8001846FFF767FF07F138031846FFF762FF7B
:100BD80007F140031846FFF75DFF07F12C0207F104
:100BE8001C0319460D48FFF713FB07F108031946C4
:100BF8000A48FFF79DFC07F1080319460748FFF765
:100C080097FC0D210220FFF77BFE4FF4FA7000F0ED
:100C180031F8F0E7700D0008780D00080064004016
:100C280080B400AF124BD3F88830114A43F00073F8
:100C3800C2F888300E4BDB6C0D4A43F00103D364D5
:100C48000B4BDB6C0A4A43F00203D364084BDB6CA2
:100C5800074A43F00403D364054B9B6D044A43F0F1
:100C68000073936500BFBD465DF8047B704700BF05
:100C78000010024080B485B000AF78600023FB60AC
:100C88000CE00023BB6002E0BB680133BB60BB68BB
:100C9800B3F5876FF8D3FB680133FB60FA687B68AC
:100CA8009A42EED300BF00BF1437BD465DF8047BFF
:100CB800704700000D488546AFF300800C480D4989
:100CC8000D4A002302E0D458C4500433C4188C429F
:100CD800F9D30A4A0A4C002301E013600432A24205
:100CE800FBD300F011F8FFF703FFFEE700800020B8
:100CF8000000002000000020880D000800000020EF
:100D08001C000020FEE7000070B50D4D0D4C641B63
:100D1800A4100026A64209D10B4D0C4C00F018F87F
:100D2800641BA4100026A64205D170BD55F8043BEB
:100D380098470136EEE755F8043B98470136F2E745
:100D4800800D0008800D0008800D0008840D000843
:100D5800F8B500BFF8BC08BC9E467047F8B500BFA0
:080D6800F8BC08BC9E46704770
:100D7000300000003100000048656C6C6F0000001E
:040D8000FD01000869
:040D8400D901000889
:0400000508000CBD26
:00000001FF
