:020000040800F2
:10000000008000209D0D0008ED0D0008ED0D00089A
:10001000ED0D0008ED0D0008ED0D000800000000DA
:10002000000000000000000000000000ED0D0008CE
:10003000ED0D000800000000ED0D0008ED0D0008BA
:10004000ED0D0008ED0D0008ED0D0008ED0D0008A8
:10005000ED0D0008ED0D0008ED0D0008ED0D000898
:10006000ED0D0008ED0D0008ED0D0008ED0D000888
:10007000ED0D0008ED0D0008ED0D0008ED0D000878
:10008000ED0D000800000000ED0D0008ED0D00086A
:10009000ED0D0008ED0D0008ED0D0008ED0D000858
:1000A000ED0D0008ED0D0008ED0D0008ED0D000848
:1000B000ED0D0008ED0D0008ED0D0008ED0D000838
:1000C000ED0D0008ED0D0008ED0D0008ED0D000828
:1000D000ED0D0008ED0D0008ED0D0008ED0D000818
:1000E000ED0D0008ED0D0008ED0D0008ED0D000808
:1000F000ED0D0008ED0D0008ED0D000800000000FA
:1001000000000000ED0D000800000000ED0D0008EB
:10011000ED0D000800000000ED0D0008ED0D0008D9
:10012000ED0D0008ED0D0008ED0D0008ED0D0008C7
:10013000ED0D00080000000000000000ED0D0008BB
:10014000ED0D0008ED0D0008ED0D000800000000A9
:10015000000000000000000000000000000000009F
:10016000000000000000000000000000ED0D00088D
:10017000ED0D00080000000000000000000000007D
:1001800000000000ED0D000800000000000000006D
:1001900000000000ED0D000800000000000000005D
:1001A0000000000000000000ED0D0008ED0D00084B
:1001B000ED0D0008ED0D0008ED0D00080000000039
:1001C00000000000ED0D000800000000000000002D
:0801D000ED0D0008ED0D000823
:1001D80010B5054C237833B9044B13B10448AFF379
:1001E80000800123237010BD0000002000000000E3
:1001F800380E000808B5034B1BB103490348AFF399
:10020800008008BD0000000004000020380E00082F
:1002180080B48BB000AFF860B9607A60FB68A04A20
:10022800934202D19F4B7B620CE0FB689E4A93424B
:1002380002D19E4B7B6205E0FB689D4A934201D147
:100248009C4B7B62FB689B6943F00102FB689A61E7
:1002580000BFFB689B6903F00103002BF9D0FB6822
:100268009B6943F00202FB689A61FB689B6923F46F
:100278008072FB689A61FB689B6923F40072FB68D3
:100288009A61FB689B6923F40052FB689A61FB68DA
:100298009B6923F48052FB689A61FB689B6923F091
:1002A8002002FB689A61FB689B6923F00402FB68E3
:1002B8009A610023BB61BB6943F0C063BB61BB6942
:1002C80043F42063BB61BB6943F00303BB61BB69B3
:1002D80043F44033BB61FB68BA69DA61BB681B78D9
:1002E800002B08D1FB68D3F8803023F03002FB687C
:1002F800C3F880201CE0BB681B78012B10D1FB6879
:10030800D3F8803023F03002FB68C3F88020FB6804
:10031800D3F8803043F01002FB68C3F8802007E070
:10032800FB68D3F8803043F03002FB68C3F88020C4
:10033800BB685B78002B08D1FB68D3F8803023F4C6
:100348000072FB68C3F8802007E0FB68D3F88030B0
:1003580043F40072FB68C3F88020BB689B78002BCD
:1003680008D1FB68D3F8803023F48072FB68C3F8A7
:10037800802007E0FB68D3F8803043F48072FB6884
:10038800C3F88020FB68D3F8803023F4F812FB68A8
:10039800C3F88020FB68D3F88030BA68D278114659
:1003A800BA6812790A4412041A43FB68C3F8802019
:1003B8007B6A3B620023FB7708E03B6A00221A60F5
:1003C8003B6A04333B62FB7F0133FB77FB7FD32B14
:1003D800F3D90023BB7700237B7723E0BB689A68B7
:1003E8007B7F9B0013441B687B61BB689A687B7F9B
:1003F8009B0013441B681B047A6913437B617B6968
:1004080043F000637B617B6943F080437B61BB7F82
:100418005A1CBA7719467B6A7A6943F821207B7F90
:1004280001337B77BB68DB787A7F9A42D6D3002387
:100438003B7723E0BB68DA683B7F9B0013441B686B
:100448007B61BB68DA683B7F9B0013441B681B0415
:100458007A6913437B617B6943F080537B617B69D5
:1004680043F080437B61BB7F5A1CBA7719467B6A8D
:100478007A6943F821203B7F01333B77BB681B79BE
:100488003A7F9A42D6D37B685B78002B14D1FB68FD
:10049800D3F8C03023F08072FB68C3F8C02013E0A3
:1004A8000064004000A400400068004000A800402C
:1004B800006C004000AC0040FB68D3F8C03043F04B
:1004C8008072FB68C3F8C0207B681B78002B06D1BC
:1004D800FB689B6923F48042FB689A6105E0FB682E
:1004E8009B6943F48042FB689A617B689B78002B88
:1004F80006D1FB689B6923F04002FB689A6105E01E
:10050800FB689B6943F04002FB689A61FB689B6942
:1005180023F00202FB689A61FB689B6923F00102E1
:10052800FB689A6100BF2C37BD465DF8047B7047B5
:1005380080B487B000AFF860B9601346FB71FB6800
:100548005F4A934202D15F4B7B610CE0FB685E4AD5
:10055800934202D15D4B7B6105E0FB685C4A9342A4
:1005680001D15C4B7B61FB79002B50D1FB68D3F840
:10057800903000233B743A7C79691346DB001344BE
:10058800DB000B44B0331B689B0CC3F30A02BB6847
:100598001A603A7C79691346DB001344DB000B448C
:1005A800B4331B681B0CDBB203F00703DAB2BB6879
:1005B8001A710023FB741CE03A7CFB7C9B08DBB2BD
:1005C800184679691346DB0013445B0003442E3355
:1005D80051F82320FB7C03F003039B0022FA03F16C
:1005E800BB689A68FB7C1344CAB21A70FB7C01335F
:1005F800FB74BB681B79FA7C9A42DDD3FB68D3F89D
:1006080094203B7C1A43FB68C3F8942051E0FB68B4
:10061800D3F8983000237B747A7C79691346DB0021
:100628001344DB000B4403F5C4731B689B0CC3F332
:100638000A02BB681A607A7C79691346DB001344A6
:10064800DB000B4403F5C6731B681B0CDBB203F01D
:100658000703DAB2BB681A710023BB741CE07A7C0A
:10066800BB7C9B08DBB2184679691346DB00134450
:100678005B000344643351F82320BB7C03F003037D
:100688009B0022FA03F1BB689A68BB7C1344CAB288
:100698001A70BB7C0133BB74BB681B79BA7C9A4265
:1006A800DDD3FB68D3F89C207B7C1A43FB68C3F836
:1006B8009C2000BF1C37BD465DF8047B704700BF17
:1006C8000064004000A400400068004000A800400A
:1006D800006C004000AC004080B485B000AF78608A
:1006E8000B46FB70FB78002B07D17B68D3F8903062
:1006F800DBB203F00303FB7306E07B68D3F89830A2
:10070800DBB203F00303FB73FB7B18461437BD46CB
:100718005DF8047B7047000080B485B000AF0346E5
:10072800FB710B46BB7113467B710023FB60FB79A1
:10073800062B27D801A252F823F000BF6107000852
:10074800690700086F070008750700087B0700089D
:1007580081070008870700084FF09043FB6012E00C
:10076800164BFB600FE0164BFB600CE0154BFB6073
:1007780009E0154BFB6006E0144BFB6003E0144BEB
:10078800FB6000E000BFFB681B68BA7952000321D8
:1007980001FA02F2D2431A40FB681A60FB681B6830
:1007A8007979BA79520001FA02F21A43FB681A60A1
:1007B80000BF1437BD465DF8047B7047000400484D
:1007C80000080048000C00480010004800140048C9
:1007D8000018004890B484B000AF0446084611469B
:1007E8001A462346FB710346BB710B467B711346C1
:1007F8003B710023FB60FB79062B27D801A252F836
:1008080023F000BF2908000831080008370800084D
:100818003D08000843080008490800084F08000878
:100828004FF09043FB6012E0234BFB600FE0234B3B
:10083800FB600CE0224BFB6009E0224BFB6006E00A
:10084800214BFB6003E0214BFB6000E000BF7B799C
:10085800002B0AD1FB685B68BA79012101FA02F220
:10086800D2431A40FB685A600BE07B79012B08D110
:10087800FB685B68BA79012101FA02F21A43FB6846
:100888005A60FB689B68BA795200032101FA02F2A8
:10089800D2431A40FB689A60FB689B683979BA7939
:1008A800520001FA02F21A43FB689A6000BF10373F
:1008B800BD4690BC704700BF0004004800080048CF
:1008C800000C0048001000480014004800180048B8
:1008D80080B485B000AF0346FB710B46BB7113466D
:1008E8007B710023FB60FB79062B27D801A252F805
:1008F80023F000BF1909000821090008270900088A
:100908002D09000833090008390900083F090008C3
:100918004FF09043FB6012E0194BFB600FE0194B5E
:10092800FB600CE0184BFB6009E0184BFB6006E02D
:10093800174BFB6003E0174BFB6000E000BF7B79BF
:10094800012B09D1FB685B69BA79012101FA02F22E
:100958001A43FB685A610CE07B79002B09D1FB68CC
:100968005B69BA79012101FA02F2D2431A40FB68A5
:100978005A6100BF1437BD465DF8047B704700BF5D
:100988000004004800080048000C00480010004817
:10099800001400480018004880B485B000AF034632
:1009A800FB710B46BB7113467B710023FB60FB791F
:1009B800062B27D801A252F823F000BFE10900084E
:1009C800E9090008EF090008F5090008FB09000813
:1009D800010A0008070A00084FF09043FB6012E084
:1009E800164BFB600FE0164BFB600CE0154BFB60F1
:1009F80009E0154BFB6006E0144BFB6003E0144B69
:100A0800FB6000E000BFFB68DB68BA795200032195
:100A180001FA02F2D2431A40FB68DA60FB68DB682D
:100A28007979BA79520001FA02F21A43FB68DA605E
:100A380000BF1437BD465DF8047B704700040048CA
:100A480000080048000C0048001000480014004846
:100A58000018004880B485B000AF0346FB710B4610
:100A6800BB7113467B710023FB60FB79062B27D8EB
:100A780001A252F823F000BF9D0A0008A50A000849
:100A8800AB0A0008B10A0008B70A0008BD0A000846
:100A9800C30A00084FF09043FB6012E0244BFB6050
:100AA8000FE0244BFB600CE0234BFB6009E0234B79
:100AB800FB6006E0224BFB6003E0224BFB6000E09A
:100AC80000BFBB79072B15D8FB681B6ABA7992005F
:100AD8000F2101FA02F2D2431A40FB681A62FB683E
:100AE8001B6A7979BA79920001FA02F21A43FB6813
:100AF8001A6216E0FB685B6ABA79083A92000F211D
:100B080001FA02F2D2431A40FB685A62FB685B6A38
:100B18007979BA79083A920001FA02F21A43FB6825
:100B28005A6200BF1437BD465DF8047B704700BFAA
:100B38000004004800080048000C00480010004865
:100B4800001400480018004880B582B000AF7860F3
:100B58007B6818787B6859787B689B781A46FFF71A
:100B6800DBFD7B6818787B6859787B68DA787B6866
:100B78001B79FFF72FFE7B6818787B6859787B68AC
:100B88005B791A46FFF708FF7B6818787B68597805
:100B98007B689B791A46FFF75DFF00BF0837BD46A3
:100BA80080BD000080B594B000AF012387F84A30BB
:100BB8000D2387F84930022387F84830002387F847
:100BC8004230052387F84130002387F8403001235D
:100BD80087F84530002387F84330022387F83A30F6
:100BE800012387F83830082387F83930002387F83D
:100BF8003B30092387F83E30002387F83C30022336
:100C080087F83230012387F83030092387F83130EC
:100C1800002387F83330092387F83630002387F814
:100C28003430002387F82C30002387F82D30012337
:100C380087F82E3001237B770123BB770223FB77CC
:100C4800022387F820302C4A07F1140392E80300A6
:100C580083E8030007F114037B6207F11403BB6206
:100C680002233B7700233B733B463B6100F048F887
:100C780007F130031846FFF767FF07F138031846F6
:100C8800FFF762FF07F148031846FFF75DFF07F11A
:100C980040031846FFF758FF07F12C0207F11C0321
:100CA80019461648FFF7B4FA002387F84F30002199
:100CB8001248FFF711FD034687F84F3097F84F3079
:100CC800002B14D007F10803002219460B48FFF740
:100CD8002FFC3B7B022B05D101220D210220FFF7BF
:100CE800F7FD04E000220D210220FFF7F1FD4FF48B
:100CF800FA7000F02FF8DAE7500E000800640040A0
:100D080080B400AF124BD3F88830114A43F0007317
:100D1800C2F888300E4BDB6C0D4A43F00103D364F4
:100D28000B4BDB6C0A4A43F00203D364084BDB6CC1
:100D3800074A43F00403D364054B9B6D044A43F010
:100D48000073936500BFBD465DF8047B704700BF24
:100D58000010024080B485B000AF78600023FB60CB
:100D68000CE00023BB6002E0BB680133BB60BB68DA
:100D7800B3F5876FF8D3FB680133FB60FA687B68CB
:100D88009A42EED300BF00BF1437BD465DF8047B1E
:100D9800704700000D488546AFF300800C480D49A8
:100DA8000D4A002302E0D458C4500433C4188C42BE
:100DB800F9D30A4A0A4C002301E013600432A24224
:100DC800FBD300F011F8FFF7EDFEFEE700800020EE
:100DD8000000002000000020600E00080000002035
:100DE8001C000020FEE7000070B50D4D0D4C641B83
:100DF800A4100026A64209D10B4D0C4C00F018F89F
:100E0800641BA4100026A64205D170BD55F8043B0A
:100E180098470136EEE755F8043B98470136F2E764
:100E2800580E0008580E0008580E00085C0E0008FE
:100E3800F8B500BFF8BC08BC9E467047F8B500BFBF
:080E4800F8BC08BC9E4670478F
:080E5000080000000900000089
:040E5800FD01000890
:040E5C00D9010008B0
:0400000508000D9D45
:00000001FF
