:020000040800F2
:1000000000800020A9050008310500083705000818
:100010003D050008430500084905000800000000F0
:100020000000000000000000000000004F05000874
:100030005D050008000000006B0500087905000858
:10004000F9050008F9050008F9050008F905000898
:10005000F9050008F9050008F9050008F905000888
:10006000F9050008F9050008F9050008F905000878
:10007000F9050008F9050008F9050008F905000868
:10008000F905000800000000F9050008F90500085E
:10009000F9050008F9050008F9050008F905000848
:1000A000F9050008F9050008F9050008F905000838
:1000B000F9050008F9050008F9050008F905000828
:1000C000F9050008F9050008F9050008F905000818
:1000D000F9050008F9050008F9050008F905000808
:1000E000F9050008F9050008F9050008F9050008F8
:1000F000F9050008F9050008F905000800000000EE
:1001000000000000F905000800000000F9050008E3
:10011000F905000800000000F9050008F9050008CD
:10012000F9050008F9050008F9050008F9050008B7
:10013000F90500080000000000000000F9050008B3
:10014000F9050008F90500080000000000000000A3
:10015000000000000000000000000000000000009F
:10016000000000000000000000000000F905000889
:10017000F905000800000000000000000000000079
:1001800000000000F9050008000000000000000069
:10019000000000000000000000000000000000005F
:1001A0000000000000000000F9050008F905000843
:1001B000F9050008F9050008F9050008000000002D
:1001C00000000000F9050008000000000000000029
:0801D000F9050008F90500081B
:1001D80010B5054C237833B9044B13B10448AFF379
:1001E80000800123237010BD0C00002000000000D7
:1001F800EC20000808B5034B1BB103490348AFF3D3
:10020800008008BD0000000010000020EC2000085D
:1002180080B58CB000AF00F0ECF900F039F800F0D0
:10022800BDF800F075F8174A07F1280392E80300B3
:1002380018600433197009237B600023BB60002316
:10024800FB6005233B614FF000437B610023BB61EA
:100258000023FB6100233B6211237B620A4800F004
:1002680099FC07F128023B1D1946074800F0BAFC23
:100278004FF40051054800F065FF4FF4FA7000F0A4
:1002880029FAEEE7042100082800002000080048A9
:1002980080B594B000AF07F1180338220021184642
:1002A80001F018FF3B1D00221A605A609A60DA605C
:1002B8001A614FF4007000F05FFF0223BB614FF436
:1002C80080737B624023BB6200237B6307F11803C2
:1002D800184600F0F5FF0346002B01D000F09EF809
:1002E8000F237B600123BB600023FB6000233B617D
:1002F80000237B613B1D0021184601F0F3FA0346F9
:10030800002B01D000F08AF800BF5037BD4680BDF1
:1003180080B500AF1F4B204A1A601E4B00225A605E
:100328001C4B00229A601B4B0022DA60194B0022FA
:100338001A74184B00225A74164B00229A74154BE3
:1003480010225A61134B01229A61124B0222DA6180
:10035800104B02221A620F4B01225A620D4B0122E6
:100368009A620C4B0122DA620A4B01221A63094B8A
:1003780000225A63074B00229A63064B0022DA6375
:10038800044800F0ADFA0346002B01D000F046F80F
:1003980000BF80BD280000200064004080B588B000
:1003A80000AF07F10C0300221A605A609A60DA6005
:1003B8001A61184BDB6C174A43F00403D364154BDE
:1003C800DB6C03F00403BB60BB68124BDB6C114AA7
:1003D80043F00203D3640F4BDB6C03F002037B6032
:1003E8007B6800224FF400510B4800F093FE4FF455
:1003F8000053FB6001233B6100237B610023BB6149
:1004080007F10C031946044800F002FD00BF20372D
:10041800BD4680BD001002400008004880B400AF0F
:1004280072B600BFFEE7000080B483B000AF0F4B88
:100438001B6E0E4A43F0010313660C4B1B6E03F050
:1004480001037B607B68094B9B6D084A43F080532E
:100458009365064B9B6D03F080533B603B6800BF80
:100468000C37BD465DF8047B704700BF00100240A2
:1004780080B59AB000AF786007F1540300221A6083
:100488005A609A60DA601A6107F110034422002169
:10049800184601F01FFE7B681B68204A934238D13A
:1004A8004FF480533B614FF000733B6407F1100336
:1004B800184601F0FBFB0346002B01D0FFF7AEFF07
:1004C800174B9B6D164A43F000739365144B9B6D55
:1004D80003F00073FB60FB68114BDB6C104A43F0C0
:1004E8000203D3640E4BDB6C03F00203BB60BB68F2
:1004F8004FF440737B650223BB650023FB65002333
:100508003B6609237B6607F154031946054800F04A
:100518007FFC00BF6837BD4680BD00BF0064004057
:10052800001002400004004880B400AFFEE780B429
:1005380000AFFEE780B400AFFEE780B400AFFEE78F
:1005480080B400AFFEE780B400AF00BFBD465DF8E1
:10055800047B704780B400AF00BFBD465DF8047BE4
:10056800704780B400AF00BFBD465DF8047B70479C
:1005780080B500AF00F090F800BF80BD80B400AF38
:10058800064BD3F88830054A43F47003C2F8883024
:1005980000BFBD465DF8047B704700BF00ED00E07A
:1005A8000D488546FFF7EAFF0C480D490D4A002320
:1005B80002E0D458C4500433C4188C42F9D30A4A10
:1005C8000A4C002301E013600432A242FBD301F07D
:1005D8005DFDFFF71DFEFEE7008000200000002003
:1005E8000C000020342100080C000020900000209E
:1005F800FEE780B582B000AF0023FB71032000F056
:100608003DF90F2000F00EF80346002B02D001231D
:10061800FB7101E0FFF708FFFB7918460837BD4674
:1006280080BD000080B584B000AF78600023FB7304
:10063800164B1B68002B22D0154B1A68134B1B68EE
:100648004FF47A71B1FBF3F3B2FBF3F3184600F001
:100658003AF90346002B0FD17B680F2B09D80022EB
:1006680079684FF0FF3000F014F90A4A7B6813608C
:1006780007E00123FB7304E00123FB7301E001237E
:10068800FB73FB7B18461037BD4680BD0800002071
:10069800000000200400002080B400AF054B1A6859
:1006A800054B1B681344034A136000BFBD465DF841
:1006B800047B70478C0000200800002080B400AF45
:1006C800034B1B681846BD465DF8047B704700BFA6
:1006D8008C00002080B584B000AF7860FFF7EEFF93
:1006E800B8607B68FB60FB68B3F1FF3F04D0094B3F
:1006F8001B68FA681344FB6000BFFFF7DFFF024680
:10070800BB68D31AFA689A42F7D800BF00BF1037FF
:10071800BD4680BD0800002080B485B000AF786079
:100728007B6803F00703FB600C4BDB68BB60BA68AF
:100738004FF6FF031340BB60FB681A02BB68134304
:1007480043F0BF6343F40033BB60044ABB68D36023
:1007580000BF1437BD465DF8047B704700ED00E02C
:1007680080B400AF044BDB681B0A03F0070318468C
:10077800BD465DF8047B704700ED00E080B483B0AF
:1007880000AF03463960FB7197F90730002B0ADB8D
:100798003B68DAB20C4997F907301201D2B20B4420
:1007A80083F800230AE03B68DAB20849FB7903F0D2
:1007B8000F03043B1201D2B20B441A7600BF0C3768
:1007C800BD465DF8047B704700E100E000ED00E005
:1007D80080B489B000AFF860B9607A60FB6803F054
:1007E8000703FB61FB69C3F10703042B28BF04233C
:1007F800BB61FB690433062B02D9FB69033B00E0AC
:1008080000237B614FF0FF32BB6902FA03F3DA433E
:10081800BB681A407B699A404FF0FF317B6901FA47
:1008280003F3D9437B680B40134318462437BD466E
:100838005DF8047B7047000080B582B000AF786037
:100848007B68013BB3F1807F01D301230FE00A4AA3
:100858007B68013B53600F214FF0FF30FFF78EFF9D
:10086800054B00229A60044B07221A6000231846A1
:100878000837BD4680BD00BF10E000E080B582B0FB
:1008880000AF78607868FFF747FF00BF0837BD46BC
:1008980080BD80B586B000AF0346B9607A60FB734F
:1008A800FFF75EFF78617A68B9687869FFF790FFAB
:1008B800024697F90F3011461846FFF75FFF00BF51
:1008C8001837BD4680BD80B582B000AF78607868C3
:1008D800FFF7B2FF034618460837BD4680BD000043
:1008E80080B584B000AF78607B68002B01D101230C
:1008F80047E17B6893F85C30DBB2002B06D17B685C
:10090800002283F85D207868FFF7B2FD7B681B68DA
:100918009A697B681B6822F010029A61FFF7CEFE85
:10092800F86012E0FFF7CAFE0246FB68D31A0A2BEA
:100938000BD97B681B6E43F001027B681A667B68E3
:10094800032283F85C2001231BE17B681B689B69F9
:1009580003F00803082BE5D07B681B689A697B685D
:100968001B6842F001029A61FFF7A8FEF86012E0E6
:10097800FFF7A4FE0246FB68D31A0A2B0BD97B6843
:100988001B6E43F001027B681A667B68032283F8BA
:100998005C200123F5E07B681B689B6903F0010379
:1009A800002BE5D07B681B689A697B681B6842F05E
:1009B80002029A617B681B68744A934203D1744AA5
:1009C8007B685B6813607B681B7C012B08D17B68A4
:1009D8001B689A697B681B6822F040029A6107E0ED
:1009E8007B681B689A697B681B6842F040029A61C1
:1009F8007B685B7C012B08D17B681B689A697B68E4
:100A08001B6842F480429A6107E07B681B689A6918
:100A18007B681B6822F480429A617B689B7C012B6F
:100A280008D17B681B689A697B681B6822F480522E
:100A38009A6107E07B681B689A697B681B6842F4C7
:100A480080529A617B681B689B6923F440717B68BC
:100A58009A687B681B680A439A617B681B689A6975
:100A68007B681B6822F0A4029A617B681B681A697C
:100A78007B681B6822F010021A617B68DB68012B17
:100A880008D17B681B689A697B681B6842F004027E
:100A98009A612CE07B68DB68002B28D07B68DB68D8
:100AA800022B1CD07B681B689A697B681B6842F024
:100AB80080029A617B681B681A697B681B6842F030
:100AC80010021A617B68DB68032B10D17B681B68F6
:100AD8009A697B681B6842F020029A6107E07B688C
:100AE8001B689A697B681B6842F020029A617B68E0
:100AF8009B69013B5A067B68DB69013B1B021A4371
:100B08007B681B6A013B42EA03017B685B69013B26
:100B18001A047B681B680A43DA617B689B68B3F533
:100B2800407F15D17B689B6A5A1E7B68DB6A013B54
:100B38001B021A437B681B6B013B1B0142EA030142
:100B48007B685B6A013B1A047B681B680A43DA60AE
:100B58007B681B68D3F8C0107B68DA6B7B681B68FE
:100B68000A43C3F8C020786800F080F87B68002248
:100B78009A657B6800221A667B68012283F85C20EC
:100B8800002318461037BD4680BD00BF00640040F2
:100B98000065004080B483B000AF78607B6893F84C
:100BA8005C30DBB2012B10D17B68022283F85C2019
:100BB8007B681B689A697B681B6822F001029A614E
:100BC8007B6800221A66002306E07B681B6E43F0F0
:100BD80004027B681A66012318460C37BD465DF887
:100BE800047B704780B586B000AFF860B9607A6062
:100BF800FB6893F85C30DBB2022B2CD1FB681B68D6
:100C0800D3F8C43003F40013002B07D0FB681B6E25
:100C180043F40072FB681A66012323E0FB681B6833
:100C2800D3F8C4301B0C03F003037B617B697A683B
:100C3800B968F86800F070F8FB681B6801217A69E8
:100C480001FA02F2C3F8CC2001227B699A40FB68C2
:100C58009A65002306E0FB681B6E43F00802FB68F8
:100C68001A66012318461837BD4680BD80B485B082
:100C780000AF7860274BBB607B68BA681A647B68F2
:100C88001B68D3F8803023F4F8117B685B6B1A0477
:100C98007B681B680A43C3F88020BB6803F17002B5
:100CA8007B685A647B681B68D3F8803023F07061D6
:100CB8007B689B6B1A067B681B680A43C3F8802015
:100CC800BB6803F1B0027B689A64BB6803F5C47221
:100CD8007B68DA64BB6803F518727B681A65BB68C1
:100CE80003F51E727B685A65BB68FB6005E0FB680C
:100CF80000221A60FB680433FB60BB6803F5547379
:100D0800FA689A42F3D300BF00BF1437BD465DF8B6
:100D1800047B704700A4004080B489B000AFF8603D
:100D2800B9607A603B60BB685B68002B0AD1BB681E
:100D38001A69BB689B681A43BB681B689B0413430A
:100D4800FB610AE0BB681A69BB689B681A43BB6809
:100D58001B68134343F08043FB61BB681B6A1A0698
:100D6800BB68DB691A43BB689B691A43BB685B694C
:100D78001A43BB68DB681B0413433B61FB68596D6E
:100D88003A681346DB001344DB000B44BB61BB69C4
:100D9800FA691A60BB690433BB61BB693A691A60B6
:100DA800BB690433BB6100237B6120E07B690333AB
:100DB8007A6813441B781A067B69023379680B44F6
:100DC8001B781B041A437B69013379680B441B7831
:100DD8001B02134379687A690A4412781A43BB697B
:100DE8001A60BB690433BB617B6904337B61BB68F0
:100DF800DB68064AD35C1A467B699342D6D300BFA8
:100E080000BF2437BD465DF8047B70471C210008ED
:100E180080B487B000AF7860396000237B615AE105
:100E28003B681A6801217B6901FA03F31340FB60F0
:100E3800FB68002B00F04C813B685B6803F0030300
:100E4800012B05D03B685B6803F00303022B30D10C
:100E58007B689B683B617B695B00032202FA03F3B2
:100E6800DB433A6913403B613B68DA687B695B00A6
:100E780002FA03F33A6913433B617B683A699A6063
:100E88007B685B683B6101227B6902FA03F3DB4301
:100E98003A6913403B613B685B681B0903F0010238
:100EA8007B6902FA03F33A6913433B617B683A6949
:100EB8005A603B685B6803F00303032B17D07B6819
:100EC800DB683B617B695B00032202FA03F3DB43C7
:100ED8003A6913403B613B689A687B695B0002FA98
:100EE80003F33A6913433B617B683A69DA603B680C
:100EF8005B6803F00303022B23D17B69DA087B6864
:100F0800083253F822303B617B6903F007039B00EA
:100F18000F2202FA03F3DB433A6913403B613B6853
:100F28001A697B6903F007039B0002FA03F33A6925
:100F380013433B617B69DA087B680832396943F8F7
:100F480022107B681B683B617B695B00032202FA05
:100F580003F3DB433A6913403B613B685B6803F08A
:100F680003027B695B0002FA03F33A6913433B61AE
:100F78007B683A691A603B685B6803F44033002B6E
:100F880000F0A6805B4B1B6E5A4A43F001031366C0
:100F9800584B1B6E03F00103BB60BB68564A7B6964
:100FA8009B08023352F823303B617B6903F003034B
:100FB8009B000F2202FA03F3DB433A6913403B61BB
:100FC8007B68B3F1904F1FD07B684C4A934219D08D
:100FD8007B684B4A934213D07B684A4A93420DD0B0
:100FE8007B68494A934207D07B68484A934201D1BB
:100FF80005230AE0062308E0042306E0032304E0AF
:10100800022302E0012300E000237A6902F00302D0
:10101800920093403A6913433B6137497B699B08C7
:1010280002333A6941F82320394B9B683B61FB68DE
:10103800DB433A6913403B613B685B6803F4801308
:10104800002B03D03A69FB6813433B61304A3B6984
:1010580093602F4BDB683B61FB68DB433A691340C5
:101068003B613B685B6803F40013002B03D03A69CB
:10107800FB6813433B61264A3B69D360244B5B689A
:101088003B61FB68DB433A6913403B613B685B6843
:1010980003F40033002B03D03A69FB6813433B6128
:1010A8001B4A3B6953601A4B1B683B61FB68DB4377
:1010B8003A6913403B613B685B6803F48033002B5B
:1010C80003D03A69FB6813433B61114A3B691360DB
:1010D8007B6901337B613B681A687B6922FA03F3F9
:1010E800002B7FF49DAE00BF00BF1C37BD465DF8E6
:1010F800047B7047001002400000014000040048D3
:1011080000080048000C004800100048001400487F
:101118000004014080B483B000AF78600B467B8048
:1011280013467B707B78002B03D07A887B689A61A2
:1011380002E07A887B689A6200BF0C37BD465DF88A
:10114800047B704780B485B000AF78600B467B8025
:101158007B685B69FB607A88FB6813401A04FB684C
:10116800D9437B880B401A437B689A6100BF1437C8
:10117800BD465DF8047B704780B485B000AF7860E9
:101188007B68002B41D14B4B1B6803F4C063B3F55C
:10119800806F31D1474BD3F88030464A23F48073AF
:1011A800C2F88030434B1B6823F4C063414A43F4C0
:1011B80000731360404B1B68322202FB03F33F4A63
:1011C800A2FB03239B0C0133FB6002E0FB68013B9D
:1011D800FB60384B5B6903F48063B3F5806F02D121
:1011E800FB68002BF2D1334B5B6903F48063B3F5E2
:1011F800806F58D1032357E02E4BD3F880302D4A07
:1012080023F48073C2F880304DE07B68B3F5007F2B
:1012180041D1284B1B6803F4C063B3F5806F31D10B
:10122800244BD3F88030234A43F48073C2F88030CB
:10123800204B1B6823F4C0631E4A43F400731360F9
:101248001D4B1B68322202FB03F31C4AA2FB03233B
:101258009B0C0133FB6002E0FB68013BFB60154B14
:101268005B6903F48063B3F5806F02D1FB68002BE0
:10127800F2D1104B5B6903F48063B3F5806F12D130
:10128800032311E00B4BD3F880300A4A43F48073F0
:10129800C2F8803007E0074B1B6823F4C063054A97
:1012A80043F480631360002318461437BD465DF885
:1012B800047B7047007000400000002083DE1B4361
:1012C80080B588B000AF78607B68002B01D101231E
:1012D800FEE27B681B6803F00103002B75D0974B77
:1012E8009B6803F00C03BB61944BDB6803F00303BA
:1012F8007B61BB690C2B02D17B69032B02D0BB69D4
:10130800082B0BD18D4B1B6803F40033002B5BD0EB
:101318007B685B68002B57D10123D9E27B685B6847
:10132800B3F5803F06D1854B1B68844A43F480336C
:1013380013601DE07B685B68B3F5A02F0CD17F4B71
:101348001B687E4A43F4802313607C4B1B687B4AEE
:1013580043F4803313600BE0784B1B68774A23F41F
:1013680080331360754B1B68744A23F48023136021
:101378007B685B68002B13D0FFF7A0F9386108E0A1
:10138800FFF79CF902463B69D31A642B01D9032362
:101398009EE26A4B1B6803F40033002BF0D014E084
:1013A800FFF78CF9386108E0FFF788F902463B69D6
:1013B800D31A642B01D903238AE2604B1B6803F418
:1013C8000033002BF0D100E000BF7B681B6803F0FE
:1013D8000203002B75D0594B9B6803F00C03BB61CB
:1013E800564BDB6803F003037B61BB690C2B02D10E
:1013F8007B69022B02D0BB69042B1FD14F4B1B68A2
:1014080003F48063002B05D07B68DB68002B01D1D7
:1014180001235DE2494B5B6823F0FE427B681B6950
:101428001B06464913434B60454B1B681846FFF79C
:10143800F9F80346002B43D0012349E27B68DB68B7
:10144800002B23D03D4B1B683C4A43F48073136048
:10145800FFF734F9386108E0FFF730F902463B69D5
:10146800D31A022B01D9032332E2344B1B6803F44D
:101478008063002BF0D0314B5B6823F0FE427B6821
:101488001B691B062D4913434B601AE02B4B1B6845
:101498002A4A23F480731360FFF710F9386108E0D3
:1014A800FFF70CF902463B69D31A022B01D9032333
:1014B8000EE2224B1B6803F48063002BF0D100E09E
:1014C80000BF7B681B6803F00803002B41D07B68D2
:1014D8005B69002B1CD0194BD3F89430174A43F0A2
:1014E8000103C2F89430FFF7E9F8386108E0FFF724
:1014F800E5F802463B69D31A022B01D90323E7E139
:101508000E4BD3F8943003F00203002BEFD020E009
:101518000A4BD3F89430094A23F00103C2F89430F7
:10152800FFF7CCF838610DE0FFF7C8F802463B69D1
:10153800D31A022B06D90323CAE100BF00100240C8
:10154800040000208C4BD3F8943003F00203002BE6
:10155800EAD17B681B6803F00403002B00F0A68027
:101568000023FB77844B9B6D03F08053002B01D144
:10157800012300E00023002B0DD07F4B9B6D7E4A9A
:1015880043F0805393657C4B9B6D03F08053FB6065
:10159800FB680123FB77794B1B6803F48073002BEE
:1015A80018D1764B1B68754A43F480731360FFF7B4
:1015B80085F8386108E0FFF781F802463B69D31ADD
:1015C800022B01D9032383E16C4B1B6803F480735E
:1015D800002BF0D07B689B68012B08D1664BD3F8B1
:1015E8009030654A43F00103C2F8903024E07B68EC
:1015F8009B68052B10D1604BD3F890305E4A43F0BE
:101608000403C2F890305C4BD3F890305A4A43F048
:101618000103C2F890300FE0574BD3F89030564A88
:1016280023F00103C2F89030534BD3F89030524A5C
:1016380023F00403C2F890307B689B68002B16D017
:10164800FFF73CF838610AE0FFF738F802463B69D3
:10165800D31A41F28832934201D9032338E1464B29
:10166800D3F8903003F00203002BEDD015E0FFF71C
:1016780025F838610AE0FFF721F802463B69D31ADA
:1016880041F28832934201D9032321E13A4BD3F83E
:10169800903003F00203002BEDD1FB7F012B05D125
:1016A800354B9B6D344A23F0805393657B681B68E8
:1016B80003F02003002B3CD07B689B69002B1CD0D7
:1016C8002D4BD3F898302C4A43F00103C2F89830D8
:1016D800FEF7F4FF386108E0FEF7F0FF02463B69C9
:1016E800D31A022B01D90323F2E0234BD3F8983005
:1016F80003F00203002BEFD01BE01F4BD3F8983008
:101708001D4A23F00103C2F89830FEF7D7FF38616D
:1017180008E0FEF7D3FF02463B69D31A022B01D932
:101728000323D5E0144BD3F8983003F00203002BC1
:10173800EFD17B68DB69002B00F0C9800E4B9B68FA
:1017480003F00C030C2B00F083807B68DB69022B11
:101758005ED1094B1B68084A23F080731360FEF7BB
:10176800ADFF38610CE0FEF7A9FF02463B69D31ACA
:10177800022B05D90323ABE00010024000700040A3
:10178800554B1B6803F00073002BECD1524BDA6801
:10179800524B13407A68116A7A68526A013A120108
:1017A80011437A68926A120211437A68126B5208DE
:1017B800013A520511437A68526B5208013A5206AF
:1017C80011437A68D26AD2060A4343491343CB606D
:1017D800414B1B68404A43F0807313603E4BDB6803
:1017E8003D4A43F08073D360FEF768FF386108E034
:1017F800FEF764FF02463B69D31A022B01D9032383
:1018080066E0354B1B6803F00073002BF0D05EE0F8
:10181800314B1B68304A23F080731360FEF74EFF8C
:10182800386108E0FEF74AFF02463B69D31A022BEB
:1018380001D903234CE0284B1B6803F00073002BED
:10184800F0D1254BDA682449254B1340CB603EE0A4
:101858007B68DB69012B01D1012339E01E4BDB6872
:101868007B617B6903F003027B681B6A9A422CD177
:101878007B6903F0F0027B685B6A013B1B019A42BB
:1018880023D17B6903F4FE427B689B6A1B029A4260
:101898001BD17B6903F078427B68DB6ADB069A42DE
:1018A80013D17B6903F4C0027B681B6B5B08013BA7
:1018B8005B059A4209D17B6903F0C0627B685B6B68
:1018C8005B08013B5B069A4201D0012300E000233C
:1018D80018462037BD4680BD001002400C809F018D
:1018E800FCFFEEFE80B586B000AF7860396000235B
:1018F8007B617B68002B01D101231EE1914B1B68A2
:1019080003F00F033A689A4210D98E4B1B6823F0F4
:101918000F028C493B6813430B608A4B1B6803F02A
:101928000F033A689A4201D0012306E17B681B68DD
:1019380003F00103002B73D07B685B68032B29D16C
:10194800814B1B6803F00073002B01D10123F4E0E5
:1019580000F066F938613B697C4A93423FD97A4B7B
:101968009B6803F0F003002B09D07B681B6803F029
:101978000203002B33D07B689B68002B2FD1724B5E
:101988009B6823F0F003704A43F080039360802340
:101998007B6124E07B685B68022B07D16A4B1B687C
:1019A80003F40033002B09D10123C6E0664B1B6802
:1019B80003F48063002B01D10123BEE000F0CEF8D0
:1019C80038613B69614A934209D95F4B9B6823F0B0
:1019D800F0035D4A43F08003936080237B615A4B98
:1019E8009B6823F003027B685B68574913438B604D
:1019F800FEF764FEF8600AE0FEF760FE0246FB6848
:101A0800D31A41F28832934201D9032395E04E4B11
:101A18009B6803F00C027B685B689B009A42EBD1E1
:101A28007B681B6803F00203002B23D07B681B68CC
:101A380003F00403002B05D0434B9B68424A43F450
:101A4800E06393607B681B6803F00803002B07D0F2
:101A58003D4B9B6823F47C533B4A43F4E06393601B
:101A6800394B9B6823F0F0027B689B683649134327
:101A78008B6008E07B69802B05D1334B9B68324A29
:101A880023F0F00393602F4B1B6803F00F033A68B1
:101A98009A421DD22B4B1B6823F00F0229493B6841
:101AA80013430B60FEF70AFEF8600AE0FEF706FE35
:101AB8000246FB68D31A41F28832934201D90323C4
:101AC8003BE0204B1B6803F00F033A689A42EDD1C4
:101AD8007B681B6803F00403002B08D01A4B9B6833
:101AE80023F4E0627B68DB68174913438B607B68EB
:101AF8001B6803F00803002B09D0134B9B6823F4E1
:101B080060527B681B69DB000F4913438B6000F050
:101B180025F802460C4B9B681B0903F00F030C4980
:101B2800CB5C03F01F0322FA03F30A4A13600A4B43
:101B38001B681846FEF776FD034618461837BD465B
:101B480080BD00BF002002400010024000B4C40461
:101B58000C210008000000200400002080B487B099
:101B680000AF2C4B9B6803F00C03042B02D12A4BCB
:101B78003B6147E0274B9B6803F00C03082B02D11D
:101B8800264B3B613EE0234B9B6803F00C030C2B78
:101B980036D1204BDB6803F00303FB601D4BDB6889
:101BA8001B0903F00F030133BB60FB68032B0CD147
:101BB8001A4ABB68B2FBF3F3164AD268120A02F05B
:101BC8007F0202FB03F37B610CE0134ABB68B2FBA4
:101BD800F3F3104AD268120A02F07F0202FB03F301
:101BE8007B6100BF0B4BDB685B0E03F00303013323
:101BF8005B007B607A697B68B2FBF3F33B6101E0D1
:101C080000233B613B6918461C37BD465DF8047BE1
:101C1800704700BF001002400024F40000127A0050
:101C280080B487B000AF1E4BDB6803F003033B6151
:101C38001B4BDB681B0903F00F030133FB603B6997
:101C4800032B0CD1174AFB68B2FBF3F3144AD26892
:101C5800120A02F07F0202FB03F37B610CE0124AD6
:101C6800FB68B2FBF3F30E4AD268120A02F07F0255
:101C780002FB03F37B6100BF094BDB685B0E03F0DB
:101C8800030301335B00BB607A69BB68B2FBF3F303
:101C98007B607B6818461C37BD465DF8047B70473F
:101CA8000010024000127A000024F40080B586B0CB
:101CB80000AF78600023FB740023BB747B681B684B
:101CC80003F40023002B00F0988000237B74434B1F
:101CD8009B6D03F08053002B0DD1404B9B6D3F4A09
:101CE80043F0805393653D4B9B6D03F08053BB607D
:101CF800BB6801237B743A4B1B68394A43F48073F1
:101D08001360FEF7DBFCF86009E0FEF7D7FC02463B
:101D1800FB68D31A022B02D90323FB7405E0304B6E
:101D28001B6803F48073002BEFD0FB7C002B59D188
:101D38002A4BD3F8903003F440737B617B69002B06
:101D48001ED07B681B6C7A699A4219D0234BD3F852
:101D5800903023F440737B61204BD3F890301F4AB6
:101D680043F48033C2F890301C4BD3F890301B4AB0
:101D780023F48033C2F89030184A7B69C2F8903057
:101D88007B6903F00103002B16D0FEF797FCF8607F
:101D98000BE0FEF793FC0246FB68D31A41F2883247
:101DA800934202D90323FB7406E00C4BD3F890301E
:101DB80003F00203002BECD0FB7C002B0BD1074B6C
:101DC800D3F8903023F440727B681B6C03491343AB
:101DD800C1F8903008E0FB7CBB7405E000100240BD
:101DE80000700040FB7CBB747B7C012B05D1A64BAB
:101DF8009B6DA54A23F0805393657B681B6803F0AD
:101E08000103002B0AD0A04BD3F8883023F003023B
:101E18007B685B689C491343C1F888307B681B6802
:101E280003F00203002B0AD0974BD3F8883023F035
:101E38000C027B689B6894491343C1F888307B681F
:101E48001B6803F00403002B0AD08F4BD3F88830AB
:101E580023F030027B68DB688B491343C1F8883074
:101E68007B681B6803F00803002B0AD0864BD3F865
:101E7800883023F0C0027B681B6983491343C1F88B
:101E880088307B681B6803F02003002B0AD07E4B48
:101E9800D3F8883023F440627B685B697A4913433E
:101EA800C1F888307B681B6803F04003002B0AD018
:101EB800754BD3F8883023F440527B689B6972498C
:101EC8001343C1F888307B681B6803F08003002B3C
:101ED8000AD06D4BD3F8883023F440427B68DB6925
:101EE80069491343C1F888307B681B6803F4807321
:101EF800002B0AD0644BD3F8883023F440327B6837
:101F08001B6A61491343C1F888307B681B6803F476
:101F18000073002B0AD05C4BD3F8883023F440229E
:101F28007B685B6A58491343C1F888307B681B6833
:101F380003F48063002B15D0534BD3F8883023F477
:101F480040127B689B6A50491343C1F888307B680C
:101F58009B6AB3F5801F05D14B4BDB684A4A43F4B3
:101F68008013D3607B681B6803F40063002B15D0D3
:101F7800454BD3F8883023F440027B68DB6A42493A
:101F88001343C1F888307B68DB6AB3F5800F05D14D
:101F98003D4BDB683C4A43F48013D3607B681B6885
:101FA80003F48053002B15D0374BD3F8883023F037
:101FB80040727B681B6B34491343C1F888307B68D7
:101FC8001B6BB3F1807F05D12F4BDB682E4A43F49E
:101FD8008013D3607B681B6803F40053002B15D073
:101FE800294BD3F8883023F040627B685B6B264925
:101FF8001343C1F888307B685B6BB3F1006F05D180
:10200800214BDB68204A43F48013D3607B681B684C
:1020180003F48043002B15D01B4BD3F8883023F0F2
:1020280040627B689B6B18491343C1F888307B6812
:102038009B6BB3F1006F05D1134BDB68124A43F475
:102048008013D3607B681B6803F40043002B15D012
:102058000D4BD3F8883023F040527B68DB6B0A497C
:102068001343C1F888307B68DB6BB3F1805F05D11F
:10207800054BDB68044A43F48033D360BB7C1846C5
:102088001837BD4680BD00BF0010024070B50D4D29
:102098000D4C641BA4100026A64209D10B4D0C4C14
:1020A80000F020F8641BA4100026A64205D170BDDC
:1020B80055F8043B98470136EEE755F8043B984736
:1020C8000136F2E72C2100082C2100082C210008F9
:1020D8003021000802440346934200D1704703F8B8
:1020E800011BF9E7F8B500BFF8BC08BC9E4670476D
:0C20F800F8B500BFF8BC08BC9E4670475D
:1021040048656C6C6F0000000000000000000000D7
:102114000102030406070809000102030405060777
:08212400080C101418203040D3
:04212C00FD010008A9
:04213000D9010008C9
:0C2134000024F400100000000100000076
:04000005080005A941
:00000001FF
